{
  "contractName": "CommentManager",
  "abi": [
    {
      "constant": true,
      "inputs": [
        {
          "name": "",
          "type": "bytes"
        }
      ],
      "name": "commentIds",
      "outputs": [
        {
          "name": "",
          "type": "uint256"
        }
      ],
      "payable": false,
      "stateMutability": "view",
      "type": "function"
    },
    {
      "constant": false,
      "inputs": [
        {
          "name": "_newEvaluation",
          "type": "uint256"
        },
        {
          "name": "_address",
          "type": "bytes32"
        }
      ],
      "name": "updateReputaion",
      "outputs": [
        {
          "name": "",
          "type": "uint256"
        }
      ],
      "payable": false,
      "stateMutability": "nonpayable",
      "type": "function"
    },
    {
      "constant": true,
      "inputs": [
        {
          "name": "_address",
          "type": "bytes32"
        }
      ],
      "name": "getName",
      "outputs": [
        {
          "name": "",
          "type": "string"
        }
      ],
      "payable": false,
      "stateMutability": "view",
      "type": "function"
    },
    {
      "constant": false,
      "inputs": [
        {
          "name": "_username",
          "type": "string"
        },
        {
          "name": "_address",
          "type": "bytes32"
        }
      ],
      "name": "registerUser",
      "outputs": [
        {
          "name": "",
          "type": "uint256"
        }
      ],
      "payable": false,
      "stateMutability": "nonpayable",
      "type": "function"
    },
    {
      "constant": true,
      "inputs": [
        {
          "name": "_address",
          "type": "bytes32"
        }
      ],
      "name": "isNotRegistered",
      "outputs": [
        {
          "name": "",
          "type": "bool"
        }
      ],
      "payable": false,
      "stateMutability": "view",
      "type": "function"
    },
    {
      "constant": true,
      "inputs": [
        {
          "name": "",
          "type": "bytes32"
        }
      ],
      "name": "usersIds",
      "outputs": [
        {
          "name": "",
          "type": "uint256"
        }
      ],
      "payable": false,
      "stateMutability": "view",
      "type": "function"
    },
    {
      "inputs": [],
      "payable": false,
      "stateMutability": "nonpayable",
      "type": "constructor"
    },
    {
      "anonymous": false,
      "inputs": [
        {
          "indexed": false,
          "name": "id",
          "type": "uint256"
        }
      ],
      "name": "newCommentRegistered",
      "type": "event"
    },
    {
      "anonymous": false,
      "inputs": [
        {
          "indexed": false,
          "name": "id",
          "type": "uint256"
        }
      ],
      "name": "newUserRegistered",
      "type": "event"
    },
    {
      "anonymous": false,
      "inputs": [
        {
          "indexed": false,
          "name": "id",
          "type": "uint256"
        }
      ],
      "name": "userUpdateRepEvent",
      "type": "event"
    },
    {
      "constant": false,
      "inputs": [
        {
          "name": "_author",
          "type": "bytes32"
        },
        {
          "name": "_title",
          "type": "bytes32"
        },
        {
          "name": "_content",
          "type": "string"
        },
        {
          "name": "_discussionTitle",
          "type": "bytes32"
        }
      ],
      "name": "registerComment",
      "outputs": [
        {
          "name": "",
          "type": "uint256"
        }
      ],
      "payable": false,
      "stateMutability": "nonpayable",
      "type": "function"
    }
  ],
  "bytecode": "0x60806040523480156200001157600080fd5b5062000053604051806020016040528060008152507f3078300000000000000000000000000000000000000000000000000000000000620001b860201b60201c565b50620000bb6040518060400160405280600a81526020017f4c656f6e2042726f776e000000000000000000000000000000000000000000008152507f3078333333333333333333333333000000000000000000000000000000000000620001b860201b60201c565b50620001236040518060400160405280600a81526020017f4a6f686e20446f656e74000000000000000000000000000000000000000000008152507f3078313131313131313131313131000000000000000000000000000000000000620001b860201b60201c565b506200018b6040518060400160405280600a81526020017f4d61727920536d697468000000000000000000000000000000000000000000008152507f3078323232323232323232323232000000000000000000000000000000000000620001b860201b60201c565b50620001b1600080604051806020016040528060008152506000620002d560201b60201c565b50620007f0565b60008060008084815260200190815260200160002054905060008114620001de57600080fd5b60018054905060008085815260200190815260200160002081905550600060018054809190600101620002129190620005d7565b90506040518060800160405280868152602001858152602001600181526020016000815250600182815481106200024557fe5b90600052602060002090600402016000820151816000019080519060200190620002719291906200060c565b506020820151816001015560408201518160020155606082015181600301559050507f2456c02735fb44894660d2af194ca5261385d8ee03675e1d75b0da1300a764cd816040518082815260200191505060405180910390a1809250505092915050565b6000606062000306620002f484876200052660201b62000a5c1760201c565b876200055860201b62000a8e1760201c565b905060006002826040518082805190602001908083835b602083106200034257805182526020820191506020810190506020830392506200031d565b6001836020036101000a0380198251168184511680821785525050505050509050019150509081526020016040518091039020549050600081146200038657600080fd5b6003805490506002836040518082805190602001908083835b60208310620003c457805182526020820191506020810190506020830392506200039f565b6001836020036101000a03801982511681845116808217855250505050505090500191505090815260200160405180910390208190555060006003805480919060010162000413919062000693565b90506040518060c001604052808981526020018881526020018781526020016000815260200160008152602001600060028111156200044e57fe5b815250600382815481106200045f57fe5b9060005260206000209060060201600082015181600001556020820151816001015560408201518160020190805190602001906200049f9291906200060c565b50606082015181600301556080820151816004015560a08201518160050160006101000a81548160ff02191690836002811115620004d957fe5b02179055509050507f4d777f60d952db1e3dfea06728df320f7aa655f4414c8b3cbf51c9acebfc36ca816040518082815260200191505060405180910390a1809350505050949350505050565b606082826040516020018083815260200182815260200192505050604051602081830303815290604052905092915050565b606082826040516020018083805190602001908083835b602083106200059457805182526020820191506020810190506020830392506200056f565b6001836020036101000a03801982511681845116808217855250505050505090500182815260200192505050604051602081830303815290604052905092915050565b8154818355818111156200060757600402816004028360005260206000209182019101620006069190620006c8565b5b505050565b828054600181600116156101000203166002900490600052602060002090601f016020900481019282601f106200064f57805160ff191683800117855562000680565b8280016001018555821562000680579182015b828111156200067f57825182559160200191906001019062000662565b5b5090506200068f919062000714565b5090565b815481835581811115620006c357600602816006028360005260206000209182019101620006c291906200073c565b5b505050565b6200071191905b808211156200070d5760008082016000620006eb9190620007a4565b60018201600090556002820160009055600382016000905550600401620006cf565b5090565b90565b6200073991905b80821115620007355760008160009055506001016200071b565b5090565b90565b620007a191905b808211156200079d5760008082016000905560018201600090556002820160006200076f9190620007a4565b600382016000905560048201600090556005820160006101000a81549060ff02191690555060060162000743565b5090565b90565b50805460018160011615610100020316600290046000825580601f10620007cc5750620007ed565b601f016020900490600052602060002090810190620007ec919062000714565b5b50565b610d3280620008006000396000f3fe608060405234801561001057600080fd5b506004361061007d5760003560e01c806368ae55631161005b57806368ae5563146102445780637898ac9d1461031d578063b0fc18751461040a578063ed272f72146104505761007d565b806311902934146100825780632e2ca08c1461015157806354b8d5e31461019d575b600080fd5b61013b6004803603602081101561009857600080fd5b81019080803590602001906401000000008111156100b557600080fd5b8201836020820111156100c757600080fd5b803590602001918460018302840111640100000000831117156100e957600080fd5b91908080601f016020809104026020016040519081016040528093929190818152602001838380828437600081840152601f19601f820116905080830192505050505050509192919290505050610492565b6040518082815260200191505060405180910390f35b6101876004803603604081101561016757600080fd5b8101908080359060200190929190803590602001909291905050506104c0565b6040518082815260200191505060405180910390f35b6101c9600480360360208110156101b357600080fd5b810190808035906020019092919050505061055d565b6040518080602001828103825283818151815260200191508051906020019080838360005b838110156102095780820151818401526020810190506101ee565b50505050905090810190601f1680156102365780820380516001836020036101000a031916815260200191505b509250505060405180910390f35b6103076004803603604081101561025a57600080fd5b810190808035906020019064010000000081111561027757600080fd5b82018360208201111561028957600080fd5b803590602001918460018302840111640100000000831117156102ab57600080fd5b91908080601f016020809104026020016040519081016040528093929190818152602001838380828437600081840152601f19601f8201169050808301925050505050505091929192908035906020019092919050505061063b565b6040518082815260200191505060405180910390f35b6103f46004803603608081101561033357600080fd5b8101908080359060200190929190803590602001909291908035906020019064010000000081111561036457600080fd5b82018360208201111561037657600080fd5b8035906020019184600183028401116401000000008311171561039857600080fd5b91908080601f016020809104026020016040519081016040528093929190818152602001838380828437600081840152601f19601f820116905080830192505050505050509192919290803590602001909291905050506106cc565b6040518082815260200191505060405180910390f35b6104366004803603602081101561042057600080fd5b81019080803590602001909291905050506106e4565b604051808215151515815260200191505060405180910390f35b61047c6004803603602081101561046657600080fd5b8101908080359060200190929190505050610702565b6040518082815260200191505060405180910390f35b6002818051602081018201805184825260208301602085012081835280955050505050506000915090505481565b6000806000808481526020019081526020016000205490506000600182815481106104e757fe5b906000526020600020906004020190508481600201819055508060030160008154809291906001019190505581600301819055507f166e2330253d37480aba732992b9720da8871bbc0aa0902860d2fa6bb3c0c9ee826040518082815260200191505060405180910390a1819250505092915050565b6060600080600084815260200190815260200160002054905060006001828154811061058557fe5b90600052602060002090600402019050806000018054600181600116156101000203166002900480601f01602080910402602001604051908101604052809291908181526020018280546001816001161561010002031660029004801561062d5780601f106106025761010080835404028352916020019161062d565b820191906000526020600020905b81548152906001019060200180831161061057829003601f168201915b505050505092505050919050565b600081610647816106e4565b6106b9576040517f08c379a00000000000000000000000000000000000000000000000000000000081526004018080602001828103825260178152602001807f5573657220616c7265616479207265676973746572656400000000000000000081525060200191505060405180910390fd5b6106c3848461071a565b91505092915050565b60006106da85858585610831565b9050949350505050565b60008060008084815260200190815260200160002054149050919050565b60006020528060005260406000206000915090505481565b6000806000808481526020019081526020016000205490506000811461073f57600080fd5b600180549050600080858152602001908152602001600020819055506000600180548091906001016107719190610b0b565b90506040518060800160405280868152602001858152602001600181526020016000815250600182815481106107a357fe5b906000526020600020906004020160008201518160000190805190602001906107cd929190610b3d565b506020820151816001015560408201518160020155606082015181600301559050507f2456c02735fb44894660d2af194ca5261385d8ee03675e1d75b0da1300a764cd816040518082815260200191505060405180910390a1809250505092915050565b600060606108486108428487610a5c565b87610a8e565b905060006002826040518082805190602001908083835b60208310610882578051825260208201915060208101905060208303925061085f565b6001836020036101000a0380198251168184511680821785525050505050509050019150509081526020016040518091039020549050600081146108c557600080fd5b6003805490506002836040518082805190602001908083835b6020831061090157805182526020820191506020810190506020830392506108de565b6001836020036101000a03801982511681845116808217855250505050505090500191505090815260200160405180910390208190555060006003805480919060010161094e9190610bbd565b90506040518060c0016040528089815260200188815260200187815260200160008152602001600081526020016000600281111561098857fe5b8152506003828154811061099857fe5b9060005260206000209060060201600082015181600001556020820151816001015560408201518160020190805190602001906109d6929190610b3d565b50606082015181600301556080820151816004015560a08201518160050160006101000a81548160ff02191690836002811115610a0f57fe5b02179055509050507f4d777f60d952db1e3dfea06728df320f7aa655f4414c8b3cbf51c9acebfc36ca816040518082815260200191505060405180910390a1809350505050949350505050565b606082826040516020018083815260200182815260200192505050604051602081830303815290604052905092915050565b606082826040516020018083805190602001908083835b60208310610ac85780518252602082019150602081019050602083039250610aa5565b6001836020036101000a03801982511681845116808217855250505050505090500182815260200192505050604051602081830303815290604052905092915050565b815481835581811115610b3857600402816004028360005260206000209182019101610b379190610bef565b5b505050565b828054600181600116156101000203166002900490600052602060002090601f016020900481019282601f10610b7e57805160ff1916838001178555610bac565b82800160010185558215610bac579182015b82811115610bab578251825591602001919060010190610b90565b5b509050610bb99190610c36565b5090565b815481835581811115610bea57600602816006028360005260206000209182019101610be99190610c5b565b5b505050565b610c3391905b80821115610c2f5760008082016000610c0e9190610cbe565b60018201600090556002820160009055600382016000905550600401610bf5565b5090565b90565b610c5891905b80821115610c54576000816000905550600101610c3c565b5090565b90565b610cbb91905b80821115610cb7576000808201600090556001820160009055600282016000610c8a9190610cbe565b600382016000905560048201600090556005820160006101000a81549060ff021916905550600601610c61565b5090565b90565b50805460018160011615610100020316600290046000825580601f10610ce45750610d03565b601f016020900490600052602060002090810190610d029190610c36565b5b5056fea165627a7a723058202f9867beb62aa85f4bd0752e87feffd755a20f3aeda94607033164406e097bd00029",
  "source": "pragma solidity ^0.5.0;\r\n\r\nimport \"./UserManager.sol\";\r\nimport \"./ConcatHelper.sol\";\r\n\r\ncontract CommentManager is UserManager {\r\n  //library to concat bytes\r\n  using ConcatHelper for bytes;\r\n\r\n  // indicate the status of the comment\r\n  enum Stat{Pending, Accepted, Rejected}\r\n\r\n  //struct with the basic comment information\r\n  struct Comment {\r\n    // author of the comment\r\n    bytes32 author;\r\n    //comment title\r\n    bytes32 title;\r\n    // content of the comment\r\n    string content;\r\n    // number of positive vote received\r\n    uint numPosRecVote;\r\n    // number of negative vote received\r\n    uint numNegRecVote;\r\n    // the status of the comment\r\n    Stat stat;\r\n  }\r\n\r\n  // map with key= 'commentId'+'comment_title' and value a number\r\n  mapping(bytes => uint) public commentIds;\r\n\r\n  //Array of comment\r\n  Comment[] comments;\r\n\r\n  // event fired when an comment is registered\r\n  event newCommentRegistered(uint id);\r\n\r\n  constructor() public{\r\n    // NOTE: the first comment and participant MUST be emtpy:\r\n    // if you are trying to access to an element\r\n    // of the commentIds mapping that does not exist you will\r\n    // receive 0, that's why in the first position (with index 0) must be initialized\r\n    addComment(\"\", \"\", \"\", \"\");\r\n  }\r\n  /**\r\n    * Function to register a new comment.\r\n    *\r\n    * @param _author the address of the author\r\n    * @param _title title of the comment\r\n    * @param _content the content of the comment\r\n   */\r\n  function registerComment(\r\n    bytes32 _author,\r\n    bytes32 _title,\r\n    string memory _content,\r\n    bytes32 _discussionTitle)\r\n  public returns (uint) {\r\n    return addComment(_author, _title, _content, _discussionTitle);\r\n  }\r\n\r\n  /**\r\n  * Add a new comment. This function must be private because an user\r\n  * cannot insert other information about comment and participant\r\n  *\r\n  * @param _author author of the comment\r\n  * @param _commentTitle title of the comment\r\n  * @param _content content of comment\r\n  */\r\n  function addComment(\r\n    bytes32 _author,\r\n    bytes32 _commentTitle,\r\n    string memory _content,\r\n    bytes32 _discussionTitle)\r\n  private returns (uint) {\r\n    bytes memory _commentKey = ConcatHelper.concat2(ConcatHelper.concat(_discussionTitle, _commentTitle), _author);\r\n    // checking if the comment is already registered\r\n    uint commentId = commentIds[_commentKey];\r\n    require(commentId == 0);\r\n    // associating the title of comment with the new ID\r\n    commentIds[_commentKey] = comments.length;\r\n    uint newCommentId = comments.length++;\r\n    // storing the new user details\r\n    comments[newCommentId] = Comment({\r\n      author : _author,\r\n      title : _commentTitle,\r\n      content : _content,\r\n      numPosRecVote : 0,\r\n      numNegRecVote : 0,\r\n      stat : Stat.Pending\r\n      });\r\n    // emitting the event that a new user has been registered\r\n    emit newCommentRegistered(newCommentId);\r\n    return newCommentId;\r\n  }\r\n}\r\n",
  "sourcePath": "C:\\Users\\Giulia\\IdeaProjects\\BlockArt_Project\\block-art\\blockart-blockchain\\contracts\\CommentManager.sol",
  "compiler": {
    "name": "solc",
    "version": "0.5.8+commit.23d335f2.Emscripten.clang"
  },
  "schemaVersion": "3.0.13",
  "updatedAt": "2019-09-10T13:29:58.412Z",
  "devdoc": {
    "methods": {
      "registerComment(bytes32,bytes32,string,bytes32)": {
        "params": {
          "_author": "the address of the author\r",
          "_content": "the content of the comment\r",
          "_title": "title of the comment\r"
        }
      },
      "registerUser(string,bytes32)": {
        "params": {
          "_username": "The displaying name*\r"
        }
      },
      "updateReputaion(uint256,bytes32)": {
        "params": {
          "_address": "of the updated profile\r",
          "_newEvaluation": "The new user's displaying name\r"
        }
      }
    }
  },
  "userdoc": {
    "methods": {
      "isNotRegistered(bytes32)": {
        "notice": "Check if the user that is calling the smart contract is registered.\r"
      },
      "registerComment(bytes32,bytes32,string,bytes32)": {
        "notice": "Function to register a new comment.\r "
      },
      "registerUser(string,bytes32)": {
        "notice": "Function to register a new user.\r "
      },
      "updateReputaion(uint256,bytes32)": {
        "notice": "Update the evaluation of the user calling this method.\r Note: only the evaluation has been validate profile is update.\r "
      }
    }
  }
}