{
  "contractName": "CommentManager",
  "abi": [
    {
      "constant": false,
      "inputs": [
        {
          "name": "_newEvaluation",
          "type": "uint256"
        },
        {
          "name": "_address",
          "type": "bytes32"
        }
      ],
      "name": "updateReputaion",
      "outputs": [
        {
          "name": "",
          "type": "uint256"
        }
      ],
      "payable": false,
      "stateMutability": "nonpayable",
      "type": "function"
    },
    {
      "constant": true,
      "inputs": [
        {
          "name": "",
          "type": "bytes32"
        }
      ],
      "name": "commentIds",
      "outputs": [
        {
          "name": "",
          "type": "uint256"
        }
      ],
      "payable": false,
      "stateMutability": "view",
      "type": "function"
    },
    {
      "constant": true,
      "inputs": [
        {
          "name": "_address",
          "type": "bytes32"
        }
      ],
      "name": "getName",
      "outputs": [
        {
          "name": "",
          "type": "string"
        }
      ],
      "payable": false,
      "stateMutability": "view",
      "type": "function"
    },
    {
      "constant": false,
      "inputs": [
        {
          "name": "_username",
          "type": "string"
        },
        {
          "name": "_address",
          "type": "bytes32"
        }
      ],
      "name": "registerUser",
      "outputs": [
        {
          "name": "",
          "type": "uint256"
        }
      ],
      "payable": false,
      "stateMutability": "nonpayable",
      "type": "function"
    },
    {
      "constant": true,
      "inputs": [
        {
          "name": "_address",
          "type": "bytes32"
        }
      ],
      "name": "isNotRegistered",
      "outputs": [
        {
          "name": "",
          "type": "bool"
        }
      ],
      "payable": false,
      "stateMutability": "view",
      "type": "function"
    },
    {
      "constant": true,
      "inputs": [
        {
          "name": "_address",
          "type": "bytes32"
        }
      ],
      "name": "getReputation",
      "outputs": [
        {
          "name": "",
          "type": "uint256"
        }
      ],
      "payable": false,
      "stateMutability": "view",
      "type": "function"
    },
    {
      "constant": true,
      "inputs": [
        {
          "name": "",
          "type": "bytes32"
        }
      ],
      "name": "usersIds",
      "outputs": [
        {
          "name": "",
          "type": "uint256"
        }
      ],
      "payable": false,
      "stateMutability": "view",
      "type": "function"
    },
    {
      "inputs": [],
      "payable": false,
      "stateMutability": "nonpayable",
      "type": "constructor"
    },
    {
      "anonymous": false,
      "inputs": [
        {
          "indexed": false,
          "name": "id",
          "type": "uint256"
        }
      ],
      "name": "newCommentRegistered",
      "type": "event"
    },
    {
      "anonymous": false,
      "inputs": [
        {
          "indexed": false,
          "name": "username",
          "type": "string"
        }
      ],
      "name": "newUserRegistered",
      "type": "event"
    },
    {
      "anonymous": false,
      "inputs": [
        {
          "indexed": false,
          "name": "isNotregistered",
          "type": "bool"
        }
      ],
      "name": "isNotRegisteredEvent",
      "type": "event"
    },
    {
      "anonymous": false,
      "inputs": [
        {
          "indexed": false,
          "name": "id",
          "type": "uint256"
        }
      ],
      "name": "userUpdateRepEvent",
      "type": "event"
    },
    {
      "constant": false,
      "inputs": [
        {
          "name": "_author",
          "type": "bytes32"
        },
        {
          "name": "_title",
          "type": "bytes32"
        },
        {
          "name": "_content",
          "type": "string"
        },
        {
          "name": "_discussionTitle",
          "type": "bytes32"
        }
      ],
      "name": "registerComment",
      "outputs": [
        {
          "name": "",
          "type": "uint256"
        }
      ],
      "payable": false,
      "stateMutability": "nonpayable",
      "type": "function"
    },
    {
      "constant": true,
      "inputs": [
        {
          "name": "_id",
          "type": "uint256"
        }
      ],
      "name": "getComment",
      "outputs": [
        {
          "name": "",
          "type": "bytes32"
        },
        {
          "name": "",
          "type": "bytes32"
        },
        {
          "name": "",
          "type": "string"
        },
        {
          "name": "",
          "type": "uint256"
        },
        {
          "name": "",
          "type": "uint256"
        },
        {
          "name": "",
          "type": "bytes32"
        }
      ],
      "payable": false,
      "stateMutability": "view",
      "type": "function"
    },
    {
      "constant": true,
      "inputs": [],
      "name": "getNumComments",
      "outputs": [
        {
          "name": "",
          "type": "uint256"
        }
      ],
      "payable": false,
      "stateMutability": "view",
      "type": "function"
    }
  ],
  "bytecode": "0x60806040523480156200001157600080fd5b5062000053604051806020016040528060008152507f3078300000000000000000000000000000000000000000000000000000000000620001b860201b60201c565b50620000bb6040518060400160405280600a81526020017f4c656f6e2042726f776e000000000000000000000000000000000000000000008152507f3078333333333333333333333333000000000000000000000000000000000000620001b860201b60201c565b50620001236040518060400160405280600a81526020017f4a6f686e20446f656e74000000000000000000000000000000000000000000008152507f3078313131313131313131313131000000000000000000000000000000000000620001b860201b60201c565b506200018b6040518060400160405280600a81526020017f4d61727920536d697468000000000000000000000000000000000000000000008152507f3078323232323232323232323232000000000000000000000000000000000000620001b860201b60201c565b50620001b16000806040518060200160405280600081525060006200037960201b60201c565b5062000718565b60008060008084815260200190815260200160002054905060008114620001de57600080fd5b60018054905060008085815260200190815260200160002081905550600060018054809190600101620002129190620004f7565b90506040518060800160405280868152602001858152602001600181526020016000815250600182815481106200024557fe5b90600052602060002090600402016000820151816000019080519060200190620002719291906200052c565b506020820151816001015560408201518160020155606082015181600301559050507f23bf3c3382eca35efcabbb4d1accad8939015a59d506e31e3df91c52840bdcb5856040518080602001828103825283818151815260200191508051906020019080838360005b83811015620002f7578082015181840152602081019050620002da565b50505050905090810190601f168015620003255780820380516001836020036101000a031916815260200191505b509250505060405180910390a17fcc21b0efbc250b64650c3b8471125011264361ab421b7adca1f3cb7a0eedb8dc6000604051808215151515815260200191505060405180910390a1809250505092915050565b6000806002600084815260200190815260200160002054905060008114620003a057600080fd5b6003805490506002600085815260200190815260200160002081905550600060038054809190600101620003d59190620005b3565b90506040518060e001604052808881526020018781526020018681526020016000815260200160008152602001858152602001600060028111156200041657fe5b815250600382815481106200042757fe5b906000526020600020906007020160008201518160000155602082015181600101556040820151816002019080519060200190620004679291906200052c565b50606082015181600301556080820151816004015560a0820151816005015560c08201518160060160006101000a81548160ff02191690836002811115620004ab57fe5b02179055509050507f4d777f60d952db1e3dfea06728df320f7aa655f4414c8b3cbf51c9acebfc36ca816040518082815260200191505060405180910390a18092505050949350505050565b8154818355818111156200052757600402816004028360005260206000209182019101620005269190620005e8565b5b505050565b828054600181600116156101000203166002900490600052602060002090601f016020900481019282601f106200056f57805160ff1916838001178555620005a0565b82800160010185558215620005a0579182015b828111156200059f57825182559160200191906001019062000582565b5b509050620005af919062000634565b5090565b815481835581811115620005e357600702816007028360005260206000209182019101620005e291906200065c565b5b505050565b6200063191905b808211156200062d57600080820160006200060b9190620006cc565b60018201600090556002820160009055600382016000905550600401620005ef565b5090565b90565b6200065991905b80821115620006555760008160009055506001016200063b565b5090565b90565b620006c991905b80821115620006c55760008082016000905560018201600090556002820160006200068f9190620006cc565b6003820160009055600482016000905560058201600090556006820160006101000a81549060ff02191690555060070162000663565b5090565b90565b50805460018160011615610100020316600290046000825580601f10620006f4575062000715565b601f01602090049060005260206000209081019062000714919062000634565b5b50565b610e6880620007286000396000f3fe608060405234801561001057600080fd5b506004361061009e5760003560e01c806368ae55631161006657806368ae5563146102c05780637898ac9d14610399578063b0fc187514610486578063d14519d2146104cc578063ed272f721461050e5761009e565b80630800e300146100a35780632e2ca08c1461016d578063542bdc79146101b957806354b8d5e3146101fb578063683d60b7146102a2575b600080fd5b6100cf600480360360208110156100b957600080fd5b8101908080359060200190929190505050610550565b6040518087815260200186815260200180602001858152602001848152602001838152602001828103825286818151815260200191508051906020019080838360005b8381101561012d578082015181840152602081019050610112565b50505050905090810190601f16801561015a5780820380516001836020036101000a031916815260200191505b5097505050505050505060405180910390f35b6101a36004803603604081101561018357600080fd5b810190808035906020019092919080359060200190929190505050610647565b6040518082815260200191505060405180910390f35b6101e5600480360360208110156101cf57600080fd5b81019080803590602001909291905050506106e4565b6040518082815260200191505060405180910390f35b6102276004803603602081101561021157600080fd5b81019080803590602001909291905050506106fc565b6040518080602001828103825283818151815260200191508051906020019080838360005b8381101561026757808201518184015260208101905061024c565b50505050905090810190601f1680156102945780820380516001836020036101000a031916815260200191505b509250505060405180910390f35b6102aa6107da565b6040518082815260200191505060405180910390f35b610383600480360360408110156102d657600080fd5b81019080803590602001906401000000008111156102f357600080fd5b82018360208201111561030557600080fd5b8035906020019184600183028401116401000000008311171561032757600080fd5b91908080601f016020809104026020016040519081016040528093929190818152602001838380828437600081840152601f19601f820116905080830192505050505050509192919290803590602001909291905050506107e7565b6040518082815260200191505060405180910390f35b610470600480360360808110156103af57600080fd5b810190808035906020019092919080359060200190929190803590602001906401000000008111156103e057600080fd5b8201836020820111156103f257600080fd5b8035906020019184600183028401116401000000008311171561041457600080fd5b91908080601f016020809104026020016040519081016040528093929190818152602001838380828437600081840152601f19601f82011690508083019250505050505050919291929080359060200190929190505050610878565b6040518082815260200191505060405180910390f35b6104b26004803603602081101561049c57600080fd5b8101908080359060200190929190505050610890565b604051808215151515815260200191505060405180910390f35b6104f8600480360360208110156104e257600080fd5b81019080803590602001909291905050506108ae565b6040518082815260200191505060405180910390f35b61053a6004803603602081101561052457600080fd5b81019080803590602001909291905050506108f3565b6040518082815260200191505060405180910390f35b60008060606000806000806003888154811061056857fe5b906000526020600020906007020190508060000154816001015482600201836003015484600401548560050154838054600181600116156101000203166002900480601f01602080910402602001604051908101604052809291908181526020018280546001816001161561010002031660029004801561062a5780601f106105ff5761010080835404028352916020019161062a565b820191906000526020600020905b81548152906001019060200180831161060d57829003601f168201915b505050505093509650965096509650965096505091939550919395565b60008060008084815260200190815260200160002054905060006001828154811061066e57fe5b906000526020600020906004020190508481600201819055508060030160008154809291906001019190505581600301819055507f166e2330253d37480aba732992b9720da8871bbc0aa0902860d2fa6bb3c0c9ee826040518082815260200191505060405180910390a1819250505092915050565b60026020528060005260406000206000915090505481565b6060600080600084815260200190815260200160002054905060006001828154811061072457fe5b90600052602060002090600402019050806000018054600181600116156101000203166002900480601f0160208091040260200160405190810160405280929190818152602001828054600181600116156101000203166002900480156107cc5780601f106107a1576101008083540402835291602001916107cc565b820191906000526020600020905b8154815290600101906020018083116107af57829003601f168201915b505050505092505050919050565b6000600380549050905090565b6000816107f381610890565b610865576040517f08c379a00000000000000000000000000000000000000000000000000000000081526004018080602001828103825260178152602001807f5573657220616c7265616479207265676973746572656400000000000000000081525060200191505060405180910390fd5b61086f848461090b565b91505092915050565b600061088685858585610ac3565b9050949350505050565b60008060008084815260200190815260200160002054149050919050565b6000806000808481526020019081526020016000205490506000600182815481106108d557fe5b90600052602060002090600402019050806002015492505050919050565b60006020528060005260406000206000915090505481565b6000806000808481526020019081526020016000205490506000811461093057600080fd5b600180549050600080858152602001908152602001600020819055506000600180548091906001016109629190610c39565b905060405180608001604052808681526020018581526020016001815260200160008152506001828154811061099457fe5b906000526020600020906004020160008201518160000190805190602001906109be929190610c6b565b506020820151816001015560408201518160020155606082015181600301559050507f23bf3c3382eca35efcabbb4d1accad8939015a59d506e31e3df91c52840bdcb5856040518080602001828103825283818151815260200191508051906020019080838360005b83811015610a42578082015181840152602081019050610a27565b50505050905090810190601f168015610a6f5780820380516001836020036101000a031916815260200191505b509250505060405180910390a17fcc21b0efbc250b64650c3b8471125011264361ab421b7adca1f3cb7a0eedb8dc6000604051808215151515815260200191505060405180910390a1809250505092915050565b6000806002600084815260200190815260200160002054905060008114610ae957600080fd5b6003805490506002600085815260200190815260200160002081905550600060038054809190600101610b1c9190610ceb565b90506040518060e00160405280888152602001878152602001868152602001600081526020016000815260200185815260200160006002811115610b5c57fe5b81525060038281548110610b6c57fe5b906000526020600020906007020160008201518160000155602082015181600101556040820151816002019080519060200190610baa929190610c6b565b50606082015181600301556080820151816004015560a0820151816005015560c08201518160060160006101000a81548160ff02191690836002811115610bed57fe5b02179055509050507f4d777f60d952db1e3dfea06728df320f7aa655f4414c8b3cbf51c9acebfc36ca816040518082815260200191505060405180910390a18092505050949350505050565b815481835581811115610c6657600402816004028360005260206000209182019101610c659190610d1d565b5b505050565b828054600181600116156101000203166002900490600052602060002090601f016020900481019282601f10610cac57805160ff1916838001178555610cda565b82800160010185558215610cda579182015b82811115610cd9578251825591602001919060010190610cbe565b5b509050610ce79190610d64565b5090565b815481835581811115610d1857600702816007028360005260206000209182019101610d179190610d89565b5b505050565b610d6191905b80821115610d5d5760008082016000610d3c9190610df4565b60018201600090556002820160009055600382016000905550600401610d23565b5090565b90565b610d8691905b80821115610d82576000816000905550600101610d6a565b5090565b90565b610df191905b80821115610ded576000808201600090556001820160009055600282016000610db89190610df4565b6003820160009055600482016000905560058201600090556006820160006101000a81549060ff021916905550600701610d8f565b5090565b90565b50805460018160011615610100020316600290046000825580601f10610e1a5750610e39565b601f016020900490600052602060002090810190610e389190610d64565b5b5056fea165627a7a72305820fff14e3da41954ceb65dc418223af35d45cceb2266ee582d2a931870a28bd70a0029",
  "source": "pragma solidity ^0.5.0;\r\n\r\nimport \"./UserManager.sol\";\r\nimport \"./ConcatHelper.sol\";\r\n\r\ncontract CommentManager is UserManager {\r\n  //library to concat bytes\r\n  using ConcatHelper for bytes;\r\n\r\n  // indicate the status of the comment\r\n  enum Stat{Pending, Accepted, Rejected}\r\n\r\n  //struct with the basic comment information\r\n  struct Comment {\r\n    // author of the comment\r\n    bytes32 author;\r\n    //comment title\r\n    bytes32 title;\r\n    // content of the comment\r\n    string content;\r\n    // number of positive vote received\r\n    uint numPosRecVote;\r\n    // number of negative vote received\r\n    uint numNegRecVote;\r\n    // title of discussion\r\n    bytes32 titleDis;\r\n    // the status of the comment\r\n    Stat stat;\r\n  }\r\n\r\n  // map with key= 'commentId'+'comment_title' and value a number\r\n  mapping(bytes32 => uint) public commentIds;\r\n\r\n  //Array of comment\r\n  Comment[] comments;\r\n\r\n  // event fired when an comment is registered\r\n  event newCommentRegistered(uint id);\r\n\r\n  constructor() public{\r\n    // NOTE: the first comment and participant MUST be emtpy:\r\n    // if you are trying to access to an element\r\n    // of the commentIds mapping that does not exist you will\r\n    // receive 0, that's why in the first position (with index 0) must be initialized\r\n    addComment(\"\", \"\", \"\", \"\");\r\n  }\r\n  /**\r\n    * Function to register a new comment.\r\n    *\r\n    * @param _author the address of the author\r\n    * @param _title title of the comment\r\n    * @param _content the content of the comment\r\n   */\r\n  function registerComment(\r\n    bytes32 _author,\r\n    bytes32 _title,\r\n    string memory _content,\r\n    bytes32 _discussionTitle)\r\n  public returns (uint) {\r\n    return addComment(_author, _title, _content, _discussionTitle);\r\n  }\r\n\r\n  /**\r\n  * Add a new comment. This function must be private because an user\r\n  * cannot insert other information about comment and participant\r\n  *\r\n  * @param _author author of the comment\r\n  * @param _commentTitle title of the comment\r\n  * @param _content content of comment\r\n  */\r\n  function addComment(\r\n    bytes32 _author,\r\n    bytes32 _commentTitle,\r\n    string memory _content,\r\n    bytes32 _discussionTitle)\r\n  private returns (uint) {\r\n    // bytes memory _commentKey = ConcatHelper.concat2(ConcatHelper.concat(_discussionTitle, _commentTitle), _author);\r\n    // checking if the comment is already registered\r\n    uint commentId = commentIds[_discussionTitle];\r\n    require(commentId == 0);\r\n    // associating the title of comment with the new ID\r\n    commentIds[_discussionTitle] = comments.length;\r\n    uint newCommentId = comments.length++;\r\n    // storing the new user details\r\n    comments[newCommentId] = Comment({\r\n    author : _author,\r\n    title : _commentTitle,\r\n    content : _content,\r\n    numPosRecVote : 0,\r\n    numNegRecVote : 0,\r\n    stat : Stat.Pending,\r\n    titleDis : _discussionTitle\r\n    });\r\n    // emitting the event that a new user has been registered\r\n    emit newCommentRegistered(newCommentId);\r\n    return newCommentId;\r\n  }\r\n  /*\r\n   // author of the comment\r\n    bytes32 author;\r\n    //comment title\r\n    bytes32 title;\r\n    // content of the comment\r\n    string content;\r\n    // number of positive vote received\r\n    uint numPosRecVote;\r\n    // number of negative vote received\r\n    uint numNegRecVote;\r\n    // the status of the comment\r\n    Stat stat;\r\n    */\r\n  function getComment(uint _id) public view returns (bytes32, bytes32, string memory, uint, uint, bytes32){\r\n    Comment storage c = comments[_id];\r\n    return (\r\n    c.author,\r\n    c.title,\r\n    c.content,\r\n    c.numPosRecVote,\r\n    c.numNegRecVote,\r\n    c.titleDis\r\n    );\r\n  }\r\n  /*\r\n  * return the number of comment\r\n  */\r\n  function getNumComments() public view returns (uint){\r\n    return comments.length;\r\n  }\r\n}\r\n",
  "sourcePath": "C:\\Users\\Giulia\\IdeaProjects\\BlockArt_Project\\block-art\\blockart-blockchain\\contracts\\CommentManager.sol",
  "compiler": {
    "name": "solc",
    "version": "0.5.8+commit.23d335f2.Emscripten.clang"
  },
  "schemaVersion": "3.0.13",
  "updatedAt": "2019-09-12T19:17:48.458Z",
  "devdoc": {
    "methods": {
      "getName(bytes32)": {
        "params": {
          "_address": "of caller of the function\r"
        }
      },
      "getReputation(bytes32)": {
        "params": {
          "_address": "of caller of the function\r"
        }
      },
      "isNotRegistered(bytes32)": {
        "params": {
          "_address": "address of the user\r"
        }
      },
      "registerComment(bytes32,bytes32,string,bytes32)": {
        "params": {
          "_author": "the address of the author\r",
          "_content": "the content of the comment\r",
          "_title": "title of the comment\r"
        }
      },
      "registerUser(string,bytes32)": {
        "params": {
          "_username": "The displaying name*\r"
        }
      },
      "updateReputaion(uint256,bytes32)": {
        "params": {
          "_address": "of the updated profile\r",
          "_newEvaluation": "The new user's displaying name\r"
        }
      }
    }
  },
  "userdoc": {
    "methods": {
      "getName(bytes32)": {
        "notice": "Return string with name of function's caller\r"
      },
      "getReputation(bytes32)": {
        "notice": "Return uint256 with reputation value of function's caller\r"
      },
      "isNotRegistered(bytes32)": {
        "notice": "Check if the user that is calling the smart contract is registered.\r"
      },
      "registerComment(bytes32,bytes32,string,bytes32)": {
        "notice": "Function to register a new comment.\r "
      },
      "registerUser(string,bytes32)": {
        "notice": "Function to register a new user.\r "
      },
      "updateReputaion(uint256,bytes32)": {
        "notice": "Update the evaluation of the user calling this method.\r Note: only the evaluation has been validate profile is update.\r "
      }
    }
  }
}