{
  "contractName": "CommentManager",
  "abi": [
    {
      "constant": true,
      "inputs": [
        {
          "name": "",
          "type": "bytes"
        }
      ],
      "name": "commentIds",
      "outputs": [
        {
          "name": "",
          "type": "uint256"
        }
      ],
      "payable": false,
      "stateMutability": "view",
      "type": "function"
    },
    {
      "constant": false,
      "inputs": [
        {
          "name": "_newEvaluation",
          "type": "uint256"
        },
        {
          "name": "_address",
          "type": "bytes32"
        }
      ],
      "name": "updateReputaion",
      "outputs": [
        {
          "name": "",
          "type": "uint256"
        }
      ],
      "payable": false,
      "stateMutability": "nonpayable",
      "type": "function"
    },
    {
      "constant": true,
      "inputs": [
        {
          "name": "_address",
          "type": "bytes32"
        }
      ],
      "name": "getName",
      "outputs": [
        {
          "name": "",
          "type": "string"
        }
      ],
      "payable": false,
      "stateMutability": "view",
      "type": "function"
    },
    {
      "constant": false,
      "inputs": [
        {
          "name": "_username",
          "type": "string"
        },
        {
          "name": "_address",
          "type": "bytes32"
        }
      ],
      "name": "registerUser",
      "outputs": [
        {
          "name": "",
          "type": "uint256"
        }
      ],
      "payable": false,
      "stateMutability": "nonpayable",
      "type": "function"
    },
    {
      "constant": true,
      "inputs": [
        {
          "name": "",
          "type": "uint256"
        }
      ],
      "name": "comments",
      "outputs": [
        {
          "name": "author",
          "type": "bytes32"
        },
        {
          "name": "title",
          "type": "bytes32"
        },
        {
          "name": "content",
          "type": "string"
        },
        {
          "name": "numPosRecVote",
          "type": "uint256"
        },
        {
          "name": "numNegRecVote",
          "type": "uint256"
        },
        {
          "name": "titleDis",
          "type": "bytes32"
        },
        {
          "name": "stat",
          "type": "uint8"
        }
      ],
      "payable": false,
      "stateMutability": "view",
      "type": "function"
    },
    {
      "constant": true,
      "inputs": [
        {
          "name": "_address",
          "type": "bytes32"
        }
      ],
      "name": "isNotRegistered",
      "outputs": [
        {
          "name": "",
          "type": "bool"
        }
      ],
      "payable": false,
      "stateMutability": "view",
      "type": "function"
    },
    {
      "constant": true,
      "inputs": [
        {
          "name": "_address",
          "type": "bytes32"
        }
      ],
      "name": "getReputation",
      "outputs": [
        {
          "name": "",
          "type": "uint256"
        }
      ],
      "payable": false,
      "stateMutability": "view",
      "type": "function"
    },
    {
      "constant": true,
      "inputs": [
        {
          "name": "",
          "type": "bytes32"
        }
      ],
      "name": "usersIds",
      "outputs": [
        {
          "name": "",
          "type": "uint256"
        }
      ],
      "payable": false,
      "stateMutability": "view",
      "type": "function"
    },
    {
      "inputs": [],
      "payable": false,
      "stateMutability": "nonpayable",
      "type": "constructor"
    },
    {
      "anonymous": false,
      "inputs": [
        {
          "indexed": false,
          "name": "id",
          "type": "uint256"
        }
      ],
      "name": "newCommentRegistered",
      "type": "event"
    },
    {
      "anonymous": false,
      "inputs": [
        {
          "indexed": false,
          "name": "username",
          "type": "string"
        }
      ],
      "name": "newUserRegistered",
      "type": "event"
    },
    {
      "anonymous": false,
      "inputs": [
        {
          "indexed": false,
          "name": "isNotregistered",
          "type": "bool"
        }
      ],
      "name": "isNotRegisteredEvent",
      "type": "event"
    },
    {
      "anonymous": false,
      "inputs": [
        {
          "indexed": false,
          "name": "id",
          "type": "uint256"
        }
      ],
      "name": "userUpdateRepEvent",
      "type": "event"
    },
    {
      "constant": false,
      "inputs": [
        {
          "name": "_author",
          "type": "bytes32"
        },
        {
          "name": "_title",
          "type": "bytes32"
        },
        {
          "name": "_content",
          "type": "string"
        },
        {
          "name": "_discussionTitle",
          "type": "bytes32"
        }
      ],
      "name": "registerComment",
      "outputs": [
        {
          "name": "",
          "type": "uint256"
        }
      ],
      "payable": false,
      "stateMutability": "nonpayable",
      "type": "function"
    },
    {
      "constant": true,
      "inputs": [
        {
          "name": "_id",
          "type": "uint256"
        }
      ],
      "name": "getComment",
      "outputs": [
        {
          "name": "",
          "type": "bytes32"
        },
        {
          "name": "",
          "type": "bytes32"
        },
        {
          "name": "",
          "type": "string"
        },
        {
          "name": "",
          "type": "uint256"
        },
        {
          "name": "",
          "type": "uint256"
        },
        {
          "name": "",
          "type": "bytes32"
        }
      ],
      "payable": false,
      "stateMutability": "view",
      "type": "function"
    },
    {
      "constant": true,
      "inputs": [],
      "name": "getNumComments",
      "outputs": [
        {
          "name": "",
          "type": "uint256"
        }
      ],
      "payable": false,
      "stateMutability": "view",
      "type": "function"
    },
    {
      "constant": false,
      "inputs": [
        {
          "name": "_author",
          "type": "bytes32"
        },
        {
          "name": "_commentTitle",
          "type": "bytes32"
        },
        {
          "name": "_discussionTitle",
          "type": "bytes32"
        },
        {
          "name": "_voter",
          "type": "bytes32"
        },
        {
          "name": "_isPositive",
          "type": "bool"
        }
      ],
      "name": "registerVote",
      "outputs": [
        {
          "name": "",
          "type": "uint256"
        }
      ],
      "payable": false,
      "stateMutability": "nonpayable",
      "type": "function"
    },
    {
      "constant": true,
      "inputs": [
        {
          "name": "_author",
          "type": "bytes32"
        },
        {
          "name": "_commentTitle",
          "type": "bytes32"
        },
        {
          "name": "_discussionTitle",
          "type": "bytes32"
        }
      ],
      "name": "getVote",
      "outputs": [
        {
          "name": "",
          "type": "uint256"
        },
        {
          "name": "",
          "type": "uint256"
        }
      ],
      "payable": false,
      "stateMutability": "view",
      "type": "function"
    }
  ],
  "bytecode": "0x60806040523480156200001157600080fd5b5062000053604051806020016040528060008152507f3078300000000000000000000000000000000000000000000000000000000000620001b860201b60201c565b50620000bb6040518060400160405280600a81526020017f4c656f6e2042726f776e000000000000000000000000000000000000000000008152507f3078333333333333333333333333000000000000000000000000000000000000620001b860201b60201c565b50620001236040518060400160405280600a81526020017f4a6f686e20446f656e74000000000000000000000000000000000000000000008152507f3078313131313131313131313131000000000000000000000000000000000000620001b860201b60201c565b506200018b6040518060400160405280600a81526020017f4d61727920536d697468000000000000000000000000000000000000000000008152507f3078323232323232323232323232000000000000000000000000000000000000620001b860201b60201c565b50620001b16000806040518060200160405280600081525060006200037960201b60201c565b50620008ac565b60008060008084815260200190815260200160002054905060008114620001de57600080fd5b600180549050600080858152602001908152602001600020819055506000600180548091906001016200021291906200068b565b90506040518060800160405280868152602001858152602001600181526020016000815250600182815481106200024557fe5b9060005260206000209060040201600082015181600001908051906020019062000271929190620006c0565b506020820151816001015560408201518160020155606082015181600301559050507f23bf3c3382eca35efcabbb4d1accad8939015a59d506e31e3df91c52840bdcb5856040518080602001828103825283818151815260200191508051906020019080838360005b83811015620002f7578082015181840152602081019050620002da565b50505050905090810190601f168015620003255780820380516001836020036101000a031916815260200191505b509250505060405180910390a17fcc21b0efbc250b64650c3b8471125011264361ab421b7adca1f3cb7a0eedb8dc6000604051808215151515815260200191505060405180910390a1809250505092915050565b60006060620003aa620003988487620005da60201b620011481760201c565b876200060c60201b6200117a1760201c565b905060006002826040518082805190602001908083835b60208310620003e65780518252602082019150602081019050602083039250620003c1565b6001836020036101000a0380198251168184511680821785525050505050509050019150509081526020016040518091039020549050600081146200042a57600080fd5b6003805490506002836040518082805190602001908083835b6020831062000468578051825260208201915060208101905060208303925062000443565b6001836020036101000a038019825116818451168082178552505050505050905001915050908152602001604051809103902081905550600060038054809190600101620004b7919062000747565b90506040518060e00160405280898152602001888152602001878152602001600081526020016000815260200186815260200160006002811115620004f857fe5b815250600382815481106200050957fe5b90600052602060002090600702016000820151816000015560208201518160010155604082015181600201908051906020019062000549929190620006c0565b50606082015181600301556080820151816004015560a0820151816005015560c08201518160060160006101000a81548160ff021916908360028111156200058d57fe5b02179055509050507f4d777f60d952db1e3dfea06728df320f7aa655f4414c8b3cbf51c9acebfc36ca816040518082815260200191505060405180910390a1809350505050949350505050565b606082826040516020018083815260200182815260200192505050604051602081830303815290604052905092915050565b606082826040516020018083805190602001908083835b6020831062000648578051825260208201915060208101905060208303925062000623565b6001836020036101000a03801982511681845116808217855250505050505090500182815260200192505050604051602081830303815290604052905092915050565b815481835581811115620006bb57600402816004028360005260206000209182019101620006ba91906200077c565b5b505050565b828054600181600116156101000203166002900490600052602060002090601f016020900481019282601f106200070357805160ff191683800117855562000734565b8280016001018555821562000734579182015b828111156200073357825182559160200191906001019062000716565b5b509050620007439190620007c8565b5090565b8154818355818111156200077757600702816007028360005260206000209182019101620007769190620007f0565b5b505050565b620007c591905b80821115620007c157600080820160006200079f919062000860565b6001820160009055600282016000905560038201600090555060040162000783565b5090565b90565b620007ed91905b80821115620007e9576000816000905550600101620007cf565b5090565b90565b6200085d91905b808211156200085957600080820160009055600182016000905560028201600062000823919062000860565b6003820160009055600482016000905560058201600090556006820160006101000a81549060ff021916905550600701620007f7565b5090565b90565b50805460018160011615610100020316600290046000825580601f10620008885750620008a9565b601f016020900490600052602060002090810190620008a89190620007c8565b5b50565b61150d80620008bc6000396000f3fe608060405234801561001057600080fd5b50600436106100cf5760003560e01c80637898ac9d1161008c578063c3de9c5111610066578063c3de9c5114610669578063d14519d2146106c6578063ed272f7214610708578063fd67b1611461074a576100cf565b80637898ac9d146104575780638ebb4c1514610544578063b0fc187514610623576100cf565b80630800e300146100d4578063119029341461019e5780632e2ca08c1461026d57806354b8d5e3146102b9578063683d60b71461036057806368ae55631461037e575b600080fd5b610100600480360360208110156100ea57600080fd5b81019080803590602001909291905050506107b6565b6040518087815260200186815260200180602001858152602001848152602001838152602001828103825286818151815260200191508051906020019080838360005b8381101561015e578082015181840152602081019050610143565b50505050905090810190601f16801561018b5780820380516001836020036101000a031916815260200191505b5097505050505050505060405180910390f35b610257600480360360208110156101b457600080fd5b81019080803590602001906401000000008111156101d157600080fd5b8201836020820111156101e357600080fd5b8035906020019184600183028401116401000000008311171561020557600080fd5b91908080601f016020809104026020016040519081016040528093929190818152602001838380828437600081840152601f19601f8201169050808301925050505050505091929192905050506108ad565b6040518082815260200191505060405180910390f35b6102a36004803603604081101561028357600080fd5b8101908080359060200190929190803590602001909291905050506108db565b6040518082815260200191505060405180910390f35b6102e5600480360360208110156102cf57600080fd5b8101908080359060200190929190505050610978565b6040518080602001828103825283818151815260200191508051906020019080838360005b8381101561032557808201518184015260208101905061030a565b50505050905090810190601f1680156103525780820380516001836020036101000a031916815260200191505b509250505060405180910390f35b610368610a56565b6040518082815260200191505060405180910390f35b6104416004803603604081101561039457600080fd5b81019080803590602001906401000000008111156103b157600080fd5b8201836020820111156103c357600080fd5b803590602001918460018302840111640100000000831117156103e557600080fd5b91908080601f016020809104026020016040519081016040528093929190818152602001838380828437600081840152601f19601f82011690508083019250505050505050919291929080359060200190929190505050610a63565b6040518082815260200191505060405180910390f35b61052e6004803603608081101561046d57600080fd5b8101908080359060200190929190803590602001909291908035906020019064010000000081111561049e57600080fd5b8201836020820111156104b057600080fd5b803590602001918460018302840111640100000000831117156104d257600080fd5b91908080601f016020809104026020016040519081016040528093929190818152602001838380828437600081840152601f19601f82011690508083019250505050505050919291929080359060200190929190505050610af4565b6040518082815260200191505060405180910390f35b6105706004803603602081101561055a57600080fd5b8101908080359060200190929190505050610b0c565b60405180888152602001878152602001806020018681526020018581526020018481526020018360028111156105a257fe5b60ff168152602001828103825287818151815260200191508051906020019080838360005b838110156105e25780820151818401526020810190506105c7565b50505050905090810190601f16801561060f5780820380516001836020036101000a031916815260200191505b509850505050505050505060405180910390f35b61064f6004803603602081101561063957600080fd5b8101908080359060200190929190505050610c00565b604051808215151515815260200191505060405180910390f35b6106a96004803603606081101561067f57600080fd5b81019080803590602001909291908035906020019092919080359060200190929190505050610c1e565b604051808381526020018281526020019250505060405180910390f35b6106f2600480360360208110156106dc57600080fd5b8101908080359060200190929190505050610cde565b6040518082815260200191505060405180910390f35b6107346004803603602081101561071e57600080fd5b8101908080359060200190929190505050610d23565b6040518082815260200191505060405180910390f35b6107a0600480360360a081101561076057600080fd5b8101908080359060200190929190803590602001909291908035906020019092919080359060200190929190803515159060200190929190505050610d3b565b6040518082815260200191505060405180910390f35b6000806060600080600080600388815481106107ce57fe5b906000526020600020906007020190508060000154816001015482600201836003015484600401548560050154838054600181600116156101000203166002900480601f0160208091040260200160405190810160405280929190818152602001828054600181600116156101000203166002900480156108905780601f1061086557610100808354040283529160200191610890565b820191906000526020600020905b81548152906001019060200180831161087357829003601f168201915b505050505093509650965096509650965096505091939550919395565b6002818051602081018201805184825260208301602085012081835280955050505050506000915090505481565b60008060008084815260200190815260200160002054905060006001828154811061090257fe5b906000526020600020906004020190508481600201819055508060030160008154809291906001019190505581600301819055507f166e2330253d37480aba732992b9720da8871bbc0aa0902860d2fa6bb3c0c9ee826040518082815260200191505060405180910390a1819250505092915050565b606060008060008481526020019081526020016000205490506000600182815481106109a057fe5b90600052602060002090600402019050806000018054600181600116156101000203166002900480601f016020809104026020016040519081016040528092919081815260200182805460018160011615610100020316600290048015610a485780601f10610a1d57610100808354040283529160200191610a48565b820191906000526020600020905b815481529060010190602001808311610a2b57829003601f168201915b505050505092505050919050565b6000600380549050905090565b600081610a6f81610c00565b610ae1576040517f08c379a00000000000000000000000000000000000000000000000000000000081526004018080602001828103825260178152602001807f5573657220616c7265616479207265676973746572656400000000000000000081525060200191505060405180910390fd5b610aeb8484610d55565b91505092915050565b6000610b0285858585610f0d565b9050949350505050565b60038181548110610b1957fe5b9060005260206000209060070201600091509050806000015490806001015490806002018054600181600116156101000203166002900480601f016020809104026020016040519081016040528092919081815260200182805460018160011615610100020316600290048015610bd15780601f10610ba657610100808354040283529160200191610bd1565b820191906000526020600020905b815481529060010190602001808311610bb457829003601f168201915b5050505050908060030154908060040154908060050154908060060160009054906101000a900460ff16905087565b60008060008084815260200190815260200160002054149050919050565b6000806060610c36610c308587611148565b8761117a565b905060006002826040518082805190602001908083835b60208310610c705780518252602082019150602081019050602083039250610c4d565b6001836020036101000a0380198251168184511680821785525050505050509050019150509081526020016040518091039020549050600060038281548110610cb557fe5b906000526020600020906007020190508060030154816004015494509450505050935093915050565b600080600080848152602001908152602001600020549050600060018281548110610d0557fe5b90600052602060002090600402019050806002015492505050919050565b60006020528060005260406000206000915090505481565b6000610d4a86868686866111f7565b905095945050505050565b60008060008084815260200190815260200160002054905060008114610d7a57600080fd5b60018054905060008085815260200190815260200160002081905550600060018054809190600101610dac91906112de565b9050604051806080016040528086815260200185815260200160018152602001600081525060018281548110610dde57fe5b90600052602060002090600402016000820151816000019080519060200190610e08929190611310565b506020820151816001015560408201518160020155606082015181600301559050507f23bf3c3382eca35efcabbb4d1accad8939015a59d506e31e3df91c52840bdcb5856040518080602001828103825283818151815260200191508051906020019080838360005b83811015610e8c578082015181840152602081019050610e71565b50505050905090810190601f168015610eb95780820380516001836020036101000a031916815260200191505b509250505060405180910390a17fcc21b0efbc250b64650c3b8471125011264361ab421b7adca1f3cb7a0eedb8dc6000604051808215151515815260200191505060405180910390a1809250505092915050565b60006060610f24610f1e8487611148565b8761117a565b905060006002826040518082805190602001908083835b60208310610f5e5780518252602082019150602081019050602083039250610f3b565b6001836020036101000a038019825116818451168082178552505050505050905001915050908152602001604051809103902054905060008114610fa157600080fd5b6003805490506002836040518082805190602001908083835b60208310610fdd5780518252602082019150602081019050602083039250610fba565b6001836020036101000a03801982511681845116808217855250505050505090500191505090815260200160405180910390208190555060006003805480919060010161102a9190611390565b90506040518060e0016040528089815260200188815260200187815260200160008152602001600081526020018681526020016000600281111561106a57fe5b8152506003828154811061107a57fe5b9060005260206000209060070201600082015181600001556020820151816001015560408201518160020190805190602001906110b8929190611310565b50606082015181600301556080820151816004015560a0820151816005015560c08201518160060160006101000a81548160ff021916908360028111156110fb57fe5b02179055509050507f4d777f60d952db1e3dfea06728df320f7aa655f4414c8b3cbf51c9acebfc36ca816040518082815260200191505060405180910390a1809350505050949350505050565b606082826040516020018083815260200182815260200192505050604051602081830303815290604052905092915050565b606082826040516020018083805190602001908083835b602083106111b45780518252602082019150602081019050602083039250611191565b6001836020036101000a03801982511681845116808217855250505050505090500182815260200192505050604051602081830303815290604052905092915050565b6000606061120e6112088688611148565b8861117a565b905060006002826040518082805190602001908083835b602083106112485780518252602082019150602081019050602083039250611225565b6001836020036101000a038019825116818451168082178552505050505050905001915050908152602001604051809103902054905060006003828154811061128d57fe5b9060005260206000209060070201905084156112bb57600181600301600082825401925050819055506112cf565b600181600401600082825401925050819055505b81935050505095945050505050565b81548183558181111561130b5760040281600402836000526020600020918201910161130a91906113c2565b5b505050565b828054600181600116156101000203166002900490600052602060002090601f016020900481019282601f1061135157805160ff191683800117855561137f565b8280016001018555821561137f579182015b8281111561137e578251825591602001919060010190611363565b5b50905061138c9190611409565b5090565b8154818355818111156113bd576007028160070283600052602060002091820191016113bc919061142e565b5b505050565b61140691905b8082111561140257600080820160006113e19190611499565b600182016000905560028201600090556003820160009055506004016113c8565b5090565b90565b61142b91905b8082111561142757600081600090555060010161140f565b5090565b90565b61149691905b8082111561149257600080820160009055600182016000905560028201600061145d9190611499565b6003820160009055600482016000905560058201600090556006820160006101000a81549060ff021916905550600701611434565b5090565b90565b50805460018160011615610100020316600290046000825580601f106114bf57506114de565b601f0160209004906000526020600020908101906114dd9190611409565b5b5056fea165627a7a723058204cf8e2ec66621512aced009be7f9d7f42c28ea406ffa13d5bc61bcdd3731bebd0029",
  "source": "pragma solidity ^0.5.0;\r\n\r\nimport \"./UserManager.sol\";\r\nimport \"./ConcatHelper.sol\";\r\nimport \"./DiscussionManager.sol\";\r\n\r\ncontract CommentManager is UserManager {\r\n  //library to concat bytes\r\n  using ConcatHelper for bytes;\r\n\r\n  // indicate the status of the comment\r\n  enum Stat{Pending, Accepted, Rejected}\r\n\r\n  //struct with the basic comment information\r\n  struct Comment {\r\n    // author of the comment\r\n    bytes32 author;\r\n    //comment title\r\n    bytes32 title;\r\n    // content of the comment\r\n    string content;\r\n    // number of positive vote received\r\n    uint numPosRecVote;\r\n    // number of negative vote received\r\n    uint numNegRecVote;\r\n    // title of discussion\r\n    bytes32 titleDis;\r\n    // the status of the comment\r\n    Stat stat;\r\n  }\r\n\r\n  // map with key= 'commentId'+'comment_title' and value a number\r\n  mapping(bytes => uint) public commentIds;\r\n\r\n  //Array of comment\r\n  Comment[] public comments;\r\n\r\n  // event fired when an comment is registered\r\n  event newCommentRegistered(uint id);\r\n\r\n  constructor() public{\r\n    // NOTE: the first comment and participant MUST be emtpy:\r\n    // if you are trying to access to an element\r\n    // of the commentIds mapping that does not exist you will\r\n    // receive 0, that's why in the first position (with index 0) must be initialized\r\n    addComment(\"\", \"\", \"\", \"\");\r\n  }\r\n  /**\r\n    * Function to register a new comment.\r\n    *\r\n    * @param _author the address of the author\r\n    * @param _title title of the comment\r\n    * @param _content the content of the comment\r\n   */\r\n  function registerComment(\r\n    bytes32 _author,\r\n    bytes32 _title,\r\n    string memory _content,\r\n    bytes32 _discussionTitle)\r\n  public returns (uint) {\r\n    return addComment(_author, _title, _content, _discussionTitle);\r\n  }\r\n\r\n  /**\r\n  * Add a new comment. This function must be private because an user\r\n  * cannot insert other information about comment and participant\r\n  *\r\n  * @param _author author of the comment\r\n  * @param _commentTitle title of the comment\r\n  * @param _content content of comment\r\n  */\r\n  function addComment(\r\n    bytes32 _author,\r\n    bytes32 _commentTitle,\r\n    string memory _content,\r\n    bytes32 _discussionTitle)\r\n  private returns (uint) {\r\n    bytes memory _commentKey = ConcatHelper.concat2(ConcatHelper.concat(_discussionTitle, _commentTitle), _author);\r\n    // checking if the comment is already registered\r\n    uint commentId = commentIds[_commentKey];\r\n    require(commentId == 0);\r\n    // associating the title of comment with the new ID\r\n    commentIds[_commentKey] = comments.length;\r\n    uint newCommentId = comments.length++;\r\n    // storing the new user details\r\n\r\n    comments[newCommentId] = Comment({\r\n      author : _author,\r\n      title : _commentTitle,\r\n      content : _content,\r\n      numPosRecVote : 0,\r\n      numNegRecVote : 0,\r\n      stat : Stat.Pending,\r\n      titleDis : _discussionTitle\r\n      });\r\n    // emitting the event that a new user has been registered\r\n    emit newCommentRegistered(newCommentId);\r\n    return newCommentId;\r\n  }\r\n  /*\r\n  *\r\n  */\r\n  function getComment(uint _id) public view returns (bytes32, bytes32, string memory, uint, uint, bytes32){\r\n    Comment storage c = comments[_id];\r\n    return (\r\n    c.author,\r\n    c.title,\r\n    c.content,\r\n    c.numPosRecVote,\r\n    c.numNegRecVote,\r\n    c.titleDis\r\n    );\r\n  }\r\n  /*\r\n  * return the number of comment\r\n  */\r\n  function getNumComments() public view returns (uint){\r\n    return comments.length;\r\n  }\r\n  /*\r\n  * return the number of comment\r\n  */\r\n  function registerVote(\r\n    bytes32 _author,\r\n    bytes32 _commentTitle,\r\n    bytes32 _discussionTitle,\r\n    bytes32 _voter,\r\n    bool _isPositive\r\n  ) public returns (uint) {\r\n    return addVote(_author, _commentTitle, _discussionTitle, _voter, _isPositive);\r\n  }\r\n\r\n  function addVote(\r\n    bytes32 _author,\r\n    bytes32 _commentTitle,\r\n    bytes32 _discussionTitle,\r\n    bytes32 _voter,\r\n    bool _isPosvote)\r\n  private returns (uint){\r\n    // require(_author != _voter);\r\n    bytes memory _commentKey = ConcatHelper.concat2(ConcatHelper.concat(_discussionTitle, _commentTitle), _author);\r\n    uint commentId = commentIds[_commentKey];\r\n    Comment storage comment = comments[commentId];\r\n    if (_isPosvote)\r\n      comment.numPosRecVote += 1;\r\n    else\r\n      comment.numNegRecVote += 1;\r\n    return commentId;\r\n  }\r\n\r\n  function getVote(\r\n    bytes32 _author,\r\n    bytes32 _commentTitle,\r\n    bytes32 _discussionTitle\r\n  ) public view returns (uint, uint){\r\n    bytes memory _commentKey = ConcatHelper.concat2(ConcatHelper.concat(_discussionTitle, _commentTitle), _author);\r\n    uint commentId = commentIds[_commentKey];\r\n    Comment storage comment = comments[commentId];\r\n    return (comment.numPosRecVote, comment.numNegRecVote);\r\n  }\r\n}\r\n",
  "sourcePath": "C:\\Users\\Giulia\\IdeaProjects\\BlockArt_Project\\block-art\\blockart-blockchain\\contracts\\CommentManager.sol",
  "compiler": {
    "name": "solc",
    "version": "0.5.8+commit.23d335f2.Emscripten.clang"
  },
  "schemaVersion": "3.0.13",
  "updatedAt": "2019-09-15T17:47:24.739Z",
  "devdoc": {
    "methods": {
      "getName(bytes32)": {
        "params": {
          "_address": "of caller of the function\r"
        }
      },
      "getReputation(bytes32)": {
        "params": {
          "_address": "of caller of the function\r"
        }
      },
      "isNotRegistered(bytes32)": {
        "params": {
          "_address": "address of the user\r"
        }
      },
      "registerComment(bytes32,bytes32,string,bytes32)": {
        "params": {
          "_author": "the address of the author\r",
          "_content": "the content of the comment\r",
          "_title": "title of the comment\r"
        }
      },
      "registerUser(string,bytes32)": {
        "params": {
          "_username": "The displaying name*\r"
        }
      },
      "updateReputaion(uint256,bytes32)": {
        "params": {
          "_address": "of the updated profile\r",
          "_newEvaluation": "The new user's displaying name\r"
        }
      }
    }
  },
  "userdoc": {
    "methods": {
      "getName(bytes32)": {
        "notice": "Return string with name of function's caller\r"
      },
      "getReputation(bytes32)": {
        "notice": "Return uint256 with reputation value of function's caller\r"
      },
      "isNotRegistered(bytes32)": {
        "notice": "Check if the user that is calling the smart contract is registered.\r"
      },
      "registerComment(bytes32,bytes32,string,bytes32)": {
        "notice": "Function to register a new comment.\r "
      },
      "registerUser(string,bytes32)": {
        "notice": "Function to register a new user.\r "
      },
      "updateReputaion(uint256,bytes32)": {
        "notice": "Update the evaluation of the user calling this method.\r Note: only the evaluation has been validate profile is update.\r "
      }
    }
  }
}