{
  "contractName": "CommentManager",
  "abi": [
    {
      "constant": true,
      "inputs": [
        {
          "name": "",
          "type": "bytes"
        }
      ],
      "name": "commentIds",
      "outputs": [
        {
          "name": "",
          "type": "uint256"
        }
      ],
      "payable": false,
      "stateMutability": "view",
      "type": "function"
    },
    {
      "constant": false,
      "inputs": [
        {
          "name": "_newEvaluation",
          "type": "uint256"
        },
        {
          "name": "_address",
          "type": "bytes32"
        }
      ],
      "name": "updateReputaion",
      "outputs": [
        {
          "name": "",
          "type": "uint256"
        }
      ],
      "payable": false,
      "stateMutability": "nonpayable",
      "type": "function"
    },
    {
      "constant": true,
      "inputs": [
        {
          "name": "_address",
          "type": "bytes32"
        }
      ],
      "name": "getName",
      "outputs": [
        {
          "name": "",
          "type": "string"
        }
      ],
      "payable": false,
      "stateMutability": "view",
      "type": "function"
    },
    {
      "constant": false,
      "inputs": [
        {
          "name": "_username",
          "type": "string"
        },
        {
          "name": "_address",
          "type": "bytes32"
        }
      ],
      "name": "registerUser",
      "outputs": [
        {
          "name": "",
          "type": "uint256"
        }
      ],
      "payable": false,
      "stateMutability": "nonpayable",
      "type": "function"
    },
    {
      "constant": true,
      "inputs": [
        {
          "name": "_address",
          "type": "bytes32"
        }
      ],
      "name": "isNotRegistered",
      "outputs": [
        {
          "name": "",
          "type": "bool"
        }
      ],
      "payable": false,
      "stateMutability": "view",
      "type": "function"
    },
    {
      "constant": true,
      "inputs": [
        {
          "name": "_address",
          "type": "bytes32"
        }
      ],
      "name": "getReputation",
      "outputs": [
        {
          "name": "",
          "type": "uint256"
        }
      ],
      "payable": false,
      "stateMutability": "view",
      "type": "function"
    },
    {
      "constant": true,
      "inputs": [
        {
          "name": "",
          "type": "bytes32"
        }
      ],
      "name": "usersIds",
      "outputs": [
        {
          "name": "",
          "type": "uint256"
        }
      ],
      "payable": false,
      "stateMutability": "view",
      "type": "function"
    },
    {
      "inputs": [],
      "payable": false,
      "stateMutability": "nonpayable",
      "type": "constructor"
    },
    {
      "anonymous": false,
      "inputs": [
        {
          "indexed": false,
          "name": "id",
          "type": "uint256"
        }
      ],
      "name": "newCommentRegistered",
      "type": "event"
    },
    {
      "anonymous": false,
      "inputs": [
        {
          "indexed": false,
          "name": "username",
          "type": "string"
        }
      ],
      "name": "newUserRegistered",
      "type": "event"
    },
    {
      "anonymous": false,
      "inputs": [
        {
          "indexed": false,
          "name": "isNotregistered",
          "type": "bool"
        }
      ],
      "name": "isNotRegisteredEvent",
      "type": "event"
    },
    {
      "anonymous": false,
      "inputs": [
        {
          "indexed": false,
          "name": "id",
          "type": "uint256"
        }
      ],
      "name": "userUpdateRepEvent",
      "type": "event"
    },
    {
      "constant": false,
      "inputs": [
        {
          "name": "_author",
          "type": "bytes32"
        },
        {
          "name": "_title",
          "type": "bytes32"
        },
        {
          "name": "_content",
          "type": "string"
        },
        {
          "name": "_discussionTitle",
          "type": "bytes32"
        }
      ],
      "name": "registerComment",
      "outputs": [
        {
          "name": "",
          "type": "uint256"
        }
      ],
      "payable": false,
      "stateMutability": "nonpayable",
      "type": "function"
    },
    {
      "constant": true,
      "inputs": [
        {
          "name": "_id",
          "type": "uint256"
        }
      ],
      "name": "getComment",
      "outputs": [
        {
          "name": "",
          "type": "bytes32"
        },
        {
          "name": "",
          "type": "bytes32"
        },
        {
          "name": "",
          "type": "string"
        },
        {
          "name": "",
          "type": "uint256"
        },
        {
          "name": "",
          "type": "uint256"
        },
        {
          "name": "",
          "type": "bytes32"
        }
      ],
      "payable": false,
      "stateMutability": "view",
      "type": "function"
    },
    {
      "constant": true,
      "inputs": [],
      "name": "getNumComments",
      "outputs": [
        {
          "name": "",
          "type": "uint256"
        }
      ],
      "payable": false,
      "stateMutability": "view",
      "type": "function"
    },
    {
      "constant": false,
      "inputs": [
        {
          "name": "_author",
          "type": "bytes32"
        },
        {
          "name": "_commentTitle",
          "type": "bytes32"
        },
        {
          "name": "_discussionTitle",
          "type": "bytes32"
        },
        {
          "name": "_voter",
          "type": "bytes32"
        },
        {
          "name": "_isPosVote",
          "type": "bool"
        }
      ],
      "name": "registerVote",
      "outputs": [
        {
          "name": "",
          "type": "uint256"
        }
      ],
      "payable": false,
      "stateMutability": "nonpayable",
      "type": "function"
    },
    {
      "constant": true,
      "inputs": [
        {
          "name": "_author",
          "type": "bytes32"
        },
        {
          "name": "_commentTitle",
          "type": "bytes32"
        },
        {
          "name": "_discussionTitle",
          "type": "bytes32"
        },
        {
          "name": "_voter",
          "type": "bytes32"
        }
      ],
      "name": "isNotAlreadyVoted",
      "outputs": [
        {
          "name": "",
          "type": "bool"
        }
      ],
      "payable": false,
      "stateMutability": "view",
      "type": "function"
    },
    {
      "constant": true,
      "inputs": [
        {
          "name": "_author",
          "type": "bytes32"
        },
        {
          "name": "_commentTitle",
          "type": "bytes32"
        },
        {
          "name": "_discussionTitle",
          "type": "bytes32"
        }
      ],
      "name": "getVote",
      "outputs": [
        {
          "name": "",
          "type": "uint256"
        },
        {
          "name": "",
          "type": "uint256"
        }
      ],
      "payable": false,
      "stateMutability": "view",
      "type": "function"
    }
  ],
  "bytecode": "0x60806040523480156200001157600080fd5b5062000053604051806020016040528060008152507f3078300000000000000000000000000000000000000000000000000000000000620001b860201b60201c565b50620000bb6040518060400160405280600a81526020017f4c656f6e2042726f776e000000000000000000000000000000000000000000008152507f3078333333333333333333333333000000000000000000000000000000000000620001b860201b60201c565b50620001236040518060400160405280600a81526020017f4a6f686e20446f656e74000000000000000000000000000000000000000000008152507f3078313131313131313131313131000000000000000000000000000000000000620001b860201b60201c565b506200018b6040518060400160405280600a81526020017f4d61727920536d697468000000000000000000000000000000000000000000008152507f3078323232323232323232323232000000000000000000000000000000000000620001b860201b60201c565b50620001b16000806040518060200160405280600081525060006200037960201b60201c565b50620009fb565b60008060008084815260200190815260200160002054905060008114620001de57600080fd5b600180549050600080858152602001908152602001600020819055506000600180548091906001016200021291906200072b565b90506040518060800160405280868152602001858152602001600181526020016000815250600182815481106200024557fe5b906000526020600020906004020160008201518160000190805190602001906200027192919062000760565b506020820151816001015560408201518160020155606082015181600301559050507f23bf3c3382eca35efcabbb4d1accad8939015a59d506e31e3df91c52840bdcb5856040518080602001828103825283818151815260200191508051906020019080838360005b83811015620002f7578082015181840152602081019050620002da565b50505050905090810190601f168015620003255780820380516001836020036101000a031916815260200191505b509250505060405180910390a17fcc21b0efbc250b64650c3b8471125011264361ab421b7adca1f3cb7a0eedb8dc6000604051808215151515815260200191505060405180910390a1809250505092915050565b60006060620003aa6200039884876200067a60201b620012091760201c565b87620006ac60201b6200123b1760201c565b905060006002826040518082805190602001908083835b60208310620003e65780518252602082019150602081019050602083039250620003c1565b6001836020036101000a0380198251168184511680821785525050505050509050019150509081526020016040518091039020549050600081146200042a57600080fd5b6003805490506002836040518082805190602001908083835b6020831062000468578051825260208201915060208101905060208303925062000443565b6001836020036101000a038019825116818451168082178552505050505050905001915050908152602001604051809103902081905550600060038054809190600101620004b79190620007e7565b9050604051806101000160405280898152602001888152602001878152602001600081526020016000815260200186815260200160006002811115620004f957fe5b815260200160006040519080825280602002602001820160405280156200052f5781602001602082028038833980820191505090505b50815250600382815481106200054157fe5b9060005260206000209060080201600082015181600001556020820151816001015560408201518160020190805190602001906200058192919062000760565b50606082015181600301556080820151816004015560a0820151816005015560c08201518160060160006101000a81548160ff02191690836002811115620005c557fe5b021790555060e0820151816007019080519060200190620005e89291906200081c565b509050507f4d777f60d952db1e3dfea06728df320f7aa655f4414c8b3cbf51c9acebfc36ca816040518082815260200191505060405180910390a1600381815481106200063157fe5b9060005260206000209060080201600701889080600181540180825580915050906001820390600052602060002001600090919290919091505550809350505050949350505050565b606082826040516020018083815260200182815260200192505050604051602081830303815290604052905092915050565b606082826040516020018083805190602001908083835b60208310620006e85780518252602082019150602081019050602083039250620006c3565b6001836020036101000a03801982511681845116808217855250505050505090500182815260200192505050604051602081830303815290604052905092915050565b8154818355818111156200075b576004028160040283600052602060002091820191016200075a91906200086e565b5b505050565b828054600181600116156101000203166002900490600052602060002090601f016020900481019282601f10620007a357805160ff1916838001178555620007d4565b82800160010185558215620007d4579182015b82811115620007d3578251825591602001919060010190620007b6565b5b509050620007e39190620008ba565b5090565b8154818355818111156200081757600802816008028360005260206000209182019101620008169190620008e2565b5b505050565b8280548282559060005260206000209081019282156200085b579160200282015b828111156200085a5782518255916020019190600101906200083d565b5b5090506200086a919062000964565b5090565b620008b791905b80821115620008b357600080820160006200089191906200098c565b6001820160009055600282016000905560038201600090555060040162000875565b5090565b90565b620008df91905b80821115620008db576000816000905550600101620008c1565b5090565b90565b6200096191905b808211156200095d5760008082016000905560018201600090556002820160006200091591906200098c565b6003820160009055600482016000905560058201600090556006820160006101000a81549060ff0219169055600782016000620009539190620009d8565b50600801620008e9565b5090565b90565b6200098991905b80821115620009855760008160009055506001016200096b565b5090565b90565b50805460018160011615610100020316600290046000825580601f10620009b45750620009d5565b601f016020900490600052602060002090810190620009d49190620008ba565b5b50565b5080546000825590600052602060002090810190620009f8919062000964565b50565b61169f8062000a0b6000396000f3fe608060405234801561001057600080fd5b50600436106100cf5760003560e01c80637898ac9d1161008c578063c3de9c5111610066578063c3de9c51146105ee578063d14519d21461064b578063ed272f721461068d578063fd67b161146106cf576100cf565b80637898ac9d1461045757806393cdc1c714610544578063b0fc1875146105a8576100cf565b80630800e300146100d4578063119029341461019e5780632e2ca08c1461026d57806354b8d5e3146102b9578063683d60b71461036057806368ae55631461037e575b600080fd5b610100600480360360208110156100ea57600080fd5b810190808035906020019092919050505061073b565b6040518087815260200186815260200180602001858152602001848152602001838152602001828103825286818151815260200191508051906020019080838360005b8381101561015e578082015181840152602081019050610143565b50505050905090810190601f16801561018b5780820380516001836020036101000a031916815260200191505b5097505050505050505060405180910390f35b610257600480360360208110156101b457600080fd5b81019080803590602001906401000000008111156101d157600080fd5b8201836020820111156101e357600080fd5b8035906020019184600183028401116401000000008311171561020557600080fd5b91908080601f016020809104026020016040519081016040528093929190818152602001838380828437600081840152601f19601f820116905080830192505050505050509192919290505050610832565b6040518082815260200191505060405180910390f35b6102a36004803603604081101561028357600080fd5b810190808035906020019092919080359060200190929190505050610860565b6040518082815260200191505060405180910390f35b6102e5600480360360208110156102cf57600080fd5b81019080803590602001909291905050506108fd565b6040518080602001828103825283818151815260200191508051906020019080838360005b8381101561032557808201518184015260208101905061030a565b50505050905090810190601f1680156103525780820380516001836020036101000a031916815260200191505b509250505060405180910390f35b6103686109db565b6040518082815260200191505060405180910390f35b6104416004803603604081101561039457600080fd5b81019080803590602001906401000000008111156103b157600080fd5b8201836020820111156103c357600080fd5b803590602001918460018302840111640100000000831117156103e557600080fd5b91908080601f016020809104026020016040519081016040528093929190818152602001838380828437600081840152601f19601f820116905080830192505050505050509192919290803590602001909291905050506109e8565b6040518082815260200191505060405180910390f35b61052e6004803603608081101561046d57600080fd5b8101908080359060200190929190803590602001909291908035906020019064010000000081111561049e57600080fd5b8201836020820111156104b057600080fd5b803590602001918460018302840111640100000000831117156104d257600080fd5b91908080601f016020809104026020016040519081016040528093929190818152602001838380828437600081840152601f19601f82011690508083019250505050505050919291929080359060200190929190505050610a79565b6040518082815260200191505060405180910390f35b61058e6004803603608081101561055a57600080fd5b8101908080359060200190929190803590602001909291908035906020019092919080359060200190929190505050610a91565b604051808215151515815260200191505060405180910390f35b6105d4600480360360208110156105be57600080fd5b8101908080359060200190929190505050610b9f565b604051808215151515815260200191505060405180910390f35b61062e6004803603606081101561060457600080fd5b81019080803590602001909291908035906020019092919080359060200190929190505050610bbd565b604051808381526020018281526020019250505060405180910390f35b6106776004803603602081101561066157600080fd5b8101908080359060200190929190505050610c7d565b6040518082815260200191505060405180910390f35b6106b9600480360360208110156106a357600080fd5b8101908080359060200190929190505050610cc2565b6040518082815260200191505060405180910390f35b610725600480360360a08110156106e557600080fd5b8101908080359060200190929190803590602001909291908035906020019092919080359060200190929190803515159060200190929190505050610cda565b6040518082815260200191505060405180910390f35b60008060606000806000806003888154811061075357fe5b906000526020600020906008020190508060000154816001015482600201836003015484600401548560050154838054600181600116156101000203166002900480601f0160208091040260200160405190810160405280929190818152602001828054600181600116156101000203166002900480156108155780601f106107ea57610100808354040283529160200191610815565b820191906000526020600020905b8154815290600101906020018083116107f857829003601f168201915b505050505093509650965096509650965096505091939550919395565b6002818051602081018201805184825260208301602085012081835280955050505050506000915090505481565b60008060008084815260200190815260200160002054905060006001828154811061088757fe5b906000526020600020906004020190508481600201819055508060030160008154809291906001019190505581600301819055507f166e2330253d37480aba732992b9720da8871bbc0aa0902860d2fa6bb3c0c9ee826040518082815260200191505060405180910390a1819250505092915050565b6060600080600084815260200190815260200160002054905060006001828154811061092557fe5b90600052602060002090600402019050806000018054600181600116156101000203166002900480601f0160208091040260200160405190810160405280929190818152602001828054600181600116156101000203166002900480156109cd5780601f106109a2576101008083540402835291602001916109cd565b820191906000526020600020905b8154815290600101906020018083116109b057829003601f168201915b505050505092505050919050565b6000600380549050905090565b6000816109f481610b9f565b610a66576040517f08c379a00000000000000000000000000000000000000000000000000000000081526004018080602001828103825260178152602001807f5573657220616c7265616479207265676973746572656400000000000000000081525060200191505060405180910390fd5b610a708484610d7a565b91505092915050565b6000610a8785858585610f32565b9050949350505050565b60006060610aa8610aa28587611209565b8761123b565b905060006002826040518082805190602001908083835b60208310610ae25780518252602082019150602081019050602083039250610abf565b6001836020036101000a0380198251168184511680821785525050505050509050019150509081526020016040518091039020549050600060038281548110610b2757fe5b9060005260206000209060080201905060006001905060005b8260070180549050811015610b8e5786836007018281548110610b5f57fe5b90600052602060002001541415610b8157600091508195505050505050610b97565b8080600101915050610b40565b50809450505050505b949350505050565b60008060008084815260200190815260200160002054149050919050565b6000806060610bd5610bcf8587611209565b8761123b565b905060006002826040518082805190602001908083835b60208310610c0f5780518252602082019150602081019050602083039250610bec565b6001836020036101000a0380198251168184511680821785525050505050509050019150509081526020016040518091039020549050600060038281548110610c5457fe5b906000526020600020906008020190508060030154816004015494509450505050935093915050565b600080600080848152602001908152602001600020549050600060018281548110610ca457fe5b90600052602060002090600402019050806002015492505050919050565b60006020528060005260406000206000915090505481565b600085858585610cec84848484610a91565b610d5e576040517f08c379a00000000000000000000000000000000000000000000000000000000081526004018080602001828103825260128152602001807f5573657220616c726561647920766f746564000000000000000000000000000081525060200191505060405180910390fd5b610d6b8a8a8a8a8a6112b8565b94505050505095945050505050565b60008060008084815260200190815260200160002054905060008114610d9f57600080fd5b60018054905060008085815260200190815260200160002081905550600060018054809190600101610dd191906113cd565b9050604051806080016040528086815260200185815260200160018152602001600081525060018281548110610e0357fe5b90600052602060002090600402016000820151816000019080519060200190610e2d9291906113ff565b506020820151816001015560408201518160020155606082015181600301559050507f23bf3c3382eca35efcabbb4d1accad8939015a59d506e31e3df91c52840bdcb5856040518080602001828103825283818151815260200191508051906020019080838360005b83811015610eb1578082015181840152602081019050610e96565b50505050905090810190601f168015610ede5780820380516001836020036101000a031916815260200191505b509250505060405180910390a17fcc21b0efbc250b64650c3b8471125011264361ab421b7adca1f3cb7a0eedb8dc6000604051808215151515815260200191505060405180910390a1809250505092915050565b60006060610f49610f438487611209565b8761123b565b905060006002826040518082805190602001908083835b60208310610f835780518252602082019150602081019050602083039250610f60565b6001836020036101000a038019825116818451168082178552505050505050905001915050908152602001604051809103902054905060008114610fc657600080fd5b6003805490506002836040518082805190602001908083835b602083106110025780518252602082019150602081019050602083039250610fdf565b6001836020036101000a03801982511681845116808217855250505050505090500191505090815260200160405180910390208190555060006003805480919060010161104f919061147f565b905060405180610100016040528089815260200188815260200187815260200160008152602001600081526020018681526020016000600281111561109057fe5b815260200160006040519080825280602002602001820160405280156110c55781602001602082028038833980820191505090505b50815250600382815481106110d657fe5b9060005260206000209060080201600082015181600001556020820151816001015560408201518160020190805190602001906111149291906113ff565b50606082015181600301556080820151816004015560a0820151816005015560c08201518160060160006101000a81548160ff0219169083600281111561115757fe5b021790555060e08201518160070190805190602001906111789291906114b1565b509050507f4d777f60d952db1e3dfea06728df320f7aa655f4414c8b3cbf51c9acebfc36ca816040518082815260200191505060405180910390a1600381815481106111c057fe5b9060005260206000209060080201600701889080600181540180825580915050906001820390600052602060002001600090919290919091505550809350505050949350505050565b606082826040516020018083815260200182815260200192505050604051602081830303815290604052905092915050565b606082826040516020018083805190602001908083835b602083106112755780518252602082019150602081019050602083039250611252565b6001836020036101000a03801982511681845116808217855250505050505090500182815260200192505050604051602081830303815290604052905092915050565b600060606112cf6112c98688611209565b8861123b565b905060006002826040518082805190602001908083835b6020831061130957805182526020820191506020810190506020830392506112e6565b6001836020036101000a038019825116818451168082178552505050505050905001915050908152602001604051809103902054905060006003828154811061134e57fe5b906000526020600020906008020190508060070186908060018154018082558091505090600182039060005260206000200160009091929091909150555084156113aa57600181600301600082825401925050819055506113be565b600181600401600082825401925050819055505b81935050505095945050505050565b8154818355818111156113fa576004028160040283600052602060002091820191016113f991906114fe565b5b505050565b828054600181600116156101000203166002900490600052602060002090601f016020900481019282601f1061144057805160ff191683800117855561146e565b8280016001018555821561146e579182015b8281111561146d578251825591602001919060010190611452565b5b50905061147b9190611545565b5090565b8154818355818111156114ac576008028160080283600052602060002091820191016114ab919061156a565b5b505050565b8280548282559060005260206000209081019282156114ed579160200282015b828111156114ec5782518255916020019190600101906114d1565b5b5090506114fa91906115e5565b5090565b61154291905b8082111561153e576000808201600061151d919061160a565b60018201600090556002820160009055600382016000905550600401611504565b5090565b90565b61156791905b8082111561156357600081600090555060010161154b565b5090565b90565b6115e291905b808211156115de576000808201600090556001820160009055600282016000611599919061160a565b6003820160009055600482016000905560058201600090556006820160006101000a81549060ff02191690556007820160006115d59190611652565b50600801611570565b5090565b90565b61160791905b808211156116035760008160009055506001016115eb565b5090565b90565b50805460018160011615610100020316600290046000825580601f10611630575061164f565b601f01602090049060005260206000209081019061164e9190611545565b5b50565b508054600082559060005260206000209081019061167091906115e5565b5056fea165627a7a72305820952f439e557e66f77f0c8c8bef64bc618f82ed3d854c67ac2c5109d5681dc0d10029",
  "source": "pragma solidity ^0.5.0;\r\n\r\nimport \"./UserManager.sol\";\r\nimport \"./ConcatHelper.sol\";\r\n\r\ncontract CommentManager is UserManager {\r\n  //library to concat bytes\r\n  using ConcatHelper for bytes;\r\n\r\n  // indicate the status of the comment\r\n  enum Stat{Pending, Accepted, Rejected}\r\n\r\n  //struct with the basic comment information\r\n  struct Comment {\r\n    // author of the comment\r\n    bytes32 author;\r\n    //comment title\r\n    bytes32 title;\r\n    // content of the comment\r\n    string content;\r\n    // number of positive vote received\r\n    uint numPosRecVote;\r\n    // number of negative vote received\r\n    uint numNegRecVote;\r\n    // title of discussion\r\n    bytes32 titleDis;\r\n    // the status of the comment\r\n    Stat stat;\r\n    //\r\n    bytes32[] voters;\r\n  }\r\n\r\n  // map with key= 'commentId'+'comment_title' and value a number\r\n  mapping(bytes => uint) public commentIds;\r\n\r\n  //Array of comment\r\n  Comment[] comments;\r\n\r\n  // event fired when an comment is registered\r\n  event newCommentRegistered(uint id);\r\n\r\n  // Modifier: check if the voter has already voted\r\n  modifier checkVoterIsNotAlreadyVoted(\r\n    bytes32 _author,\r\n    bytes32 _commentTitle,\r\n    bytes32 _discussionTitle,\r\n    bytes32 _voter) {\r\n    require(\r\n      isNotAlreadyVoted(_author, _commentTitle, _discussionTitle, _voter),\r\n      \"User already voted\"\r\n    );\r\n    _;\r\n  }\r\n\r\n  constructor() public{\r\n    // NOTE: the first comment and participant MUST be emtpy:\r\n    // if you are trying to access to an element\r\n    // of the commentIds mapping that does not exist you will\r\n    // receive 0, that's why in the first position (with index 0) must be initialized\r\n    addComment(\"\", \"\", \"\", \"\");\r\n  }\r\n  /**\r\n    * Function to register a new comment.\r\n    *\r\n    * @param _author the address of the author\r\n    * @param _title title of the comment\r\n    * @param _content the content of the comment\r\n   */\r\n  function registerComment(\r\n    bytes32 _author,\r\n    bytes32 _title,\r\n    string memory _content,\r\n    bytes32 _discussionTitle)\r\n  public returns (uint) {\r\n    return addComment(_author, _title, _content, _discussionTitle);\r\n  }\r\n\r\n  /**\r\n  * Add a new comment. This function must be private because an user\r\n  * cannot insert other information about comment and participant\r\n  *\r\n  * @param _author author of the comment\r\n  * @param _commentTitle title of the comment\r\n  * @param _content content of comment\r\n  */\r\n  function addComment(\r\n    bytes32 _author,\r\n    bytes32 _commentTitle,\r\n    string memory _content,\r\n    bytes32 _discussionTitle)\r\n  private returns (uint) {\r\n    bytes memory _commentKey = ConcatHelper.concat2(ConcatHelper.concat(_discussionTitle, _commentTitle), _author);\r\n    // checking if the comment is already registered\r\n    uint commentId = commentIds[_commentKey];\r\n    require(commentId == 0);\r\n    // associating the title of comment with the new ID\r\n    commentIds[_commentKey] = comments.length;\r\n    uint newCommentId = comments.length++;\r\n    // storing the new user details\r\n\r\n    comments[newCommentId] = Comment({\r\n      author : _author,\r\n      title : _commentTitle,\r\n      content : _content,\r\n      numPosRecVote : 0,\r\n      numNegRecVote : 0,\r\n      stat : Stat.Pending,\r\n      titleDis : _discussionTitle,\r\n      voters : new bytes32[](0)\r\n      });\r\n    // emitting the event that a new user has been registered\r\n    emit newCommentRegistered(newCommentId);\r\n    comments[newCommentId].voters.push(_author);\r\n    return newCommentId;\r\n  }\r\n  /*\r\n  *\r\n  */\r\n  function getComment(uint _id) public view returns (bytes32, bytes32, string memory, uint, uint, bytes32){\r\n    Comment storage c = comments[_id];\r\n    return (\r\n    c.author,\r\n    c.title,\r\n    c.content,\r\n    c.numPosRecVote,\r\n    c.numNegRecVote,\r\n    c.titleDis\r\n    );\r\n  }\r\n  /*\r\n  * return the number of comment\r\n  */\r\n  function getNumComments() public view returns (uint){\r\n    return comments.length;\r\n  }\r\n  /*\r\n  * return the number of comment\r\n  */\r\n  function registerVote(\r\n    bytes32 _author,\r\n    bytes32 _commentTitle,\r\n    bytes32 _discussionTitle,\r\n    bytes32 _voter,\r\n    bool _isPosVote\r\n  ) checkVoterIsNotAlreadyVoted(_author, _commentTitle, _discussionTitle, _voter)\r\n  public returns (uint) {\r\n    return addVote(_author, _commentTitle, _discussionTitle, _voter, _isPosVote);\r\n  }\r\n\r\n  function addVote(\r\n    bytes32 _author,\r\n    bytes32 _commentTitle,\r\n    bytes32 _discussionTitle,\r\n    bytes32 _voter,\r\n    bool _isPosvote)\r\n  private returns (uint){\r\n    bytes memory _commentKey = ConcatHelper.concat2(ConcatHelper.concat(_discussionTitle, _commentTitle), _author);\r\n    uint commentId = commentIds[_commentKey];\r\n    Comment storage comment = comments[commentId];\r\n    comment.voters.push(_voter);\r\n    if (_isPosvote)\r\n      comment.numPosRecVote += 1;\r\n    else\r\n      comment.numNegRecVote += 1;\r\n    return commentId;\r\n  }\r\n  /**\r\n * Check if the user that is voting is already voted.\r\n * @param _author address of the user\r\n */\r\n  function isNotAlreadyVoted(\r\n    bytes32 _author,\r\n    bytes32 _commentTitle,\r\n    bytes32 _discussionTitle,\r\n    bytes32 _voter)\r\n  public view returns (bool) {\r\n    bytes memory _commentKey = ConcatHelper.concat2(ConcatHelper.concat(_discussionTitle, _commentTitle), _author);\r\n    uint commentId = commentIds[_commentKey];\r\n    Comment storage comment = comments[commentId];\r\n    bool isNotPresent = true;\r\n    for (uint i; i < comment.voters.length; i++) {\r\n      if (comment.voters[i] == _voter) {\r\n        isNotPresent = false;\r\n        return isNotPresent;\r\n      }\r\n    }\r\n    return isNotPresent;\r\n  }\r\n\r\n  function getVote(\r\n    bytes32 _author,\r\n    bytes32 _commentTitle,\r\n    bytes32 _discussionTitle)\r\n  public view returns (uint, uint){\r\n    bytes memory _commentKey = ConcatHelper.concat2(ConcatHelper.concat(_discussionTitle, _commentTitle), _author);\r\n    uint commentId = commentIds[_commentKey];\r\n    Comment storage comment = comments[commentId];\r\n    return (comment.numPosRecVote, comment.numNegRecVote);\r\n  }\r\n}\r\n",
  "sourcePath": "C:\\Users\\Giulia\\IdeaProjects\\BlockArt_Project\\block-art\\blockart-blockchain\\contracts\\CommentManager.sol",
  "compiler": {
    "name": "solc",
    "version": "0.5.8+commit.23d335f2.Emscripten.clang"
  },
  "schemaVersion": "3.0.13",
  "updatedAt": "2019-09-13T21:57:13.896Z",
  "devdoc": {
    "methods": {
      "getName(bytes32)": {
        "params": {
          "_address": "of caller of the function\r"
        }
      },
      "getReputation(bytes32)": {
        "params": {
          "_address": "of caller of the function\r"
        }
      },
      "isNotAlreadyVoted(bytes32,bytes32,bytes32,bytes32)": {
        "params": {
          "_author": "address of the user\r"
        }
      },
      "isNotRegistered(bytes32)": {
        "params": {
          "_address": "address of the user\r"
        }
      },
      "registerComment(bytes32,bytes32,string,bytes32)": {
        "params": {
          "_author": "the address of the author\r",
          "_content": "the content of the comment\r",
          "_title": "title of the comment\r"
        }
      },
      "registerUser(string,bytes32)": {
        "params": {
          "_username": "The displaying name*\r"
        }
      },
      "updateReputaion(uint256,bytes32)": {
        "params": {
          "_address": "of the updated profile\r",
          "_newEvaluation": "The new user's displaying name\r"
        }
      }
    }
  },
  "userdoc": {
    "methods": {
      "getName(bytes32)": {
        "notice": "Return string with name of function's caller\r"
      },
      "getReputation(bytes32)": {
        "notice": "Return uint256 with reputation value of function's caller\r"
      },
      "isNotAlreadyVoted(bytes32,bytes32,bytes32,bytes32)": {
        "notice": "Check if the user that is voting is already voted.\r"
      },
      "isNotRegistered(bytes32)": {
        "notice": "Check if the user that is calling the smart contract is registered.\r"
      },
      "registerComment(bytes32,bytes32,string,bytes32)": {
        "notice": "Function to register a new comment.\r "
      },
      "registerUser(string,bytes32)": {
        "notice": "Function to register a new user.\r "
      },
      "updateReputaion(uint256,bytes32)": {
        "notice": "Update the evaluation of the user calling this method.\r Note: only the evaluation has been validate profile is update.\r "
      }
    }
  }
}