{
  "contractName": "CommentManager",
  "abi": [
    {
      "constant": true,
      "inputs": [
        {
          "name": "",
          "type": "bytes"
        }
      ],
      "name": "commentIds",
      "outputs": [
        {
          "name": "",
          "type": "uint256"
        }
      ],
      "payable": false,
      "stateMutability": "view",
      "type": "function"
    },
    {
      "constant": false,
      "inputs": [
        {
          "name": "_newEvaluation",
          "type": "uint256"
        },
        {
          "name": "_address",
          "type": "bytes32"
        }
      ],
      "name": "updateReputaion",
      "outputs": [
        {
          "name": "",
          "type": "uint256"
        }
      ],
      "payable": false,
      "stateMutability": "nonpayable",
      "type": "function"
    },
    {
      "constant": true,
      "inputs": [
        {
          "name": "_address",
          "type": "bytes32"
        }
      ],
      "name": "getName",
      "outputs": [
        {
          "name": "",
          "type": "string"
        }
      ],
      "payable": false,
      "stateMutability": "view",
      "type": "function"
    },
    {
      "constant": false,
      "inputs": [
        {
          "name": "_username",
          "type": "string"
        },
        {
          "name": "_address",
          "type": "bytes32"
        }
      ],
      "name": "registerUser",
      "outputs": [
        {
          "name": "",
          "type": "uint256"
        }
      ],
      "payable": false,
      "stateMutability": "nonpayable",
      "type": "function"
    },
    {
      "constant": true,
      "inputs": [
        {
          "name": "_address",
          "type": "bytes32"
        }
      ],
      "name": "isNotRegistered",
      "outputs": [
        {
          "name": "",
          "type": "bool"
        }
      ],
      "payable": false,
      "stateMutability": "view",
      "type": "function"
    },
    {
      "constant": true,
      "inputs": [
        {
          "name": "_address",
          "type": "bytes32"
        }
      ],
      "name": "getReputation",
      "outputs": [
        {
          "name": "",
          "type": "uint256"
        }
      ],
      "payable": false,
      "stateMutability": "view",
      "type": "function"
    },
    {
      "constant": true,
      "inputs": [
        {
          "name": "",
          "type": "bytes32"
        }
      ],
      "name": "usersIds",
      "outputs": [
        {
          "name": "",
          "type": "uint256"
        }
      ],
      "payable": false,
      "stateMutability": "view",
      "type": "function"
    },
    {
      "inputs": [],
      "payable": false,
      "stateMutability": "nonpayable",
      "type": "constructor"
    },
    {
      "anonymous": false,
      "inputs": [
        {
          "indexed": false,
          "name": "id",
          "type": "uint256"
        }
      ],
      "name": "newCommentRegistered",
      "type": "event"
    },
    {
      "anonymous": false,
      "inputs": [
        {
          "indexed": false,
          "name": "username",
          "type": "string"
        }
      ],
      "name": "newUserRegistered",
      "type": "event"
    },
    {
      "anonymous": false,
      "inputs": [
        {
          "indexed": false,
          "name": "isNotregistered",
          "type": "bool"
        }
      ],
      "name": "isNotRegisteredEvent",
      "type": "event"
    },
    {
      "anonymous": false,
      "inputs": [
        {
          "indexed": false,
          "name": "id",
          "type": "uint256"
        }
      ],
      "name": "userUpdateRepEvent",
      "type": "event"
    },
    {
      "constant": false,
      "inputs": [
        {
          "name": "_author",
          "type": "bytes32"
        },
        {
          "name": "_title",
          "type": "bytes32"
        },
        {
          "name": "_content",
          "type": "string"
        },
        {
          "name": "_discussionTitle",
          "type": "bytes32"
        }
      ],
      "name": "registerComment",
      "outputs": [
        {
          "name": "",
          "type": "uint256"
        }
      ],
      "payable": false,
      "stateMutability": "nonpayable",
      "type": "function"
    }
  ],
  "bytecode": "0x60806040523480156200001157600080fd5b5062000053604051806020016040528060008152507f3078300000000000000000000000000000000000000000000000000000000000620001b860201b60201c565b50620000bb6040518060400160405280600a81526020017f4c656f6e2042726f776e000000000000000000000000000000000000000000008152507f3078333333333333333333333333000000000000000000000000000000000000620001b860201b60201c565b50620001236040518060400160405280600a81526020017f4a6f686e20446f656e74000000000000000000000000000000000000000000008152507f3078313131313131313131313131000000000000000000000000000000000000620001b860201b60201c565b506200018b6040518060400160405280600a81526020017f4d61727920536d697468000000000000000000000000000000000000000000008152507f3078323232323232323232323232000000000000000000000000000000000000620001b860201b60201c565b50620001b16000806040518060200160405280600081525060006200037960201b60201c565b5062000894565b60008060008084815260200190815260200160002054905060008114620001de57600080fd5b600180549050600080858152602001908152602001600020819055506000600180548091906001016200021291906200067b565b90506040518060800160405280868152602001858152602001600181526020016000815250600182815481106200024557fe5b9060005260206000209060040201600082015181600001908051906020019062000271929190620006b0565b506020820151816001015560408201518160020155606082015181600301559050507f23bf3c3382eca35efcabbb4d1accad8939015a59d506e31e3df91c52840bdcb5856040518080602001828103825283818151815260200191508051906020019080838360005b83811015620002f7578082015181840152602081019050620002da565b50505050905090810190601f168015620003255780820380516001836020036101000a031916815260200191505b509250505060405180910390a17fcc21b0efbc250b64650c3b8471125011264361ab421b7adca1f3cb7a0eedb8dc6000604051808215151515815260200191505060405180910390a1809250505092915050565b60006060620003aa620003988487620005ca60201b62000b8f1760201c565b87620005fc60201b62000bc11760201c565b905060006002826040518082805190602001908083835b60208310620003e65780518252602082019150602081019050602083039250620003c1565b6001836020036101000a0380198251168184511680821785525050505050509050019150509081526020016040518091039020549050600081146200042a57600080fd5b6003805490506002836040518082805190602001908083835b6020831062000468578051825260208201915060208101905060208303925062000443565b6001836020036101000a038019825116818451168082178552505050505050905001915050908152602001604051809103902081905550600060038054809190600101620004b7919062000737565b90506040518060c00160405280898152602001888152602001878152602001600081526020016000815260200160006002811115620004f257fe5b815250600382815481106200050357fe5b90600052602060002090600602016000820151816000015560208201518160010155604082015181600201908051906020019062000543929190620006b0565b50606082015181600301556080820151816004015560a08201518160050160006101000a81548160ff021916908360028111156200057d57fe5b02179055509050507f4d777f60d952db1e3dfea06728df320f7aa655f4414c8b3cbf51c9acebfc36ca816040518082815260200191505060405180910390a1809350505050949350505050565b606082826040516020018083815260200182815260200192505050604051602081830303815290604052905092915050565b606082826040516020018083805190602001908083835b6020831062000638578051825260208201915060208101905060208303925062000613565b6001836020036101000a03801982511681845116808217855250505050505090500182815260200192505050604051602081830303815290604052905092915050565b815481835581811115620006ab57600402816004028360005260206000209182019101620006aa91906200076c565b5b505050565b828054600181600116156101000203166002900490600052602060002090601f016020900481019282601f10620006f357805160ff191683800117855562000724565b8280016001018555821562000724579182015b828111156200072357825182559160200191906001019062000706565b5b509050620007339190620007b8565b5090565b8154818355818111156200076757600602816006028360005260206000209182019101620007669190620007e0565b5b505050565b620007b591905b80821115620007b157600080820160006200078f919062000848565b6001820160009055600282016000905560038201600090555060040162000773565b5090565b90565b620007dd91905b80821115620007d9576000816000905550600101620007bf565b5090565b90565b6200084591905b808211156200084157600080820160009055600182016000905560028201600062000813919062000848565b600382016000905560048201600090556005820160006101000a81549060ff021916905550600601620007e7565b5090565b90565b50805460018160011615610100020316600290046000825580601f1062000870575062000891565b601f016020900490600052602060002090810190620008909190620007b8565b5b50565b610e6580620008a46000396000f3fe608060405234801561001057600080fd5b50600436106100885760003560e01c80637898ac9d1161005b5780637898ac9d14610328578063b0fc187514610415578063d14519d21461045b578063ed272f721461049d57610088565b8063119029341461008d5780632e2ca08c1461015c57806354b8d5e3146101a857806368ae55631461024f575b600080fd5b610146600480360360208110156100a357600080fd5b81019080803590602001906401000000008111156100c057600080fd5b8201836020820111156100d257600080fd5b803590602001918460018302840111640100000000831117156100f457600080fd5b91908080601f016020809104026020016040519081016040528093929190818152602001838380828437600081840152601f19601f8201169050808301925050505050505091929192905050506104df565b6040518082815260200191505060405180910390f35b6101926004803603604081101561017257600080fd5b81019080803590602001909291908035906020019092919050505061050d565b6040518082815260200191505060405180910390f35b6101d4600480360360208110156101be57600080fd5b81019080803590602001909291905050506105aa565b6040518080602001828103825283818151815260200191508051906020019080838360005b838110156102145780820151818401526020810190506101f9565b50505050905090810190601f1680156102415780820380516001836020036101000a031916815260200191505b509250505060405180910390f35b6103126004803603604081101561026557600080fd5b810190808035906020019064010000000081111561028257600080fd5b82018360208201111561029457600080fd5b803590602001918460018302840111640100000000831117156102b657600080fd5b91908080601f016020809104026020016040519081016040528093929190818152602001838380828437600081840152601f19601f82011690508083019250505050505050919291929080359060200190929190505050610688565b6040518082815260200191505060405180910390f35b6103ff6004803603608081101561033e57600080fd5b8101908080359060200190929190803590602001909291908035906020019064010000000081111561036f57600080fd5b82018360208201111561038157600080fd5b803590602001918460018302840111640100000000831117156103a357600080fd5b91908080601f016020809104026020016040519081016040528093929190818152602001838380828437600081840152601f19601f82011690508083019250505050505050919291929080359060200190929190505050610719565b6040518082815260200191505060405180910390f35b6104416004803603602081101561042b57600080fd5b8101908080359060200190929190505050610731565b604051808215151515815260200191505060405180910390f35b6104876004803603602081101561047157600080fd5b810190808035906020019092919050505061074f565b6040518082815260200191505060405180910390f35b6104c9600480360360208110156104b357600080fd5b8101908080359060200190929190505050610794565b6040518082815260200191505060405180910390f35b6002818051602081018201805184825260208301602085012081835280955050505050506000915090505481565b60008060008084815260200190815260200160002054905060006001828154811061053457fe5b906000526020600020906004020190508481600201819055508060030160008154809291906001019190505581600301819055507f166e2330253d37480aba732992b9720da8871bbc0aa0902860d2fa6bb3c0c9ee826040518082815260200191505060405180910390a1819250505092915050565b606060008060008481526020019081526020016000205490506000600182815481106105d257fe5b90600052602060002090600402019050806000018054600181600116156101000203166002900480601f01602080910402602001604051908101604052809291908181526020018280546001816001161561010002031660029004801561067a5780601f1061064f5761010080835404028352916020019161067a565b820191906000526020600020905b81548152906001019060200180831161065d57829003601f168201915b505050505092505050919050565b60008161069481610731565b610706576040517f08c379a00000000000000000000000000000000000000000000000000000000081526004018080602001828103825260178152602001807f5573657220616c7265616479207265676973746572656400000000000000000081525060200191505060405180910390fd5b61071084846107ac565b91505092915050565b600061072785858585610964565b9050949350505050565b60008060008084815260200190815260200160002054149050919050565b60008060008084815260200190815260200160002054905060006001828154811061077657fe5b90600052602060002090600402019050806002015492505050919050565b60006020528060005260406000206000915090505481565b600080600080848152602001908152602001600020549050600081146107d157600080fd5b600180549050600080858152602001908152602001600020819055506000600180548091906001016108039190610c3e565b905060405180608001604052808681526020018581526020016001815260200160008152506001828154811061083557fe5b9060005260206000209060040201600082015181600001908051906020019061085f929190610c70565b506020820151816001015560408201518160020155606082015181600301559050507f23bf3c3382eca35efcabbb4d1accad8939015a59d506e31e3df91c52840bdcb5856040518080602001828103825283818151815260200191508051906020019080838360005b838110156108e35780820151818401526020810190506108c8565b50505050905090810190601f1680156109105780820380516001836020036101000a031916815260200191505b509250505060405180910390a17fcc21b0efbc250b64650c3b8471125011264361ab421b7adca1f3cb7a0eedb8dc6000604051808215151515815260200191505060405180910390a1809250505092915050565b6000606061097b6109758487610b8f565b87610bc1565b905060006002826040518082805190602001908083835b602083106109b55780518252602082019150602081019050602083039250610992565b6001836020036101000a0380198251168184511680821785525050505050509050019150509081526020016040518091039020549050600081146109f857600080fd5b6003805490506002836040518082805190602001908083835b60208310610a345780518252602082019150602081019050602083039250610a11565b6001836020036101000a038019825116818451168082178552505050505050905001915050908152602001604051809103902081905550600060038054809190600101610a819190610cf0565b90506040518060c00160405280898152602001888152602001878152602001600081526020016000815260200160006002811115610abb57fe5b81525060038281548110610acb57fe5b906000526020600020906006020160008201518160000155602082015181600101556040820151816002019080519060200190610b09929190610c70565b50606082015181600301556080820151816004015560a08201518160050160006101000a81548160ff02191690836002811115610b4257fe5b02179055509050507f4d777f60d952db1e3dfea06728df320f7aa655f4414c8b3cbf51c9acebfc36ca816040518082815260200191505060405180910390a1809350505050949350505050565b606082826040516020018083815260200182815260200192505050604051602081830303815290604052905092915050565b606082826040516020018083805190602001908083835b60208310610bfb5780518252602082019150602081019050602083039250610bd8565b6001836020036101000a03801982511681845116808217855250505050505090500182815260200192505050604051602081830303815290604052905092915050565b815481835581811115610c6b57600402816004028360005260206000209182019101610c6a9190610d22565b5b505050565b828054600181600116156101000203166002900490600052602060002090601f016020900481019282601f10610cb157805160ff1916838001178555610cdf565b82800160010185558215610cdf579182015b82811115610cde578251825591602001919060010190610cc3565b5b509050610cec9190610d69565b5090565b815481835581811115610d1d57600602816006028360005260206000209182019101610d1c9190610d8e565b5b505050565b610d6691905b80821115610d625760008082016000610d419190610df1565b60018201600090556002820160009055600382016000905550600401610d28565b5090565b90565b610d8b91905b80821115610d87576000816000905550600101610d6f565b5090565b90565b610dee91905b80821115610dea576000808201600090556001820160009055600282016000610dbd9190610df1565b600382016000905560048201600090556005820160006101000a81549060ff021916905550600601610d94565b5090565b90565b50805460018160011615610100020316600290046000825580601f10610e175750610e36565b601f016020900490600052602060002090810190610e359190610d69565b5b5056fea165627a7a7230582086d80b5f6847bb7c15d590eab89ce1bfbfde1df144b598cace4ab55e027c8a930029",
  "source": "pragma solidity ^0.5.0;\r\n\r\nimport \"./UserManager.sol\";\r\nimport \"./ConcatHelper.sol\";\r\n\r\ncontract CommentManager is UserManager {\r\n  //library to concat bytes\r\n  using ConcatHelper for bytes;\r\n\r\n  // indicate the status of the comment\r\n  enum Stat{Pending, Accepted, Rejected}\r\n\r\n  //struct with the basic comment information\r\n  struct Comment {\r\n    // author of the comment\r\n    bytes32 author;\r\n    //comment title\r\n    bytes32 title;\r\n    // content of the comment\r\n    string content;\r\n    // number of positive vote received\r\n    uint numPosRecVote;\r\n    // number of negative vote received\r\n    uint numNegRecVote;\r\n    // the status of the comment\r\n    Stat stat;\r\n  }\r\n\r\n  // map with key= 'commentId'+'comment_title' and value a number\r\n  mapping(bytes => uint) public commentIds;\r\n\r\n  //Array of comment\r\n  Comment[] comments;\r\n\r\n  // event fired when an comment is registered\r\n  event newCommentRegistered(uint id);\r\n\r\n  constructor() public{\r\n    // NOTE: the first comment and participant MUST be emtpy:\r\n    // if you are trying to access to an element\r\n    // of the commentIds mapping that does not exist you will\r\n    // receive 0, that's why in the first position (with index 0) must be initialized\r\n    addComment(\"\", \"\", \"\", \"\");\r\n  }\r\n  /**\r\n    * Function to register a new comment.\r\n    *\r\n    * @param _author the address of the author\r\n    * @param _title title of the comment\r\n    * @param _content the content of the comment\r\n   */\r\n  function registerComment(\r\n    bytes32 _author,\r\n    bytes32 _title,\r\n    string memory _content,\r\n    bytes32 _discussionTitle)\r\n  public returns (uint) {\r\n    return addComment(_author, _title, _content, _discussionTitle);\r\n  }\r\n\r\n  /**\r\n  * Add a new comment. This function must be private because an user\r\n  * cannot insert other information about comment and participant\r\n  *\r\n  * @param _author author of the comment\r\n  * @param _commentTitle title of the comment\r\n  * @param _content content of comment\r\n  */\r\n  function addComment(\r\n    bytes32 _author,\r\n    bytes32 _commentTitle,\r\n    string memory _content,\r\n    bytes32 _discussionTitle)\r\n  private returns (uint) {\r\n    bytes memory _commentKey = ConcatHelper.concat2(ConcatHelper.concat(_discussionTitle, _commentTitle), _author);\r\n    // checking if the comment is already registered\r\n    uint commentId = commentIds[_commentKey];\r\n    require(commentId == 0);\r\n    // associating the title of comment with the new ID\r\n    commentIds[_commentKey] = comments.length;\r\n    uint newCommentId = comments.length++;\r\n    // storing the new user details\r\n    comments[newCommentId] = Comment({\r\n      author : _author,\r\n      title : _commentTitle,\r\n      content : _content,\r\n      numPosRecVote : 0,\r\n      numNegRecVote : 0,\r\n      stat : Stat.Pending\r\n      });\r\n    // emitting the event that a new user has been registered\r\n    emit newCommentRegistered(newCommentId);\r\n    return newCommentId;\r\n  }\r\n}\r\n",
  "sourcePath": "C:\\Users\\Giulia\\IdeaProjects\\BlockArt_Project\\block-art\\blockart-blockchain\\contracts\\CommentManager.sol",
  "compiler": {
    "name": "solc",
    "version": "0.5.8+commit.23d335f2.Emscripten.clang"
  },
  "schemaVersion": "3.0.13",
  "updatedAt": "2019-09-11T20:36:13.759Z",
  "devdoc": {
    "methods": {
      "getName(bytes32)": {
        "params": {
          "_address": "of caller of the function\r"
        }
      },
      "getReputation(bytes32)": {
        "params": {
          "_address": "of caller of the function\r"
        }
      },
      "isNotRegistered(bytes32)": {
        "params": {
          "_address": "address of the user\r"
        }
      },
      "registerComment(bytes32,bytes32,string,bytes32)": {
        "params": {
          "_author": "the address of the author\r",
          "_content": "the content of the comment\r",
          "_title": "title of the comment\r"
        }
      },
      "registerUser(string,bytes32)": {
        "params": {
          "_username": "The displaying name*\r"
        }
      },
      "updateReputaion(uint256,bytes32)": {
        "params": {
          "_address": "of the updated profile\r",
          "_newEvaluation": "The new user's displaying name\r"
        }
      }
    }
  },
  "userdoc": {
    "methods": {
      "getName(bytes32)": {
        "notice": "Return string with name of function's caller\r"
      },
      "getReputation(bytes32)": {
        "notice": "Return uint256 with reputation value of function's caller\r"
      },
      "isNotRegistered(bytes32)": {
        "notice": "Check if the user that is calling the smart contract is registered.\r"
      },
      "registerComment(bytes32,bytes32,string,bytes32)": {
        "notice": "Function to register a new comment.\r "
      },
      "registerUser(string,bytes32)": {
        "notice": "Function to register a new user.\r "
      },
      "updateReputaion(uint256,bytes32)": {
        "notice": "Update the evaluation of the user calling this method.\r Note: only the evaluation has been validate profile is update.\r "
      }
    }
  }
}