{
  "contractName": "DiscussionManager",
  "abi": [
    {
      "constant": true,
      "inputs": [
        {
          "name": "",
          "type": "bytes"
        }
      ],
      "name": "commentIds",
      "outputs": [
        {
          "name": "",
          "type": "uint256"
        }
      ],
      "payable": false,
      "stateMutability": "view",
      "type": "function"
    },
    {
      "constant": true,
      "inputs": [
        {
          "name": "",
          "type": "bytes"
        }
      ],
      "name": "participantIds",
      "outputs": [
        {
          "name": "",
          "type": "uint256"
        }
      ],
      "payable": false,
      "stateMutability": "view",
      "type": "function"
    },
    {
      "constant": false,
      "inputs": [
        {
          "name": "_newEvaluation",
          "type": "uint256"
        },
        {
          "name": "_address",
          "type": "bytes32"
        }
      ],
      "name": "updateReputaion",
      "outputs": [
        {
          "name": "",
          "type": "uint256"
        }
      ],
      "payable": false,
      "stateMutability": "nonpayable",
      "type": "function"
    },
    {
      "constant": true,
      "inputs": [
        {
          "name": "_address",
          "type": "bytes32"
        }
      ],
      "name": "getName",
      "outputs": [
        {
          "name": "",
          "type": "string"
        }
      ],
      "payable": false,
      "stateMutability": "view",
      "type": "function"
    },
    {
      "constant": false,
      "inputs": [
        {
          "name": "_username",
          "type": "string"
        },
        {
          "name": "_address",
          "type": "bytes32"
        }
      ],
      "name": "registerUser",
      "outputs": [
        {
          "name": "",
          "type": "uint256"
        }
      ],
      "payable": false,
      "stateMutability": "nonpayable",
      "type": "function"
    },
    {
      "constant": false,
      "inputs": [
        {
          "name": "_author",
          "type": "bytes32"
        },
        {
          "name": "_title",
          "type": "bytes32"
        },
        {
          "name": "_content",
          "type": "string"
        },
        {
          "name": "_discussionTitle",
          "type": "bytes32"
        }
      ],
      "name": "registerComment",
      "outputs": [
        {
          "name": "",
          "type": "uint256"
        }
      ],
      "payable": false,
      "stateMutability": "nonpayable",
      "type": "function"
    },
    {
      "constant": true,
      "inputs": [
        {
          "name": "_address",
          "type": "bytes32"
        }
      ],
      "name": "isNotRegistered",
      "outputs": [
        {
          "name": "",
          "type": "bool"
        }
      ],
      "payable": false,
      "stateMutability": "view",
      "type": "function"
    },
    {
      "constant": true,
      "inputs": [
        {
          "name": "_address",
          "type": "bytes32"
        }
      ],
      "name": "getReputation",
      "outputs": [
        {
          "name": "",
          "type": "uint256"
        }
      ],
      "payable": false,
      "stateMutability": "view",
      "type": "function"
    },
    {
      "constant": false,
      "inputs": [
        {
          "name": "_addressPar",
          "type": "bytes32"
        },
        {
          "name": "_discussionTitle",
          "type": "bytes32"
        }
      ],
      "name": "registerParticipant",
      "outputs": [
        {
          "name": "",
          "type": "uint256"
        }
      ],
      "payable": false,
      "stateMutability": "nonpayable",
      "type": "function"
    },
    {
      "constant": true,
      "inputs": [
        {
          "name": "",
          "type": "string"
        }
      ],
      "name": "discussionIds",
      "outputs": [
        {
          "name": "",
          "type": "uint256"
        }
      ],
      "payable": false,
      "stateMutability": "view",
      "type": "function"
    },
    {
      "constant": true,
      "inputs": [
        {
          "name": "",
          "type": "bytes32"
        }
      ],
      "name": "usersIds",
      "outputs": [
        {
          "name": "",
          "type": "uint256"
        }
      ],
      "payable": false,
      "stateMutability": "view",
      "type": "function"
    },
    {
      "inputs": [],
      "payable": false,
      "stateMutability": "nonpayable",
      "type": "constructor"
    },
    {
      "anonymous": false,
      "inputs": [
        {
          "indexed": false,
          "name": "title",
          "type": "string"
        }
      ],
      "name": "newDiscussionRegistered",
      "type": "event"
    },
    {
      "anonymous": false,
      "inputs": [
        {
          "indexed": false,
          "name": "id",
          "type": "uint256"
        }
      ],
      "name": "newParticipantRegistered",
      "type": "event"
    },
    {
      "anonymous": false,
      "inputs": [
        {
          "indexed": false,
          "name": "id",
          "type": "uint256"
        }
      ],
      "name": "newCommentRegistered",
      "type": "event"
    },
    {
      "anonymous": false,
      "inputs": [
        {
          "indexed": false,
          "name": "username",
          "type": "string"
        }
      ],
      "name": "newUserRegistered",
      "type": "event"
    },
    {
      "anonymous": false,
      "inputs": [
        {
          "indexed": false,
          "name": "isNotregistered",
          "type": "bool"
        }
      ],
      "name": "isNotRegisteredEvent",
      "type": "event"
    },
    {
      "anonymous": false,
      "inputs": [
        {
          "indexed": false,
          "name": "id",
          "type": "uint256"
        }
      ],
      "name": "userUpdateRepEvent",
      "type": "event"
    },
    {
      "constant": false,
      "inputs": [
        {
          "name": "_title",
          "type": "string"
        },
        {
          "name": "_initiator",
          "type": "bytes32"
        }
      ],
      "name": "registerDiscussion",
      "outputs": [
        {
          "name": "",
          "type": "uint256"
        }
      ],
      "payable": false,
      "stateMutability": "nonpayable",
      "type": "function"
    },
    {
      "constant": true,
      "inputs": [
        {
          "name": "_id",
          "type": "uint256"
        }
      ],
      "name": "getDiscussions",
      "outputs": [
        {
          "name": "",
          "type": "string"
        },
        {
          "name": "",
          "type": "bytes32"
        },
        {
          "name": "",
          "type": "bytes"
        }
      ],
      "payable": false,
      "stateMutability": "view",
      "type": "function"
    },
    {
      "constant": true,
      "inputs": [],
      "name": "getNumDiscussion",
      "outputs": [
        {
          "name": "",
          "type": "uint256"
        }
      ],
      "payable": false,
      "stateMutability": "view",
      "type": "function"
    }
  ],
  "bytecode": "0x60806040523480156200001157600080fd5b5062000053604051806020016040528060008152507f3078300000000000000000000000000000000000000000000000000000000000620001ef60201b60201c565b50620000bb6040518060400160405280600a81526020017f4c656f6e2042726f776e000000000000000000000000000000000000000000008152507f3078333333333333333333333333000000000000000000000000000000000000620001ef60201b60201c565b50620001236040518060400160405280600a81526020017f4a6f686e20446f656e74000000000000000000000000000000000000000000008152507f3078313131313131313131313131000000000000000000000000000000000000620001ef60201b60201c565b506200018b6040518060400160405280600a81526020017f4d61727920536d697468000000000000000000000000000000000000000000008152507f3078323232323232323232323232000000000000000000000000000000000000620001ef60201b60201c565b50620001b16000806040518060200160405280600081525060006200034860201b60201c565b50620001c56000806200050560201b60201c565b50620001e86040518060200160405280600081525060006200065060201b60201c565b5062000eec565b600080600080848152602001908152602001600020549050600081146200021557600080fd5b6001805490506000808581526020019081526020016000208190555060006001805480919060010162000249919062000860565b90506040518060800160405280868152602001858152602001600181526020016000815250600182815481106200027c57fe5b90600052602060002090600402016000820151816000019080519060200190620002a892919062000895565b506020820151816001015560408201518160020155606082015181600301559050507f23bf3c3382eca35efcabbb4d1accad8939015a59d506e31e3df91c52840bdcb585604051620002fb919062000dfd565b60405180910390a17fcc21b0efbc250b64650c3b8471125011264361ab421b7adca1f3cb7a0eedb8dc600060405162000335919062000de0565b60405180910390a1809250505092915050565b60006060620003796200036784876200080460201b62000dd31760201c565b876200083260201b62000dff1760201c565b905060006002826040516200038f919062000d82565b908152602001604051809103902054905060008114620003ae57600080fd5b600380549050600283604051620003c6919062000d82565b908152602001604051809103902081905550600060038054809190600101620003f091906200091c565b90506040518060c001604052808981526020018881526020018781526020016000815260200160008152602001600060028111156200042b57fe5b815250600382815481106200043c57fe5b9060005260206000209060060201600082015181600001556020820151816001015560408201518160020190805190602001906200047c92919062000895565b50606082015181600301556080820151816004015560a08201518160050160006101000a81548160ff02191690836002811115620004b657fe5b02179055509050507f4d777f60d952db1e3dfea06728df320f7aa655f4414c8b3cbf51c9acebfc36ca81604051620004ef919062000e21565b60405180910390a1809350505050949350505050565b600060606200052083856200080460201b62000dd31760201c565b9050600060048260405162000536919062000d82565b9081526020016040518091039020549050600081146200055557600080fd5b6005805490506004836040516200056d919062000d82565b90815260200160405180910390208190555060006005805480919060010162000597919062000951565b90506040518060600160405280878152602001600581526020016000151581525060058281548110620005c657fe5b9060005260206000209060030201600082015181600001556020820151816001015560408201518160020160006101000a81548160ff0219169083151502179055509050507f0f3d9e09584c5cc0d847a43722261995cfd30f4fe38460638362152b7771e68a816040516200063c919062000e21565b60405180910390a180935050505092915050565b60008060068460405162000665919062000dc7565b9081526020016040518091039020549050600081146200068457600080fd5b6007805490506006856040516200069c919062000dc7565b908152602001604051809103902081905550600060078054809190600101620006c6919062000986565b9050606062000701857f546869732069732074686520666972737420636f6d6d656e74000000000000006200080460201b62000dd31760201c565b90506040518060a001604052808781526020018681526020016000151581526020016001815260200182815250600783815481106200073c57fe5b906000526020600020906005020160008201518160000190805190602001906200076892919062000895565b506020820151816001015560408201518160020160006101000a81548160ff021916908315150217905550606082015181600301556080820151816004019080519060200190620007bb929190620009bb565b509050507ff1f487efd6e0882b6e6a87a19c71ede392d1aecb86e6f393b849cec7a036723686604051620007f0919062000dfd565b60405180910390a181935050505092915050565b606082826040516020016200081b92919062000d52565b604051602081830303815290604052905092915050565b606082826040516020016200084992919062000d9b565b604051602081830303815290604052905092915050565b81548183558181111562000890576004028160040283600052602060002091820191016200088f919062000a42565b5b505050565b828054600181600116156101000203166002900490600052602060002090601f016020900481019282601f10620008d857805160ff191683800117855562000909565b8280016001018555821562000909579182015b8281111562000908578251825591602001919060010190620008eb565b5b50905062000918919062000a8e565b5090565b8154818355818111156200094c576006028160060283600052602060002091820191016200094b919062000ab6565b5b505050565b815481835581811115620009815760030281600302836000526020600020918201910162000980919062000b1e565b5b505050565b815481835581811115620009b657600502816005028360005260206000209182019101620009b5919062000b64565b5b505050565b828054600181600116156101000203166002900490600052602060002090601f016020900481019282601f10620009fe57805160ff191683800117855562000a2f565b8280016001018555821562000a2f579182015b8281111562000a2e57825182559160200191906001019062000a11565b5b50905062000a3e919062000a8e565b5090565b62000a8b91905b8082111562000a87576000808201600062000a65919062000bce565b6001820160009055600282016000905560038201600090555060040162000a49565b5090565b90565b62000ab391905b8082111562000aaf57600081600090555060010162000a95565b5090565b90565b62000b1b91905b8082111562000b1757600080820160009055600182016000905560028201600062000ae9919062000bce565b600382016000905560048201600090556005820160006101000a81549060ff02191690555060060162000abd565b5090565b90565b62000b6191905b8082111562000b5d5760008082016000905560018201600090556002820160006101000a81549060ff02191690555060030162000b25565b5090565b90565b62000bcb91905b8082111562000bc7576000808201600062000b87919062000bce565b60018201600090556002820160006101000a81549060ff0219169055600382016000905560048201600062000bbd919062000c1a565b5060050162000b6b565b5090565b90565b50805460018160011615610100020316600290046000825580601f1062000bf6575062000c17565b601f01602090049060005260206000209081019062000c16919062000a8e565b5b50565b50805460018160011615610100020316600290046000825580601f1062000c42575062000c63565b601f01602090049060005260206000209081019062000c62919062000a8e565b5b50565b62000c718162000e7b565b82525050565b62000c8c62000c868262000e87565b62000ed1565b82525050565b600062000c9f8262000e3e565b62000cab818562000e54565b935062000cbd81856020860162000e9b565b80840191505092915050565b600062000cd68262000e49565b62000ce2818562000e5f565b935062000cf481856020860162000e9b565b62000cff8162000edb565b840191505092915050565b600062000d178262000e49565b62000d23818562000e70565b935062000d3581856020860162000e9b565b80840191505092915050565b62000d4c8162000e91565b82525050565b600062000d60828562000c77565b60208201915062000d72828462000c77565b6020820191508190509392505050565b600062000d90828462000c92565b915081905092915050565b600062000da9828562000c92565b915062000db7828462000c77565b6020820191508190509392505050565b600062000dd5828462000d0a565b915081905092915050565b600060208201905062000df7600083018462000c66565b92915050565b6000602082019050818103600083015262000e19818462000cc9565b905092915050565b600060208201905062000e38600083018462000d41565b92915050565b600081519050919050565b600081519050919050565b600081905092915050565b600082825260208201905092915050565b600081905092915050565b60008115159050919050565b6000819050919050565b6000819050919050565b60005b8381101562000ebb57808201518184015260208101905062000e9e565b8381111562000ecb576000848401525b50505050565b6000819050919050565b6000601f19601f8301169050919050565b6119b48062000efc6000396000f3fe608060405234801561001057600080fd5b50600436106100ea5760003560e01c80637898ac9d1161008c578063d14519d211610066578063d14519d2146102bf578063d179859c146102ef578063e682580c1461031f578063ed272f721461034f576100ea565b80637898ac9d1461022d5780639f0081081461025d578063b0fc18751461028f576100ea565b806354b8d5e3116100c857806354b8d5e31461017f5780635c14fe18146101af57806368ae5563146101df5780636fd185541461020f576100ea565b806311902934146100ef578063170479b01461011f5780632e2ca08c1461014f575b600080fd5b610109600480360361010491908101906113fe565b61037f565b60405161011691906117b5565b60405180910390f35b610139600480360361013491908101906113fe565b6103ad565b60405161014691906117b5565b60405180910390f35b610169600480360361016491908101906114fd565b6103db565b60405161017691906117b5565b60405180910390f35b6101996004803603610194919081019061131e565b610478565b6040516101a6919061172e565b60405180910390f35b6101c960048036036101c49190810190611480565b610556565b6040516101d691906117b5565b60405180910390f35b6101f960048036036101f49190810190611480565b61056a565b60405161020691906117b5565b60405180910390f35b6102176105c8565b60405161022491906117b5565b60405180910390f35b61024760048036036102429190810190611383565b6105d5565b60405161025491906117b5565b60405180910390f35b610277600480360361027291908101906114d4565b6105ed565b60405161028693929190611750565b60405180910390f35b6102a960048036036102a4919081019061131e565b610765565b6040516102b69190611713565b60405180910390f35b6102d960048036036102d4919081019061131e565b610783565b6040516102e691906117b5565b60405180910390f35b61030960048036036103049190810190611347565b6107c8565b60405161031691906117b5565b60405180910390f35b6103396004803603610334919081019061143f565b6107dc565b60405161034691906117b5565b60405180910390f35b6103696004803603610364919081019061131e565b61080a565b60405161037691906117b5565b60405180910390f35b6002818051602081018201805184825260208301602085012081835280955050505050506000915090505481565b6004818051602081018201805184825260208301602085012081835280955050505050506000915090505481565b60008060008084815260200190815260200160002054905060006001828154811061040257fe5b906000526020600020906004020190508481600201819055508060030160008154809291906001019190505581600301819055507f166e2330253d37480aba732992b9720da8871bbc0aa0902860d2fa6bb3c0c9ee8260405161046591906117b5565b60405180910390a1819250505092915050565b606060008060008481526020019081526020016000205490506000600182815481106104a057fe5b90600052602060002090600402019050806000018054600181600116156101000203166002900480601f0160208091040260200160405190810160405280929190818152602001828054600181600116156101000203166002900480156105485780601f1061051d57610100808354040283529160200191610548565b820191906000526020600020905b81548152906001019060200180831161052b57829003601f168201915b505050505092505050919050565b60006105628383610822565b905092915050565b60008161057681610765565b6105b5576040517f08c379a00000000000000000000000000000000000000000000000000000000081526004016105ac90611795565b60405180910390fd5b6105bf84846109bb565b91505092915050565b6000600780549050905090565b60006105e385858585610b0a565b9050949350505050565b60606000606060006007858154811061060257fe5b9060005260206000209060050201905080600001816001015482600401828054600181600116156101000203166002900480601f0160208091040260200160405190810160405280929190818152602001828054600181600116156101000203166002900480156106b45780601f10610689576101008083540402835291602001916106b4565b820191906000526020600020905b81548152906001019060200180831161069757829003601f168201915b50505050509250808054600181600116156101000203166002900480601f0160208091040260200160405190810160405280929190818152602001828054600181600116156101000203166002900480156107505780601f1061072557610100808354040283529160200191610750565b820191906000526020600020905b81548152906001019060200180831161073357829003601f168201915b50505050509050935093509350509193909250565b60008060008084815260200190815260200160002054149050919050565b6000806000808481526020019081526020016000205490506000600182815481106107aa57fe5b90600052602060002090600402019050806002015492505050919050565b60006107d48383610c9f565b905092915050565b6006818051602081018201805184825260208301602085012081835280955050505050506000915090505481565b60006020528060005260406000206000915090505481565b60008060068460405161083591906116fc565b90815260200160405180910390205490506000811461085357600080fd5b60078054905060068560405161086991906116fc565b9081526020016040518091039020819055506000600780548091906001016108919190610e2b565b905060606108bf857f546869732069732074686520666972737420636f6d6d656e7400000000000000610dd3565b90506040518060a001604052808781526020018681526020016000151581526020016001815260200182815250600783815481106108f957fe5b90600052602060002090600502016000820151816000019080519060200190610923929190610e5d565b506020820151816001015560408201518160020160006101000a81548160ff021916908315150217905550606082015181600301556080820151816004019080519060200190610974929190610edd565b509050507ff1f487efd6e0882b6e6a87a19c71ede392d1aecb86e6f393b849cec7a0367236866040516109a7919061172e565b60405180910390a181935050505092915050565b600080600080848152602001908152602001600020549050600081146109e057600080fd5b60018054905060008085815260200190815260200160002081905550600060018054809190600101610a129190610f5d565b9050604051806080016040528086815260200185815260200160018152602001600081525060018281548110610a4457fe5b90600052602060002090600402016000820151816000019080519060200190610a6e929190610e5d565b506020820151816001015560408201518160020155606082015181600301559050507f23bf3c3382eca35efcabbb4d1accad8939015a59d506e31e3df91c52840bdcb585604051610abf919061172e565b60405180910390a17fcc21b0efbc250b64650c3b8471125011264361ab421b7adca1f3cb7a0eedb8dc6000604051610af79190611713565b60405180910390a1809250505092915050565b60006060610b21610b1b8487610dd3565b87610dff565b90506000600282604051610b3591906116bd565b908152602001604051809103902054905060008114610b5357600080fd5b600380549050600283604051610b6991906116bd565b908152602001604051809103902081905550600060038054809190600101610b919190610f8f565b90506040518060c00160405280898152602001888152602001878152602001600081526020016000815260200160006002811115610bcb57fe5b81525060038281548110610bdb57fe5b906000526020600020906006020160008201518160000155602082015181600101556040820151816002019080519060200190610c19929190610e5d565b50606082015181600301556080820151816004015560a08201518160050160006101000a81548160ff02191690836002811115610c5257fe5b02179055509050507f4d777f60d952db1e3dfea06728df320f7aa655f4414c8b3cbf51c9acebfc36ca81604051610c8991906117b5565b60405180910390a1809350505050949350505050565b60006060610cad8385610dd3565b90506000600482604051610cc191906116bd565b908152602001604051809103902054905060008114610cdf57600080fd5b600580549050600483604051610cf591906116bd565b908152602001604051809103902081905550600060058054809190600101610d1d9190610fc1565b90506040518060600160405280878152602001600581526020016000151581525060058281548110610d4b57fe5b9060005260206000209060030201600082015181600001556020820151816001015560408201518160020160006101000a81548160ff0219169083151502179055509050507f0f3d9e09584c5cc0d847a43722261995cfd30f4fe38460638362152b7771e68a81604051610dbf91906117b5565b60405180910390a180935050505092915050565b60608282604051602001610de8929190611691565b604051602081830303815290604052905092915050565b60608282604051602001610e149291906116d4565b604051602081830303815290604052905092915050565b815481835581811115610e5857600502816005028360005260206000209182019101610e579190610ff3565b5b505050565b828054600181600116156101000203166002900490600052602060002090601f016020900481019282601f10610e9e57805160ff1916838001178555610ecc565b82800160010185558215610ecc579182015b82811115610ecb578251825591602001919060010190610eb0565b5b509050610ed99190611056565b5090565b828054600181600116156101000203166002900490600052602060002090601f016020900481019282601f10610f1e57805160ff1916838001178555610f4c565b82800160010185558215610f4c579182015b82811115610f4b578251825591602001919060010190610f30565b5b509050610f599190611056565b5090565b815481835581811115610f8a57600402816004028360005260206000209182019101610f89919061107b565b5b505050565b815481835581811115610fbc57600602816006028360005260206000209182019101610fbb91906110c2565b5b505050565b815481835581811115610fee57600302816003028360005260206000209182019101610fed9190611125565b5b505050565b61105391905b8082111561104f57600080820160006110129190611168565b60018201600090556002820160006101000a81549060ff0219169055600382016000905560048201600061104691906111b0565b50600501610ff9565b5090565b90565b61107891905b8082111561107457600081600090555060010161105c565b5090565b90565b6110bf91905b808211156110bb576000808201600061109a9190611168565b60018201600090556002820160009055600382016000905550600401611081565b5090565b90565b61112291905b8082111561111e5760008082016000905560018201600090556002820160006110f19190611168565b600382016000905560048201600090556005820160006101000a81549060ff0219169055506006016110c8565b5090565b90565b61116591905b808211156111615760008082016000905560018201600090556002820160006101000a81549060ff02191690555060030161112b565b5090565b90565b50805460018160011615610100020316600290046000825580601f1061118e57506111ad565b601f0160209004906000526020600020908101906111ac9190611056565b5b50565b50805460018160011615610100020316600290046000825580601f106111d657506111f5565b601f0160209004906000526020600020908101906111f49190611056565b5b50565b6000813590506112078161194c565b92915050565b600082601f83011261121e57600080fd5b813561123161122c826117fd565b6117d0565b9150808252602083016020830185838301111561124d57600080fd5b6112588382846118ef565b50505092915050565b600082601f83011261127257600080fd5b813561128561128082611829565b6117d0565b915080825260208301602083018583830111156112a157600080fd5b6112ac8382846118ef565b50505092915050565b600082601f8301126112c657600080fd5b81356112d96112d482611855565b6117d0565b915080825260208301602083018583830111156112f557600080fd5b6113008382846118ef565b50505092915050565b60008135905061131881611963565b92915050565b60006020828403121561133057600080fd5b600061133e848285016111f8565b91505092915050565b6000806040838503121561135a57600080fd5b6000611368858286016111f8565b9250506020611379858286016111f8565b9150509250929050565b6000806000806080858703121561139957600080fd5b60006113a7878288016111f8565b94505060206113b8878288016111f8565b935050604085013567ffffffffffffffff8111156113d557600080fd5b6113e1878288016112b5565b92505060606113f2878288016111f8565b91505092959194509250565b60006020828403121561141057600080fd5b600082013567ffffffffffffffff81111561142a57600080fd5b6114368482850161120d565b91505092915050565b60006020828403121561145157600080fd5b600082013567ffffffffffffffff81111561146b57600080fd5b61147784828501611261565b91505092915050565b6000806040838503121561149357600080fd5b600083013567ffffffffffffffff8111156114ad57600080fd5b6114b9858286016112b5565b92505060206114ca858286016111f8565b9150509250929050565b6000602082840312156114e657600080fd5b60006114f484828501611309565b91505092915050565b6000806040838503121561151057600080fd5b600061151e85828601611309565b925050602061152f858286016111f8565b9150509250929050565b611542816118cf565b82525050565b611551816118db565b82525050565b611568611563826118db565b611931565b82525050565b600061157982611881565b6115838185611897565b93506115938185602086016118fe565b61159c8161193b565b840191505092915050565b60006115b282611881565b6115bc81856118a8565b93506115cc8185602086016118fe565b80840191505092915050565b60006115e38261188c565b6115ed81856118b3565b93506115fd8185602086016118fe565b6116068161193b565b840191505092915050565b600061161c8261188c565b61162681856118c4565b93506116368185602086016118fe565b80840191505092915050565b600061164f6017836118b3565b91507f5573657220616c726561647920726567697374657265640000000000000000006000830152602082019050919050565b61168b816118e5565b82525050565b600061169d8285611557565b6020820191506116ad8284611557565b6020820191508190509392505050565b60006116c982846115a7565b915081905092915050565b60006116e082856115a7565b91506116ec8284611557565b6020820191508190509392505050565b60006117088284611611565b915081905092915050565b60006020820190506117286000830184611539565b92915050565b6000602082019050818103600083015261174881846115d8565b905092915050565b6000606082019050818103600083015261176a81866115d8565b90506117796020830185611548565b818103604083015261178b818461156e565b9050949350505050565b600060208201905081810360008301526117ae81611642565b9050919050565b60006020820190506117ca6000830184611682565b92915050565b6000604051905081810181811067ffffffffffffffff821117156117f357600080fd5b8060405250919050565b600067ffffffffffffffff82111561181457600080fd5b601f19601f8301169050602081019050919050565b600067ffffffffffffffff82111561184057600080fd5b601f19601f8301169050602081019050919050565b600067ffffffffffffffff82111561186c57600080fd5b601f19601f8301169050602081019050919050565b600081519050919050565b600081519050919050565b600082825260208201905092915050565b600081905092915050565b600082825260208201905092915050565b600081905092915050565b60008115159050919050565b6000819050919050565b6000819050919050565b82818337600083830152505050565b60005b8381101561191c578082015181840152602081019050611901565b8381111561192b576000848401525b50505050565b6000819050919050565b6000601f19601f8301169050919050565b611955816118db565b811461196057600080fd5b50565b61196c816118e5565b811461197757600080fd5b5056fea265627a7a72305820a31b547252001a0b79b8569a5a082a177da35316c6e70cc97f2a6a3cfca06cb66c6578706572696d656e74616cf50037",
  "source": "pragma solidity ^0.5.0;\r\npragma experimental ABIEncoderV2;\r\n\r\nimport \"./ConcatHelper.sol\";\r\nimport \"./UserManager.sol\";\r\nimport \"./CommentManager.sol\";\r\nimport \"./ParticipantManager.sol\";\r\n\r\ncontract DiscussionManager is UserManager, CommentManager, ParticipantManager {\r\n  //library to concat bytes\r\n  using ConcatHelper for bytes;\r\n\r\n\r\n  //struct with the basic discussion information\r\n  struct Discussion {\r\n    // title of the discussion topic\r\n    string title;\r\n    // initiator of the discussion\r\n    bytes32 initiator;\r\n    // the discussion is private or not\r\n    bool isPrivate;\r\n    // moderator reputation level\r\n    uint moderatorLev;\r\n    // array of commentIDS\r\n    bytes disComment;\r\n  }\r\n\r\n  // UserManager um;\r\n\r\n  //map with key user_address and value a number\r\n  mapping(string => uint) public discussionIds;\r\n\r\n  // Array of User that participate to discussions\r\n  Discussion[] discussions;\r\n\r\n  // event fired when an discussion is registered\r\n  event newDiscussionRegistered(string title);\r\n\r\n  constructor() public{\r\n    // NOTE: the first discussion and participant MUST be emtpy:\r\n    // if you are trying to access to an element\r\n    // of the discussionIds mapping that does not exist you will\r\n    // receive 0, that's why in the first position (with index 0) must be initialized\r\n    addDiscussion(\"\", \"\");\r\n    //addParticipant(\"\", 0, false);\r\n    // um = UserManager(msg.sender);\r\n  }\r\n  /**\r\n  * Function to register a new discussion.\r\n  *\r\n  * @param _title The displaying title\r\n  * @param _initiator The initiator address\r\n  */\r\n  function registerDiscussion(\r\n    string memory _title,\r\n    bytes32 _initiator)\r\n  public returns (uint) {\r\n    return addDiscussion(_title, _initiator);\r\n  }\r\n\r\n  /**\r\n  * Add a new discussion. This function must be private because an user\r\n  * cannot insert other information about comment and participant\r\n  *\r\n  * @param _title title of discussion\r\n  * @param _initiator address of initiator of discussion\r\n  */\r\n  function addDiscussion(\r\n    string memory _title,\r\n    bytes32 _initiator)\r\n  private returns (uint) {\r\n    // checking if the discussion is already registered\r\n    uint discussionId = discussionIds[_title];\r\n    require(discussionId == 0);\r\n    // associating the title of discussion with the new ID\r\n    discussionIds[_title] = discussions.length;\r\n    uint newDiscussionId = discussions.length++;\r\n    bytes memory _disComment = ConcatHelper.concat(_initiator, 'This is the first comment');\r\n    // storing the new user details\r\n    discussions[newDiscussionId] = Discussion({\r\n      title : _title,\r\n      initiator : _initiator,\r\n      isPrivate : false,\r\n      moderatorLev : 1,\r\n      //new bytes32[] empty\r\n      //disComment : new bytes32[](0),\r\n      disComment : _disComment\r\n      });\r\n    // emitting the event that a new user has been registered\r\n    emit newDiscussionRegistered(_title);\r\n    return newDiscussionId;\r\n  }\r\n\r\n\r\n  function getDiscussions(uint _id) public view returns (string memory, bytes32, bytes memory){\r\n    Discussion storage discussion = discussions[_id];\r\n    //string memory initiator = getNameInitiator(discussion.initiator);\r\n    return (discussion.title, discussion.initiator, discussion.disComment);\r\n  }\r\n  /*\r\n  * return the number of discussion\r\n  */\r\n  function getNumDiscussion() public view returns (uint){\r\n    return discussions.length;\r\n  }\r\n  /*\r\n  function getNameInitiator(bytes32 _address) public view returns(string memory){\r\n    string memory username = um.getName(_address);\r\n    return username;\r\n  }*/\r\n}\r\n",
  "sourcePath": "C:/Users/Giulia/IdeaProjects/BlockArt_Project/block-art/blockart-blockchain/contracts/DiscussionManager.sol",
  "compiler": {
    "name": "solc",
    "version": "0.5.8+commit.23d335f2.Emscripten.clang"
  },
  "schemaVersion": "3.0.13",
  "updatedAt": "2019-09-11T20:36:07.660Z",
  "devdoc": {
    "methods": {
      "getName(bytes32)": {
        "params": {
          "_address": "of caller of the function\r"
        }
      },
      "getReputation(bytes32)": {
        "params": {
          "_address": "of caller of the function\r"
        }
      },
      "isNotRegistered(bytes32)": {
        "params": {
          "_address": "address of the user\r"
        }
      },
      "registerComment(bytes32,bytes32,string,bytes32)": {
        "params": {
          "_author": "the address of the author\r",
          "_content": "the content of the comment\r",
          "_title": "title of the comment\r"
        }
      },
      "registerDiscussion(string,bytes32)": {
        "params": {
          "_initiator": "The initiator address\r",
          "_title": "The displaying title\r"
        }
      },
      "registerParticipant(bytes32,bytes32)": {
        "params": {
          "_addressPar": "address of participant\r",
          "_discussionTitle": "Title of the discussion\r"
        }
      },
      "registerUser(string,bytes32)": {
        "params": {
          "_username": "The displaying name*\r"
        }
      },
      "updateReputaion(uint256,bytes32)": {
        "params": {
          "_address": "of the updated profile\r",
          "_newEvaluation": "The new user's displaying name\r"
        }
      }
    }
  },
  "userdoc": {
    "methods": {
      "getName(bytes32)": {
        "notice": "Return string with name of function's caller\r"
      },
      "getReputation(bytes32)": {
        "notice": "Return uint256 with reputation value of function's caller\r"
      },
      "isNotRegistered(bytes32)": {
        "notice": "Check if the user that is calling the smart contract is registered.\r"
      },
      "registerComment(bytes32,bytes32,string,bytes32)": {
        "notice": "Function to register a new comment.\r "
      },
      "registerDiscussion(string,bytes32)": {
        "notice": "Function to register a new discussion.\r "
      },
      "registerParticipant(bytes32,bytes32)": {
        "notice": "Function to register a new participant to the discussion.\r "
      },
      "registerUser(string,bytes32)": {
        "notice": "Function to register a new user.\r "
      },
      "updateReputaion(uint256,bytes32)": {
        "notice": "Update the evaluation of the user calling this method.\r Note: only the evaluation has been validate profile is update.\r "
      }
    }
  }
}