{
  "contractName": "DiscussionManager",
  "abi": [
    {
      "constant": true,
      "inputs": [
        {
          "name": "",
          "type": "bytes32"
        }
      ],
      "name": "discussionIds",
      "outputs": [
        {
          "name": "",
          "type": "uint256"
        }
      ],
      "payable": false,
      "stateMutability": "view",
      "type": "function"
    },
    {
      "inputs": [],
      "payable": false,
      "stateMutability": "nonpayable",
      "type": "constructor"
    },
    {
      "anonymous": false,
      "inputs": [
        {
          "indexed": false,
          "name": "title",
          "type": "bytes32"
        }
      ],
      "name": "newDiscussionRegistered",
      "type": "event"
    },
    {
      "constant": false,
      "inputs": [
        {
          "name": "_title",
          "type": "bytes32"
        },
        {
          "name": "_initiator",
          "type": "bytes32"
        }
      ],
      "name": "registerDiscussion",
      "outputs": [
        {
          "name": "",
          "type": "uint256"
        }
      ],
      "payable": false,
      "stateMutability": "nonpayable",
      "type": "function"
    },
    {
      "constant": true,
      "inputs": [
        {
          "name": "_id",
          "type": "uint256"
        }
      ],
      "name": "getDiscussions",
      "outputs": [
        {
          "name": "",
          "type": "bytes32"
        },
        {
          "name": "",
          "type": "bytes32"
        }
      ],
      "payable": false,
      "stateMutability": "view",
      "type": "function"
    },
    {
      "constant": true,
      "inputs": [],
      "name": "getNumDiscussion",
      "outputs": [
        {
          "name": "",
          "type": "uint256"
        }
      ],
      "payable": false,
      "stateMutability": "view",
      "type": "function"
    }
  ],
  "bytecode": "0x608060405234801561001057600080fd5b5061002260008061002860201b60201c565b506101f5565b6000806000808581526020019081526020016000205490506000811461004d57600080fd5b6001805490506000808681526020019081526020016000208190555060006001805480919060010161007f9190610144565b905060405180608001604052808681526020018581526020016000151581526020016001815250600182815481106100b357fe5b9060005260206000209060040201600082015181600001556020820151816001015560408201518160020160006101000a81548160ff021916908315150217905550606082015181600301559050507fe2449a71edd452d1a824a15f9fe9fe482da83a13ca7d147db40cf8eac3e0f1448560405161013191906101d0565b60405180910390a1819250505092915050565b815481835581811115610171576004028160040283600052602060002091820191016101709190610176565b5b505050565b6101be91905b808211156101ba5760008082016000905560018201600090556002820160006101000a81549060ff021916905560038201600090555060040161017c565b5090565b90565b6101ca816101eb565b82525050565b60006020820190506101e560008301846101c1565b92915050565b6000819050919050565b6104b9806102046000396000f3fe608060405234801561001057600080fd5b506004361061004c5760003560e01c80636fd18554146100515780637bb91ece1461006f5780639f0081081461009f578063a6e51cce146100d0575b600080fd5b610059610100565b6040516100669190610422565b60405180910390f35b6100896004803603610084919081019061035b565b61010d565b6040516100969190610422565b60405180910390f35b6100b960048036036100b49190810190610397565b610121565b6040516100c79291906103f9565b60405180910390f35b6100ea60048036036100e59190810190610332565b610157565b6040516100f79190610422565b60405180910390f35b6000600180549050905090565b6000610119838361016f565b905092915050565b60008060006001848154811061013357fe5b90600052602060002090600402019050806000015481600101549250925050915091565b60006020528060005260406000206000915090505481565b6000806000808581526020019081526020016000205490506000811461019457600080fd5b600180549050600080868152602001908152602001600020819055506000600180548091906001016101c6919061028b565b905060405180608001604052808681526020018581526020016000151581526020016001815250600182815481106101fa57fe5b9060005260206000209060040201600082015181600001556020820151816001015560408201518160020160006101000a81548160ff021916908315150217905550606082015181600301559050507fe2449a71edd452d1a824a15f9fe9fe482da83a13ca7d147db40cf8eac3e0f1448560405161027891906103de565b60405180910390a1819250505092915050565b8154818355818111156102b8576004028160040283600052602060002091820191016102b791906102bd565b5b505050565b61030591905b808211156103015760008082016000905560018201600090556002820160006101000a81549060ff02191690556003820160009055506004016102c3565b5090565b90565b60008135905061031781610451565b92915050565b60008135905061032c81610468565b92915050565b60006020828403121561034457600080fd5b600061035284828501610308565b91505092915050565b6000806040838503121561036e57600080fd5b600061037c85828601610308565b925050602061038d85828601610308565b9150509250929050565b6000602082840312156103a957600080fd5b60006103b78482850161031d565b91505092915050565b6103c98161043d565b82525050565b6103d881610447565b82525050565b60006020820190506103f360008301846103c0565b92915050565b600060408201905061040e60008301856103c0565b61041b60208301846103c0565b9392505050565b600060208201905061043760008301846103cf565b92915050565b6000819050919050565b6000819050919050565b61045a8161043d565b811461046557600080fd5b50565b61047181610447565b811461047c57600080fd5b5056fea265627a7a72305820ed87ce732ce5595963c57dc450ecc77cd4c84094f00c5cb133721a22c181c0276c6578706572696d656e74616cf50037",
  "source": "pragma solidity ^0.5.0;\r\npragma experimental ABIEncoderV2;\r\n\r\nimport \"./ConcatHelper.sol\";\r\nimport \"./UserManager.sol\";\r\nimport \"./CommentManager.sol\";\r\nimport \"./ParticipantManager.sol\";\r\n\r\ncontract DiscussionManager {\r\n  //library to concat bytes\r\n  using ConcatHelper for bytes;\r\n\r\n\r\n  //struct with the basic discussion information\r\n  struct Discussion {\r\n    // title of the discussion topic\r\n    bytes32 title;\r\n    // initiator of the discussion\r\n    bytes32 initiator;\r\n    // the discussion is private or not\r\n    bool isPrivate;\r\n    // moderator reputation level\r\n    uint moderatorLev;\r\n  }\r\n\r\n\r\n  // UserManager um;\r\n\r\n  //map with key user_address and value a number\r\n  mapping(bytes32 => uint) public discussionIds;\r\n\r\n  // Array of User that participate to discussions\r\n  Discussion[] discussions;\r\n\r\n  // event fired when an discussion is registered\r\n  event newDiscussionRegistered(bytes32 title);\r\n\r\n  constructor() public{\r\n    // NOTE: the first discussion and participant MUST be emtpy:\r\n    // if you are trying to access to an element\r\n    // of the discussionIds mapping that does not exist you will\r\n    // receive 0, that's why in the first position (with index 0) must be initialized\r\n    addDiscussion(\"\", \"\");\r\n    //addParticipant(\"\", 0, false);\r\n    // um = UserManager(msg.sender);\r\n  }\r\n  /**\r\n  * Function to register a new discussion.\r\n  *\r\n  * @param _title The displaying title\r\n  * @param _initiator The initiator address\r\n  */\r\n  function registerDiscussion(\r\n    bytes32 _title,\r\n    bytes32 _initiator)\r\n  public returns (uint) {\r\n    return addDiscussion(_title, _initiator);\r\n  }\r\n\r\n  /**\r\n  * Add a new discussion. This function must be private because an user\r\n  * cannot insert other information about comment and participant\r\n  *\r\n  * @param _title title of discussion\r\n  * @param _initiator address of initiator of discussion\r\n  */\r\n  function addDiscussion(\r\n    bytes32 _title,\r\n    bytes32 _initiator)\r\n  private returns (uint) {\r\n    // checking if the discussion is already registered\r\n    uint discussionId = discussionIds[_title];\r\n    require(discussionId == 0);\r\n    // associating the title of discussion with the new ID\r\n    discussionIds[_title] = discussions.length;\r\n    uint newDiscussionId = discussions.length++;\r\n    // storing the new user details\r\n\r\n    discussions[newDiscussionId] = Discussion({\r\n      title : _title,\r\n      initiator : _initiator,\r\n      isPrivate : false,\r\n      moderatorLev : 1\r\n      //new bytes32[] empty\r\n      //disComment : new bytes32[](0),\r\n      });\r\n    // emitting the event that a new user has been registered\r\n    emit newDiscussionRegistered(_title);\r\n    return discussionId;\r\n  }\r\n\r\n  function getDiscussions(uint _id) public view returns (bytes32, bytes32){\r\n    Discussion storage discussion = discussions[_id];\r\n    //string memory initiator = getNameInitiator(discussion.initiator);\r\n    return (discussion.title, discussion.initiator);\r\n  }\r\n\r\n  /*\r\n  * return the number of discussion\r\n  */\r\n  function getNumDiscussion() public view returns (uint){\r\n    return discussions.length;\r\n  }\r\n\r\n\r\n  /*\r\n  function getNameInitiator(bytes32 _address) public view returns(string memory){\r\n    string memory username = um.getName(_address);\r\n    return username;\r\n  }*/\r\n\r\n}\r\n",
  "sourcePath": "C:\\Users\\Giulia\\IdeaProjects\\BlockArt_Project\\block-art\\blockart-blockchain\\contracts\\DiscussionManager.sol",
  "compiler": {
    "name": "solc",
    "version": "0.5.8+commit.23d335f2.Emscripten.clang"
  },
  "schemaVersion": "3.0.13",
  "updatedAt": "2019-09-16T19:12:14.569Z",
  "devdoc": {
    "methods": {
      "registerDiscussion(bytes32,bytes32)": {
        "params": {
          "_initiator": "The initiator address\r",
          "_title": "The displaying title\r"
        }
      }
    }
  },
  "userdoc": {
    "methods": {
      "registerDiscussion(bytes32,bytes32)": {
        "notice": "Function to register a new discussion.\r "
      }
    }
  }
}