{
  "contractName": "DiscussionManager",
  "abi": [
    {
      "constant": true,
      "inputs": [
        {
          "name": "_id",
          "type": "uint256"
        }
      ],
      "name": "getComment",
      "outputs": [
        {
          "name": "",
          "type": "bytes32"
        },
        {
          "name": "",
          "type": "bytes32"
        },
        {
          "name": "",
          "type": "string"
        },
        {
          "name": "",
          "type": "uint256"
        },
        {
          "name": "",
          "type": "uint256"
        },
        {
          "name": "",
          "type": "bytes32"
        }
      ],
      "payable": false,
      "stateMutability": "view",
      "type": "function"
    },
    {
      "constant": true,
      "inputs": [
        {
          "name": "",
          "type": "bytes"
        }
      ],
      "name": "participantIds",
      "outputs": [
        {
          "name": "",
          "type": "uint256"
        }
      ],
      "payable": false,
      "stateMutability": "view",
      "type": "function"
    },
    {
      "constant": false,
      "inputs": [
        {
          "name": "_newEvaluation",
          "type": "uint256"
        },
        {
          "name": "_address",
          "type": "bytes32"
        }
      ],
      "name": "updateReputaion",
      "outputs": [
        {
          "name": "",
          "type": "uint256"
        }
      ],
      "payable": false,
      "stateMutability": "nonpayable",
      "type": "function"
    },
    {
      "constant": true,
      "inputs": [
        {
          "name": "",
          "type": "bytes32"
        }
      ],
      "name": "commentIds",
      "outputs": [
        {
          "name": "",
          "type": "uint256"
        }
      ],
      "payable": false,
      "stateMutability": "view",
      "type": "function"
    },
    {
      "constant": true,
      "inputs": [
        {
          "name": "_address",
          "type": "bytes32"
        }
      ],
      "name": "getName",
      "outputs": [
        {
          "name": "",
          "type": "string"
        }
      ],
      "payable": false,
      "stateMutability": "view",
      "type": "function"
    },
    {
      "constant": true,
      "inputs": [],
      "name": "getNumComments",
      "outputs": [
        {
          "name": "",
          "type": "uint256"
        }
      ],
      "payable": false,
      "stateMutability": "view",
      "type": "function"
    },
    {
      "constant": false,
      "inputs": [
        {
          "name": "_username",
          "type": "string"
        },
        {
          "name": "_address",
          "type": "bytes32"
        }
      ],
      "name": "registerUser",
      "outputs": [
        {
          "name": "",
          "type": "uint256"
        }
      ],
      "payable": false,
      "stateMutability": "nonpayable",
      "type": "function"
    },
    {
      "constant": false,
      "inputs": [
        {
          "name": "_author",
          "type": "bytes32"
        },
        {
          "name": "_title",
          "type": "bytes32"
        },
        {
          "name": "_content",
          "type": "string"
        },
        {
          "name": "_discussionTitle",
          "type": "bytes32"
        }
      ],
      "name": "registerComment",
      "outputs": [
        {
          "name": "",
          "type": "uint256"
        }
      ],
      "payable": false,
      "stateMutability": "nonpayable",
      "type": "function"
    },
    {
      "constant": true,
      "inputs": [
        {
          "name": "",
          "type": "bytes32"
        }
      ],
      "name": "discussionIds",
      "outputs": [
        {
          "name": "",
          "type": "uint256"
        }
      ],
      "payable": false,
      "stateMutability": "view",
      "type": "function"
    },
    {
      "constant": true,
      "inputs": [
        {
          "name": "_address",
          "type": "bytes32"
        }
      ],
      "name": "isNotRegistered",
      "outputs": [
        {
          "name": "",
          "type": "bool"
        }
      ],
      "payable": false,
      "stateMutability": "view",
      "type": "function"
    },
    {
      "constant": true,
      "inputs": [
        {
          "name": "_address",
          "type": "bytes32"
        }
      ],
      "name": "getReputation",
      "outputs": [
        {
          "name": "",
          "type": "uint256"
        }
      ],
      "payable": false,
      "stateMutability": "view",
      "type": "function"
    },
    {
      "constant": false,
      "inputs": [
        {
          "name": "_addressPar",
          "type": "bytes32"
        },
        {
          "name": "_discussionTitle",
          "type": "bytes32"
        }
      ],
      "name": "registerParticipant",
      "outputs": [
        {
          "name": "",
          "type": "uint256"
        }
      ],
      "payable": false,
      "stateMutability": "nonpayable",
      "type": "function"
    },
    {
      "constant": true,
      "inputs": [
        {
          "name": "",
          "type": "bytes32"
        }
      ],
      "name": "usersIds",
      "outputs": [
        {
          "name": "",
          "type": "uint256"
        }
      ],
      "payable": false,
      "stateMutability": "view",
      "type": "function"
    },
    {
      "inputs": [],
      "payable": false,
      "stateMutability": "nonpayable",
      "type": "constructor"
    },
    {
      "anonymous": false,
      "inputs": [
        {
          "indexed": false,
          "name": "title",
          "type": "bytes32"
        }
      ],
      "name": "newDiscussionRegistered",
      "type": "event"
    },
    {
      "anonymous": false,
      "inputs": [
        {
          "indexed": false,
          "name": "id",
          "type": "uint256"
        }
      ],
      "name": "newParticipantRegistered",
      "type": "event"
    },
    {
      "anonymous": false,
      "inputs": [
        {
          "indexed": false,
          "name": "id",
          "type": "uint256"
        }
      ],
      "name": "newCommentRegistered",
      "type": "event"
    },
    {
      "anonymous": false,
      "inputs": [
        {
          "indexed": false,
          "name": "username",
          "type": "string"
        }
      ],
      "name": "newUserRegistered",
      "type": "event"
    },
    {
      "anonymous": false,
      "inputs": [
        {
          "indexed": false,
          "name": "isNotregistered",
          "type": "bool"
        }
      ],
      "name": "isNotRegisteredEvent",
      "type": "event"
    },
    {
      "anonymous": false,
      "inputs": [
        {
          "indexed": false,
          "name": "id",
          "type": "uint256"
        }
      ],
      "name": "userUpdateRepEvent",
      "type": "event"
    },
    {
      "constant": false,
      "inputs": [
        {
          "name": "_title",
          "type": "bytes32"
        },
        {
          "name": "_initiator",
          "type": "bytes32"
        }
      ],
      "name": "registerDiscussion",
      "outputs": [
        {
          "name": "",
          "type": "uint256"
        }
      ],
      "payable": false,
      "stateMutability": "nonpayable",
      "type": "function"
    },
    {
      "constant": true,
      "inputs": [
        {
          "name": "_id",
          "type": "uint256"
        }
      ],
      "name": "getDiscussions",
      "outputs": [
        {
          "name": "",
          "type": "bytes32"
        },
        {
          "name": "",
          "type": "bytes32"
        }
      ],
      "payable": false,
      "stateMutability": "view",
      "type": "function"
    },
    {
      "constant": true,
      "inputs": [],
      "name": "getNumDiscussion",
      "outputs": [
        {
          "name": "",
          "type": "uint256"
        }
      ],
      "payable": false,
      "stateMutability": "view",
      "type": "function"
    }
  ],
  "bytecode": "0x60806040523480156200001157600080fd5b5062000053604051806020016040528060008152507f3078300000000000000000000000000000000000000000000000000000000000620001e060201b60201c565b50620000bb6040518060400160405280600a81526020017f4c656f6e2042726f776e000000000000000000000000000000000000000000008152507f3078333333333333333333333333000000000000000000000000000000000000620001e060201b60201c565b50620001236040518060400160405280600a81526020017f4a6f686e20446f656e74000000000000000000000000000000000000000000008152507f3078313131313131313131313131000000000000000000000000000000000000620001e060201b60201c565b506200018b6040518060400160405280600a81526020017f4d61727920536d697468000000000000000000000000000000000000000000008152507f3078323232323232323232323232000000000000000000000000000000000000620001e060201b60201c565b50620001b16000806040518060200160405280600081525060006200033960201b60201c565b50620001c5600080620004b960201b60201c565b50620001d96000806200060460201b60201c565b5062000ca2565b600080600080848152602001908152602001600020549050600081146200020657600080fd5b600180549050600080858152602001908152602001600020819055506000600180548091906001016200023a919062000756565b90506040518060800160405280868152602001858152602001600181526020016000815250600182815481106200026d57fe5b90600052602060002090600402016000820151816000019080519060200190620002999291906200078b565b506020820151816001015560408201518160020155606082015181600301559050507f23bf3c3382eca35efcabbb4d1accad8939015a59d506e31e3df91c52840bdcb585604051620002ec919062000bbe565b60405180910390a17fcc21b0efbc250b64650c3b8471125011264361ab421b7adca1f3cb7a0eedb8dc600060405162000326919062000b84565b60405180910390a1809250505092915050565b60008060026000848152602001908152602001600020549050600081146200036057600080fd5b600380549050600260008581526020019081526020016000208190555060006003805480919060010162000395919062000812565b90506040518060e00160405280888152602001878152602001868152602001600081526020016000815260200185815260200160006002811115620003d657fe5b81525060038281548110620003e757fe5b906000526020600020906007020160008201518160000155602082015181600101556040820151816002019080519060200190620004279291906200078b565b50606082015181600301556080820151816004015560a0820151816005015560c08201518160060160006101000a81548160ff021916908360028111156200046b57fe5b02179055509050507f4d777f60d952db1e3dfea06728df320f7aa655f4414c8b3cbf51c9acebfc36ca81604051620004a4919062000be2565b60405180910390a18092505050949350505050565b60006060620004d483856200072860201b62000d371760201c565b90506000600482604051620004ea919062000b6b565b9081526020016040518091039020549050600081146200050957600080fd5b60058054905060048360405162000521919062000b6b565b9081526020016040518091039020819055506000600580548091906001016200054b919062000847565b905060405180606001604052808781526020016005815260200160001515815250600582815481106200057a57fe5b9060005260206000209060030201600082015181600001556020820151816001015560408201518160020160006101000a81548160ff0219169083151502179055509050507f0f3d9e09584c5cc0d847a43722261995cfd30f4fe38460638362152b7771e68a81604051620005f0919062000be2565b60405180910390a180935050505092915050565b60008060066000858152602001908152602001600020549050600081146200062b57600080fd5b60078054905060066000868152602001908152602001600020819055506000600780548091906001016200066091906200087c565b905060405180608001604052808681526020018581526020016000151581526020016001815250600782815481106200069557fe5b9060005260206000209060040201600082015181600001556020820151816001015560408201518160020160006101000a81548160ff021916908315150217905550606082015181600301559050507fe2449a71edd452d1a824a15f9fe9fe482da83a13ca7d147db40cf8eac3e0f1448560405162000715919062000ba1565b60405180910390a1819250505092915050565b606082826040516020016200073f92919062000b3b565b604051602081830303815290604052905092915050565b8154818355818111156200078657600402816004028360005260206000209182019101620007859190620008b1565b5b505050565b828054600181600116156101000203166002900490600052602060002090601f016020900481019282601f10620007ce57805160ff1916838001178555620007ff565b82800160010185558215620007ff579182015b82811115620007fe578251825591602001919060010190620007e1565b5b5090506200080e9190620008fd565b5090565b815481835581811115620008425760070281600702836000526020600020918201910162000841919062000925565b5b505050565b815481835581811115620008775760030281600302836000526020600020918201910162000876919062000995565b5b505050565b815481835581811115620008ac57600402816004028360005260206000209182019101620008ab9190620009db565b5b505050565b620008fa91905b80821115620008f65760008082016000620008d4919062000a29565b60018201600090556002820160009055600382016000905550600401620008b8565b5090565b90565b6200092291905b808211156200091e57600081600090555060010162000904565b5090565b90565b6200099291905b808211156200098e57600080820160009055600182016000905560028201600062000958919062000a29565b6003820160009055600482016000905560058201600090556006820160006101000a81549060ff0219169055506007016200092c565b5090565b90565b620009d891905b80821115620009d45760008082016000905560018201600090556002820160006101000a81549060ff0219169055506003016200099c565b5090565b90565b62000a2691905b8082111562000a225760008082016000905560018201600090556002820160006101000a81549060ff0219169055600382016000905550600401620009e2565b5090565b90565b50805460018160011615610100020316600290046000825580601f1062000a51575062000a72565b601f01602090049060005260206000209081019062000a719190620008fd565b5b50565b62000a808162000c31565b82525050565b62000a918162000c3d565b82525050565b62000aac62000aa68262000c3d565b62000c87565b82525050565b600062000abf8262000bff565b62000acb818562000c15565b935062000add81856020860162000c51565b80840191505092915050565b600062000af68262000c0a565b62000b02818562000c20565b935062000b1481856020860162000c51565b62000b1f8162000c91565b840191505092915050565b62000b358162000c47565b82525050565b600062000b49828562000a97565b60208201915062000b5b828462000a97565b6020820191508190509392505050565b600062000b79828462000ab2565b915081905092915050565b600060208201905062000b9b600083018462000a75565b92915050565b600060208201905062000bb8600083018462000a86565b92915050565b6000602082019050818103600083015262000bda818462000ae9565b905092915050565b600060208201905062000bf9600083018462000b2a565b92915050565b600081519050919050565b600081519050919050565b600081905092915050565b600082825260208201905092915050565b60008115159050919050565b6000819050919050565b6000819050919050565b60005b8381101562000c7157808201518184015260208101905062000c54565b8381111562000c81576000848401525b50505050565b6000819050919050565b6000601f19601f8301169050919050565b6116f58062000cb26000396000f3fe608060405234801561001057600080fd5b50600436106101005760003560e01c80637898ac9d11610097578063b0fc187511610066578063b0fc187514610327578063d14519d214610357578063d179859c14610387578063ed272f72146103b757610100565b80637898ac9d146102665780637bb91ece146102965780639f008108146102c6578063a6e51cce146102f757610100565b806354b8d5e3116100d357806354b8d5e3146101ca578063683d60b7146101fa57806368ae5563146102185780636fd185541461024857610100565b80630800e30014610105578063170479b01461013a5780632e2ca08c1461016a578063542bdc791461019a575b600080fd5b61011f600480360361011a919081019061129f565b6103e7565b60405161013196959493929190611494565b60405180910390f35b610154600480360361014f919081019061120a565b6104de565b604051610161919061153e565b60405180910390f35b610184600480360361017f91908101906112c8565b61050c565b604051610191919061153e565b60405180910390f35b6101b460048036036101af919081019061112a565b6105a9565b6040516101c1919061153e565b60405180910390f35b6101e460048036036101df919081019061112a565b6105c1565b6040516101f191906114fc565b60405180910390f35b61020261069f565b60405161020f919061153e565b60405180910390f35b610232600480360361022d919081019061124b565b6106ac565b60405161023f919061153e565b60405180910390f35b61025061070a565b60405161025d919061153e565b60405180910390f35b610280600480360361027b919081019061118f565b610717565b60405161028d919061153e565b60405180910390f35b6102b060048036036102ab9190810190611153565b61072f565b6040516102bd919061153e565b60405180910390f35b6102e060048036036102db919081019061129f565b610743565b6040516102ee92919061146b565b60405180910390f35b610311600480360361030c919081019061112a565b610779565b60405161031e919061153e565b60405180910390f35b610341600480360361033c919081019061112a565b610791565b60405161034e9190611435565b60405180910390f35b610371600480360361036c919081019061112a565b6107af565b60405161037e919061153e565b60405180910390f35b6103a1600480360361039c9190810190611153565b6107f4565b6040516103ae919061153e565b60405180910390f35b6103d160048036036103cc919081019061112a565b610808565b6040516103de919061153e565b60405180910390f35b6000806060600080600080600388815481106103ff57fe5b906000526020600020906007020190508060000154816001015482600201836003015484600401548560050154838054600181600116156101000203166002900480601f0160208091040260200160405190810160405280929190818152602001828054600181600116156101000203166002900480156104c15780601f10610496576101008083540402835291602001916104c1565b820191906000526020600020905b8154815290600101906020018083116104a457829003601f168201915b505050505093509650965096509650965096505091939550919395565b6004818051602081018201805184825260208301602085012081835280955050505050506000915090505481565b60008060008084815260200190815260200160002054905060006001828154811061053357fe5b906000526020600020906004020190508481600201819055508060030160008154809291906001019190505581600301819055507f166e2330253d37480aba732992b9720da8871bbc0aa0902860d2fa6bb3c0c9ee82604051610596919061153e565b60405180910390a1819250505092915050565b60026020528060005260406000206000915090505481565b606060008060008481526020019081526020016000205490506000600182815481106105e957fe5b90600052602060002090600402019050806000018054600181600116156101000203166002900480601f0160208091040260200160405190810160405280929190818152602001828054600181600116156101000203166002900480156106915780601f1061066657610100808354040283529160200191610691565b820191906000526020600020905b81548152906001019060200180831161067457829003601f168201915b505050505092505050919050565b6000600380549050905090565b6000816106b881610791565b6106f7576040517f08c379a00000000000000000000000000000000000000000000000000000000081526004016106ee9061151e565b60405180910390fd5b6107018484610820565b91505092915050565b6000600780549050905090565b60006107258585858561096f565b9050949350505050565b600061073b8383610ae5565b905092915050565b60008060006007848154811061075557fe5b90600052602060002090600402019050806000015481600101549250925050915091565b60066020528060005260406000206000915090505481565b60008060008084815260200190815260200160002054149050919050565b6000806000808481526020019081526020016000205490506000600182815481106107d657fe5b90600052602060002090600402019050806002015492505050919050565b60006108008383610c03565b905092915050565b60006020528060005260406000206000915090505481565b6000806000808481526020019081526020016000205490506000811461084557600080fd5b600180549050600080858152602001908152602001600020819055506000600180548091906001016108779190610d63565b90506040518060800160405280868152602001858152602001600181526020016000815250600182815481106108a957fe5b906000526020600020906004020160008201518160000190805190602001906108d3929190610d95565b506020820151816001015560408201518160020155606082015181600301559050507f23bf3c3382eca35efcabbb4d1accad8939015a59d506e31e3df91c52840bdcb58560405161092491906114fc565b60405180910390a17fcc21b0efbc250b64650c3b8471125011264361ab421b7adca1f3cb7a0eedb8dc600060405161095c9190611435565b60405180910390a1809250505092915050565b600080600260008481526020019081526020016000205490506000811461099557600080fd5b60038054905060026000858152602001908152602001600020819055506000600380548091906001016109c89190610e15565b90506040518060e00160405280888152602001878152602001868152602001600081526020016000815260200185815260200160006002811115610a0857fe5b81525060038281548110610a1857fe5b906000526020600020906007020160008201518160000155602082015181600101556040820151816002019080519060200190610a56929190610d95565b50606082015181600301556080820151816004015560a0820151816005015560c08201518160060160006101000a81548160ff02191690836002811115610a9957fe5b02179055509050507f4d777f60d952db1e3dfea06728df320f7aa655f4414c8b3cbf51c9acebfc36ca81604051610ad0919061153e565b60405180910390a18092505050949350505050565b6000806006600085815260200190815260200160002054905060008114610b0b57600080fd5b6007805490506006600086815260200190815260200160002081905550600060078054809190600101610b3e9190610e47565b90506040518060800160405280868152602001858152602001600015158152602001600181525060078281548110610b7257fe5b9060005260206000209060040201600082015181600001556020820151816001015560408201518160020160006101000a81548160ff021916908315150217905550606082015181600301559050507fe2449a71edd452d1a824a15f9fe9fe482da83a13ca7d147db40cf8eac3e0f14485604051610bf09190611450565b60405180910390a1819250505092915050565b60006060610c118385610d37565b90506000600482604051610c25919061141e565b908152602001604051809103902054905060008114610c4357600080fd5b600580549050600483604051610c59919061141e565b908152602001604051809103902081905550600060058054809190600101610c819190610e79565b90506040518060600160405280878152602001600581526020016000151581525060058281548110610caf57fe5b9060005260206000209060030201600082015181600001556020820151816001015560408201518160020160006101000a81548160ff0219169083151502179055509050507f0f3d9e09584c5cc0d847a43722261995cfd30f4fe38460638362152b7771e68a81604051610d23919061153e565b60405180910390a180935050505092915050565b60608282604051602001610d4c9291906113f2565b604051602081830303815290604052905092915050565b815481835581811115610d9057600402816004028360005260206000209182019101610d8f9190610eab565b5b505050565b828054600181600116156101000203166002900490600052602060002090601f016020900481019282601f10610dd657805160ff1916838001178555610e04565b82800160010185558215610e04579182015b82811115610e03578251825591602001919060010190610de8565b5b509050610e119190610ef2565b5090565b815481835581811115610e4257600702816007028360005260206000209182019101610e419190610f17565b5b505050565b815481835581811115610e7457600402816004028360005260206000209182019101610e739190610f82565b5b505050565b815481835581811115610ea657600302816003028360005260206000209182019101610ea59190610fcd565b5b505050565b610eef91905b80821115610eeb5760008082016000610eca9190611010565b60018201600090556002820160009055600382016000905550600401610eb1565b5090565b90565b610f1491905b80821115610f10576000816000905550600101610ef8565b5090565b90565b610f7f91905b80821115610f7b576000808201600090556001820160009055600282016000610f469190611010565b6003820160009055600482016000905560058201600090556006820160006101000a81549060ff021916905550600701610f1d565b5090565b90565b610fca91905b80821115610fc65760008082016000905560018201600090556002820160006101000a81549060ff0219169055600382016000905550600401610f88565b5090565b90565b61100d91905b808211156110095760008082016000905560018201600090556002820160006101000a81549060ff021916905550600301610fd3565b5090565b90565b50805460018160011615610100020316600290046000825580601f106110365750611055565b601f0160209004906000526020600020908101906110549190610ef2565b5b50565b6000813590506110678161168d565b92915050565b600082601f83011261107e57600080fd5b813561109161108c82611586565b611559565b915080825260208301602083018583830111156110ad57600080fd5b6110b8838284611630565b50505092915050565b600082601f8301126110d257600080fd5b81356110e56110e0826115b2565b611559565b9150808252602083016020830185838301111561110157600080fd5b61110c838284611630565b50505092915050565b600081359050611124816116a4565b92915050565b60006020828403121561113c57600080fd5b600061114a84828501611058565b91505092915050565b6000806040838503121561116657600080fd5b600061117485828601611058565b925050602061118585828601611058565b9150509250929050565b600080600080608085870312156111a557600080fd5b60006111b387828801611058565b94505060206111c487828801611058565b935050604085013567ffffffffffffffff8111156111e157600080fd5b6111ed878288016110c1565b92505060606111fe87828801611058565b91505092959194509250565b60006020828403121561121c57600080fd5b600082013567ffffffffffffffff81111561123657600080fd5b6112428482850161106d565b91505092915050565b6000806040838503121561125e57600080fd5b600083013567ffffffffffffffff81111561127857600080fd5b611284858286016110c1565b925050602061129585828601611058565b9150509250929050565b6000602082840312156112b157600080fd5b60006112bf84828501611115565b91505092915050565b600080604083850312156112db57600080fd5b60006112e985828601611115565b92505060206112fa85828601611058565b9150509250929050565b61130d81611610565b82525050565b61131c8161161c565b82525050565b61133361132e8261161c565b611672565b82525050565b6000611344826115de565b61134e81856115f4565b935061135e81856020860161163f565b80840191505092915050565b6000611375826115e9565b61137f81856115ff565b935061138f81856020860161163f565b6113988161167c565b840191505092915050565b60006113b06017836115ff565b91507f5573657220616c726561647920726567697374657265640000000000000000006000830152602082019050919050565b6113ec81611626565b82525050565b60006113fe8285611322565b60208201915061140e8284611322565b6020820191508190509392505050565b600061142a8284611339565b915081905092915050565b600060208201905061144a6000830184611304565b92915050565b60006020820190506114656000830184611313565b92915050565b60006040820190506114806000830185611313565b61148d6020830184611313565b9392505050565b600060c0820190506114a96000830189611313565b6114b66020830188611313565b81810360408301526114c8818761136a565b90506114d760608301866113e3565b6114e460808301856113e3565b6114f160a0830184611313565b979650505050505050565b60006020820190508181036000830152611516818461136a565b905092915050565b60006020820190508181036000830152611537816113a3565b9050919050565b600060208201905061155360008301846113e3565b92915050565b6000604051905081810181811067ffffffffffffffff8211171561157c57600080fd5b8060405250919050565b600067ffffffffffffffff82111561159d57600080fd5b601f19601f8301169050602081019050919050565b600067ffffffffffffffff8211156115c957600080fd5b601f19601f8301169050602081019050919050565b600081519050919050565b600081519050919050565b600081905092915050565b600082825260208201905092915050565b60008115159050919050565b6000819050919050565b6000819050919050565b82818337600083830152505050565b60005b8381101561165d578082015181840152602081019050611642565b8381111561166c576000848401525b50505050565b6000819050919050565b6000601f19601f8301169050919050565b6116968161161c565b81146116a157600080fd5b50565b6116ad81611626565b81146116b857600080fd5b5056fea265627a7a72305820b5b155f795f082655d2b381348cd46a8b21b1245c370a5f96c94f1653c13ab4a6c6578706572696d656e74616cf50037",
  "source": "pragma solidity ^0.5.0;\r\npragma experimental ABIEncoderV2;\r\n\r\nimport \"./ConcatHelper.sol\";\r\nimport \"./UserManager.sol\";\r\nimport \"./CommentManager.sol\";\r\nimport \"./ParticipantManager.sol\";\r\n\r\ncontract DiscussionManager is UserManager, CommentManager, ParticipantManager {\r\n  //library to concat bytes\r\n  using ConcatHelper for bytes;\r\n\r\n\r\n  //struct with the basic discussion information\r\n  struct Discussion {\r\n    // title of the discussion topic\r\n    bytes32 title;\r\n    // initiator of the discussion\r\n    bytes32 initiator;\r\n    // the discussion is private or not\r\n    bool isPrivate;\r\n    // moderator reputation level\r\n    uint moderatorLev;\r\n  }\r\n\r\n\r\n  // UserManager um;\r\n\r\n  //map with key user_address and value a number\r\n  mapping(bytes32 => uint) public discussionIds;\r\n\r\n  // Array of User that participate to discussions\r\n  Discussion[] discussions;\r\n\r\n  // event fired when an discussion is registered\r\n  event newDiscussionRegistered(bytes32 title);\r\n\r\n  constructor() public{\r\n    // NOTE: the first discussion and participant MUST be emtpy:\r\n    // if you are trying to access to an element\r\n    // of the discussionIds mapping that does not exist you will\r\n    // receive 0, that's why in the first position (with index 0) must be initialized\r\n    addDiscussion(\"\", \"\");\r\n    //addParticipant(\"\", 0, false);\r\n    // um = UserManager(msg.sender);\r\n  }\r\n  /**\r\n  * Function to register a new discussion.\r\n  *\r\n  * @param _title The displaying title\r\n  * @param _initiator The initiator address\r\n  */\r\n  function registerDiscussion(\r\n    bytes32 _title,\r\n    bytes32 _initiator)\r\n  public returns (uint) {\r\n    return addDiscussion(_title, _initiator);\r\n  }\r\n\r\n  /**\r\n  * Add a new discussion. This function must be private because an user\r\n  * cannot insert other information about comment and participant\r\n  *\r\n  * @param _title title of discussion\r\n  * @param _initiator address of initiator of discussion\r\n  */\r\n  function addDiscussion(\r\n    bytes32 _title,\r\n    bytes32 _initiator)\r\n  private returns (uint) {\r\n    // checking if the discussion is already registered\r\n    uint discussionId = discussionIds[_title];\r\n    require(discussionId == 0);\r\n    // associating the title of discussion with the new ID\r\n    discussionIds[_title] = discussions.length;\r\n    uint newDiscussionId = discussions.length++;\r\n    // storing the new user details\r\n    discussions[newDiscussionId] = Discussion({\r\n      title : _title,\r\n      initiator : _initiator,\r\n      isPrivate : false,\r\n      moderatorLev : 1\r\n      //new bytes32[] empty\r\n      //disComment : new bytes32[](0),\r\n      });\r\n    // emitting the event that a new user has been registered\r\n    emit newDiscussionRegistered(_title);\r\n    return discussionId;\r\n  }\r\n\r\n  /*\r\n  *\r\n  */\r\n\r\n\r\n  function getDiscussions(uint _id) public view returns (bytes32, bytes32){\r\n    Discussion storage discussion = discussions[_id];\r\n    //string memory initiator = getNameInitiator(discussion.initiator);\r\n    return (discussion.title, discussion.initiator);\r\n  }\r\n\r\n  /*\r\n  * return the number of discussion\r\n  */\r\n  function getNumDiscussion() public view returns (uint){\r\n    return discussions.length;\r\n  }\r\n  /*\r\n  function getNameInitiator(bytes32 _address) public view returns(string memory){\r\n    string memory username = um.getName(_address);\r\n    return username;\r\n  }*/\r\n}\r\n",
  "sourcePath": "C:/Users/Giulia/IdeaProjects/BlockArt_Project/block-art/blockart-blockchain/contracts/DiscussionManager.sol",
  "compiler": {
    "name": "solc",
    "version": "0.5.8+commit.23d335f2.Emscripten.clang"
  },
  "schemaVersion": "3.0.13",
  "updatedAt": "2019-09-13T07:30:04.338Z",
  "devdoc": {
    "methods": {
      "getName(bytes32)": {
        "params": {
          "_address": "of caller of the function\r"
        }
      },
      "getReputation(bytes32)": {
        "params": {
          "_address": "of caller of the function\r"
        }
      },
      "isNotRegistered(bytes32)": {
        "params": {
          "_address": "address of the user\r"
        }
      },
      "registerComment(bytes32,bytes32,string,bytes32)": {
        "params": {
          "_author": "the address of the author\r",
          "_content": "the content of the comment\r",
          "_title": "title of the comment\r"
        }
      },
      "registerDiscussion(bytes32,bytes32)": {
        "params": {
          "_initiator": "The initiator address\r",
          "_title": "The displaying title\r"
        }
      },
      "registerParticipant(bytes32,bytes32)": {
        "params": {
          "_addressPar": "address of participant\r",
          "_discussionTitle": "Title of the discussion\r"
        }
      },
      "registerUser(string,bytes32)": {
        "params": {
          "_username": "The displaying name*\r"
        }
      },
      "updateReputaion(uint256,bytes32)": {
        "params": {
          "_address": "of the updated profile\r",
          "_newEvaluation": "The new user's displaying name\r"
        }
      }
    }
  },
  "userdoc": {
    "methods": {
      "getName(bytes32)": {
        "notice": "Return string with name of function's caller\r"
      },
      "getReputation(bytes32)": {
        "notice": "Return uint256 with reputation value of function's caller\r"
      },
      "isNotRegistered(bytes32)": {
        "notice": "Check if the user that is calling the smart contract is registered.\r"
      },
      "registerComment(bytes32,bytes32,string,bytes32)": {
        "notice": "Function to register a new comment.\r "
      },
      "registerDiscussion(bytes32,bytes32)": {
        "notice": "Function to register a new discussion.\r "
      },
      "registerParticipant(bytes32,bytes32)": {
        "notice": "Function to register a new participant to the discussion.\r "
      },
      "registerUser(string,bytes32)": {
        "notice": "Function to register a new user.\r "
      },
      "updateReputaion(uint256,bytes32)": {
        "notice": "Update the evaluation of the user calling this method.\r Note: only the evaluation has been validate profile is update.\r "
      }
    }
  }
}