{
  "contractName": "DiscussionManager",
  "abi": [
    {
      "constant": true,
      "inputs": [
        {
          "name": "",
          "type": "bytes"
        }
      ],
      "name": "commentIds",
      "outputs": [
        {
          "name": "",
          "type": "uint256"
        }
      ],
      "payable": false,
      "stateMutability": "view",
      "type": "function"
    },
    {
      "constant": true,
      "inputs": [
        {
          "name": "",
          "type": "bytes"
        }
      ],
      "name": "participantIds",
      "outputs": [
        {
          "name": "",
          "type": "uint256"
        }
      ],
      "payable": false,
      "stateMutability": "view",
      "type": "function"
    },
    {
      "constant": false,
      "inputs": [
        {
          "name": "_newEvaluation",
          "type": "uint256"
        },
        {
          "name": "_address",
          "type": "bytes32"
        }
      ],
      "name": "updateReputaion",
      "outputs": [
        {
          "name": "",
          "type": "uint256"
        }
      ],
      "payable": false,
      "stateMutability": "nonpayable",
      "type": "function"
    },
    {
      "constant": true,
      "inputs": [
        {
          "name": "_address",
          "type": "bytes32"
        }
      ],
      "name": "getName",
      "outputs": [
        {
          "name": "",
          "type": "string"
        }
      ],
      "payable": false,
      "stateMutability": "view",
      "type": "function"
    },
    {
      "constant": false,
      "inputs": [
        {
          "name": "_username",
          "type": "string"
        },
        {
          "name": "_address",
          "type": "bytes32"
        }
      ],
      "name": "registerUser",
      "outputs": [
        {
          "name": "",
          "type": "uint256"
        }
      ],
      "payable": false,
      "stateMutability": "nonpayable",
      "type": "function"
    },
    {
      "constant": false,
      "inputs": [
        {
          "name": "_author",
          "type": "bytes32"
        },
        {
          "name": "_title",
          "type": "bytes32"
        },
        {
          "name": "_content",
          "type": "string"
        },
        {
          "name": "_discussionTitle",
          "type": "bytes32"
        }
      ],
      "name": "registerComment",
      "outputs": [
        {
          "name": "",
          "type": "uint256"
        }
      ],
      "payable": false,
      "stateMutability": "nonpayable",
      "type": "function"
    },
    {
      "constant": true,
      "inputs": [
        {
          "name": "_address",
          "type": "bytes32"
        }
      ],
      "name": "isNotRegistered",
      "outputs": [
        {
          "name": "",
          "type": "bool"
        }
      ],
      "payable": false,
      "stateMutability": "view",
      "type": "function"
    },
    {
      "constant": true,
      "inputs": [
        {
          "name": "_address",
          "type": "bytes32"
        }
      ],
      "name": "getReputation",
      "outputs": [
        {
          "name": "",
          "type": "uint256"
        }
      ],
      "payable": false,
      "stateMutability": "view",
      "type": "function"
    },
    {
      "constant": false,
      "inputs": [
        {
          "name": "_addressPar",
          "type": "bytes32"
        },
        {
          "name": "_discussionTitle",
          "type": "bytes32"
        }
      ],
      "name": "registerParticipant",
      "outputs": [
        {
          "name": "",
          "type": "uint256"
        }
      ],
      "payable": false,
      "stateMutability": "nonpayable",
      "type": "function"
    },
    {
      "constant": true,
      "inputs": [
        {
          "name": "",
          "type": "string"
        }
      ],
      "name": "discussionIds",
      "outputs": [
        {
          "name": "",
          "type": "uint256"
        }
      ],
      "payable": false,
      "stateMutability": "view",
      "type": "function"
    },
    {
      "constant": true,
      "inputs": [
        {
          "name": "",
          "type": "bytes32"
        }
      ],
      "name": "usersIds",
      "outputs": [
        {
          "name": "",
          "type": "uint256"
        }
      ],
      "payable": false,
      "stateMutability": "view",
      "type": "function"
    },
    {
      "inputs": [],
      "payable": false,
      "stateMutability": "nonpayable",
      "type": "constructor"
    },
    {
      "anonymous": false,
      "inputs": [
        {
          "indexed": false,
          "name": "id",
          "type": "uint256"
        }
      ],
      "name": "newDiscussionRegistered",
      "type": "event"
    },
    {
      "anonymous": false,
      "inputs": [
        {
          "indexed": false,
          "name": "id",
          "type": "uint256"
        }
      ],
      "name": "newParticipantRegistered",
      "type": "event"
    },
    {
      "anonymous": false,
      "inputs": [
        {
          "indexed": false,
          "name": "id",
          "type": "uint256"
        }
      ],
      "name": "newCommentRegistered",
      "type": "event"
    },
    {
      "anonymous": false,
      "inputs": [
        {
          "indexed": false,
          "name": "username",
          "type": "string"
        }
      ],
      "name": "newUserRegistered",
      "type": "event"
    },
    {
      "anonymous": false,
      "inputs": [
        {
          "indexed": false,
          "name": "isNotregistered",
          "type": "bool"
        }
      ],
      "name": "isNotRegisteredEvent",
      "type": "event"
    },
    {
      "anonymous": false,
      "inputs": [
        {
          "indexed": false,
          "name": "id",
          "type": "uint256"
        }
      ],
      "name": "userUpdateRepEvent",
      "type": "event"
    },
    {
      "constant": false,
      "inputs": [
        {
          "name": "_title",
          "type": "string"
        },
        {
          "name": "_initiator",
          "type": "bytes32"
        }
      ],
      "name": "registerDiscussion",
      "outputs": [
        {
          "name": "",
          "type": "uint256"
        }
      ],
      "payable": false,
      "stateMutability": "nonpayable",
      "type": "function"
    },
    {
      "constant": true,
      "inputs": [
        {
          "name": "_id",
          "type": "uint256"
        }
      ],
      "name": "getDiscussions",
      "outputs": [
        {
          "name": "",
          "type": "string"
        },
        {
          "name": "",
          "type": "bytes32"
        },
        {
          "name": "",
          "type": "string"
        }
      ],
      "payable": false,
      "stateMutability": "view",
      "type": "function"
    },
    {
      "constant": true,
      "inputs": [],
      "name": "getNumDiscussion",
      "outputs": [
        {
          "name": "",
          "type": "uint256"
        }
      ],
      "payable": false,
      "stateMutability": "view",
      "type": "function"
    }
  ],
  "bytecode": "0x60806040523480156200001157600080fd5b5062000053604051806020016040528060008152507f3078300000000000000000000000000000000000000000000000000000000000620001ef60201b60201c565b50620000bb6040518060400160405280600a81526020017f4c656f6e2042726f776e000000000000000000000000000000000000000000008152507f3078333333333333333333333333000000000000000000000000000000000000620001ef60201b60201c565b50620001236040518060400160405280600a81526020017f4a6f686e20446f656e74000000000000000000000000000000000000000000008152507f3078313131313131313131313131000000000000000000000000000000000000620001ef60201b60201c565b506200018b6040518060400160405280600a81526020017f4d61727920536d697468000000000000000000000000000000000000000000008152507f3078323232323232323232323232000000000000000000000000000000000000620001ef60201b60201c565b50620001b16000806040518060200160405280600081525060006200034860201b60201c565b50620001c56000806200050560201b60201c565b50620001e86040518060200160405280600081525060006200065060201b60201c565b5062000ef1565b600080600080848152602001908152602001600020549050600081146200021557600080fd5b6001805490506000808581526020019081526020016000208190555060006001805480919060010162000249919062000889565b90506040518060800160405280868152602001858152602001600181526020016000815250600182815481106200027c57fe5b90600052602060002090600402016000820151816000019080519060200190620002a8929190620008be565b506020820151816001015560408201518160020155606082015181600301559050507f23bf3c3382eca35efcabbb4d1accad8939015a59d506e31e3df91c52840bdcb585604051620002fb919062000e02565b60405180910390a17fcc21b0efbc250b64650c3b8471125011264361ab421b7adca1f3cb7a0eedb8dc600060405162000335919062000de5565b60405180910390a1809250505092915050565b60006060620003796200036784876200082d60201b62000e061760201c565b876200085b60201b62000e321760201c565b905060006002826040516200038f919062000d87565b908152602001604051809103902054905060008114620003ae57600080fd5b600380549050600283604051620003c6919062000d87565b908152602001604051809103902081905550600060038054809190600101620003f0919062000945565b90506040518060c001604052808981526020018881526020018781526020016000815260200160008152602001600060028111156200042b57fe5b815250600382815481106200043c57fe5b9060005260206000209060060201600082015181600001556020820151816001015560408201518160020190805190602001906200047c929190620008be565b50606082015181600301556080820151816004015560a08201518160050160006101000a81548160ff02191690836002811115620004b657fe5b02179055509050507f4d777f60d952db1e3dfea06728df320f7aa655f4414c8b3cbf51c9acebfc36ca81604051620004ef919062000e26565b60405180910390a1809350505050949350505050565b600060606200052083856200082d60201b62000e061760201c565b9050600060048260405162000536919062000d87565b9081526020016040518091039020549050600081146200055557600080fd5b6005805490506004836040516200056d919062000d87565b9081526020016040518091039020819055506000600580548091906001016200059791906200097a565b90506040518060600160405280878152602001600581526020016000151581525060058281548110620005c657fe5b9060005260206000209060030201600082015181600001556020820151816001015560408201518160020160006101000a81548160ff0219169083151502179055509050507f0f3d9e09584c5cc0d847a43722261995cfd30f4fe38460638362152b7771e68a816040516200063c919062000e26565b60405180910390a180935050505092915050565b60008060068460405162000665919062000dcc565b9081526020016040518091039020549050600081146200068457600080fd5b6007805490506006856040516200069c919062000dcc565b908152602001604051809103902081905550600060078054809190600101620006c69190620009af565b90506040518060c00160405280868152602001858152602001600015158152602001600181526020016040518060200160405280600081525081526020016000604051908082528060200260200182016040528015620007355781602001602082028038833980820191505090505b50815250600782815481106200074757fe5b9060005260206000209060060201600082015181600001908051906020019062000773929190620008be565b506020820151816001015560408201518160020160006101000a81548160ff021916908315150217905550606082015181600301556080820151816004019080519060200190620007c6929190620008be565b5060a0820151816005019080519060200190620007e5929190620009e4565b509050507f9416073f46f5864caab2a94844ca0c65bc39406d4a6b051bf23d7f2045314688816040516200081a919062000e26565b60405180910390a1809250505092915050565b606082826040516020016200084492919062000d57565b604051602081830303815290604052905092915050565b606082826040516020016200087292919062000da0565b604051602081830303815290604052905092915050565b815481835581811115620008b957600402816004028360005260206000209182019101620008b8919062000a36565b5b505050565b828054600181600116156101000203166002900490600052602060002090601f016020900481019282601f106200090157805160ff191683800117855562000932565b8280016001018555821562000932579182015b828111156200093157825182559160200191906001019062000914565b5b50905062000941919062000a82565b5090565b815481835581811115620009755760060281600602836000526020600020918201910162000974919062000aaa565b5b505050565b815481835581811115620009aa57600302816003028360005260206000209182019101620009a9919062000b12565b5b505050565b815481835581811115620009df57600602816006028360005260206000209182019101620009de919062000b58565b5b505050565b82805482825590600052602060002090810192821562000a23579160200282015b8281111562000a2257825182559160200191906001019062000a05565b5b50905062000a32919062000bd4565b5090565b62000a7f91905b8082111562000a7b576000808201600062000a59919062000bfc565b6001820160009055600282016000905560038201600090555060040162000a3d565b5090565b90565b62000aa791905b8082111562000aa357600081600090555060010162000a89565b5090565b90565b62000b0f91905b8082111562000b0b57600080820160009055600182016000905560028201600062000add919062000bfc565b600382016000905560048201600090556005820160006101000a81549060ff02191690555060060162000ab1565b5090565b90565b62000b5591905b8082111562000b515760008082016000905560018201600090556002820160006101000a81549060ff02191690555060030162000b19565b5090565b90565b62000bd191905b8082111562000bcd576000808201600062000b7b919062000bfc565b60018201600090556002820160006101000a81549060ff0219169055600382016000905560048201600062000bb1919062000bfc565b60058201600062000bc3919062000c48565b5060060162000b5f565b5090565b90565b62000bf991905b8082111562000bf557600081600090555060010162000bdb565b5090565b90565b50805460018160011615610100020316600290046000825580601f1062000c24575062000c45565b601f01602090049060005260206000209081019062000c44919062000a82565b5b50565b508054600082559060005260206000209081019062000c68919062000bd4565b50565b62000c768162000e80565b82525050565b62000c9162000c8b8262000e8c565b62000ed6565b82525050565b600062000ca48262000e43565b62000cb0818562000e59565b935062000cc281856020860162000ea0565b80840191505092915050565b600062000cdb8262000e4e565b62000ce7818562000e64565b935062000cf981856020860162000ea0565b62000d048162000ee0565b840191505092915050565b600062000d1c8262000e4e565b62000d28818562000e75565b935062000d3a81856020860162000ea0565b80840191505092915050565b62000d518162000e96565b82525050565b600062000d65828562000c7c565b60208201915062000d77828462000c7c565b6020820191508190509392505050565b600062000d95828462000c97565b915081905092915050565b600062000dae828562000c97565b915062000dbc828462000c7c565b6020820191508190509392505050565b600062000dda828462000d0f565b915081905092915050565b600060208201905062000dfc600083018462000c6b565b92915050565b6000602082019050818103600083015262000e1e818462000cce565b905092915050565b600060208201905062000e3d600083018462000d46565b92915050565b600081519050919050565b600081519050919050565b600081905092915050565b600082825260208201905092915050565b600081905092915050565b60008115159050919050565b6000819050919050565b6000819050919050565b60005b8381101562000ec057808201518184015260208101905062000ea3565b8381111562000ed0576000848401525b50505050565b6000819050919050565b6000601f19601f8301169050919050565b6119788062000f016000396000f3fe608060405234801561001057600080fd5b50600436106100ea5760003560e01c80637898ac9d1161008c578063d14519d211610066578063d14519d2146102bf578063d179859c146102ef578063e682580c1461031f578063ed272f721461034f576100ea565b80637898ac9d1461022d5780639f0081081461025d578063b0fc18751461028f576100ea565b806354b8d5e3116100c857806354b8d5e31461017f5780635c14fe18146101af57806368ae5563146101df5780636fd185541461020f576100ea565b806311902934146100ef578063170479b01461011f5780632e2ca08c1461014f575b600080fd5b6101096004803603610104919081019061140c565b61037f565b604051610116919061178a565b60405180910390f35b6101396004803603610134919081019061140c565b6103ad565b604051610146919061178a565b60405180910390f35b6101696004803603610164919081019061150b565b6103db565b604051610176919061178a565b60405180910390f35b6101996004803603610194919081019061132c565b610478565b6040516101a69190611703565b60405180910390f35b6101c960048036036101c4919081019061148e565b610556565b6040516101d6919061178a565b60405180910390f35b6101f960048036036101f4919081019061148e565b61056a565b604051610206919061178a565b60405180910390f35b6102176105c8565b604051610224919061178a565b60405180910390f35b61024760048036036102429190810190611391565b6105d5565b604051610254919061178a565b60405180910390f35b610277600480360361027291908101906114e2565b6105ed565b60405161028693929190611725565b60405180910390f35b6102a960048036036102a4919081019061132c565b610765565b6040516102b691906116e8565b60405180910390f35b6102d960048036036102d4919081019061132c565b610783565b6040516102e6919061178a565b60405180910390f35b61030960048036036103049190810190611355565b6107c8565b604051610316919061178a565b60405180910390f35b6103396004803603610334919081019061144d565b6107dc565b604051610346919061178a565b60405180910390f35b6103696004803603610364919081019061132c565b61080a565b604051610376919061178a565b60405180910390f35b6002818051602081018201805184825260208301602085012081835280955050505050506000915090505481565b6004818051602081018201805184825260208301602085012081835280955050505050506000915090505481565b60008060008084815260200190815260200160002054905060006001828154811061040257fe5b906000526020600020906004020190508481600201819055508060030160008154809291906001019190505581600301819055507f166e2330253d37480aba732992b9720da8871bbc0aa0902860d2fa6bb3c0c9ee82604051610465919061178a565b60405180910390a1819250505092915050565b606060008060008481526020019081526020016000205490506000600182815481106104a057fe5b90600052602060002090600402019050806000018054600181600116156101000203166002900480601f0160208091040260200160405190810160405280929190818152602001828054600181600116156101000203166002900480156105485780601f1061051d57610100808354040283529160200191610548565b820191906000526020600020905b81548152906001019060200180831161052b57829003601f168201915b505050505092505050919050565b60006105628383610822565b905092915050565b60008161057681610765565b6105b5576040517f08c379a00000000000000000000000000000000000000000000000000000000081526004016105ac9061176a565b60405180910390fd5b6105bf84846109ee565b91505092915050565b6000600780549050905090565b60006105e385858585610b3d565b9050949350505050565b60606000606060006007858154811061060257fe5b9060005260206000209060060201905080600001816001015482600401828054600181600116156101000203166002900480601f0160208091040260200160405190810160405280929190818152602001828054600181600116156101000203166002900480156106b45780601f10610689576101008083540402835291602001916106b4565b820191906000526020600020905b81548152906001019060200180831161069757829003601f168201915b50505050509250808054600181600116156101000203166002900480601f0160208091040260200160405190810160405280929190818152602001828054600181600116156101000203166002900480156107505780601f1061072557610100808354040283529160200191610750565b820191906000526020600020905b81548152906001019060200180831161073357829003601f168201915b50505050509050935093509350509193909250565b60008060008084815260200190815260200160002054149050919050565b6000806000808481526020019081526020016000205490506000600182815481106107aa57fe5b90600052602060002090600402019050806002015492505050919050565b60006107d48383610cd2565b905092915050565b6006818051602081018201805184825260208301602085012081835280955050505050506000915090505481565b60006020528060005260406000206000915090505481565b60008060068460405161083591906116d1565b90815260200160405180910390205490506000811461085357600080fd5b60078054905060068560405161086991906116d1565b9081526020016040518091039020819055506000600780548091906001016108919190610e5e565b90506040518060c001604052808681526020018581526020016000151581526020016001815260200160405180602001604052806000815250815260200160006040519080825280602002602001820160405280156108ff5781602001602082028038833980820191505090505b508152506007828154811061091057fe5b9060005260206000209060060201600082015181600001908051906020019061093a929190610e90565b506020820151816001015560408201518160020160006101000a81548160ff02191690831515021790555060608201518160030155608082015181600401908051906020019061098b929190610e90565b5060a08201518160050190805190602001906109a8929190610f10565b509050507f9416073f46f5864caab2a94844ca0c65bc39406d4a6b051bf23d7f2045314688816040516109db919061178a565b60405180910390a1809250505092915050565b60008060008084815260200190815260200160002054905060008114610a1357600080fd5b60018054905060008085815260200190815260200160002081905550600060018054809190600101610a459190610f5d565b9050604051806080016040528086815260200185815260200160018152602001600081525060018281548110610a7757fe5b90600052602060002090600402016000820151816000019080519060200190610aa1929190610e90565b506020820151816001015560408201518160020155606082015181600301559050507f23bf3c3382eca35efcabbb4d1accad8939015a59d506e31e3df91c52840bdcb585604051610af29190611703565b60405180910390a17fcc21b0efbc250b64650c3b8471125011264361ab421b7adca1f3cb7a0eedb8dc6000604051610b2a91906116e8565b60405180910390a1809250505092915050565b60006060610b54610b4e8487610e06565b87610e32565b90506000600282604051610b689190611692565b908152602001604051809103902054905060008114610b8657600080fd5b600380549050600283604051610b9c9190611692565b908152602001604051809103902081905550600060038054809190600101610bc49190610f8f565b90506040518060c00160405280898152602001888152602001878152602001600081526020016000815260200160006002811115610bfe57fe5b81525060038281548110610c0e57fe5b906000526020600020906006020160008201518160000155602082015181600101556040820151816002019080519060200190610c4c929190610e90565b50606082015181600301556080820151816004015560a08201518160050160006101000a81548160ff02191690836002811115610c8557fe5b02179055509050507f4d777f60d952db1e3dfea06728df320f7aa655f4414c8b3cbf51c9acebfc36ca81604051610cbc919061178a565b60405180910390a1809350505050949350505050565b60006060610ce08385610e06565b90506000600482604051610cf49190611692565b908152602001604051809103902054905060008114610d1257600080fd5b600580549050600483604051610d289190611692565b908152602001604051809103902081905550600060058054809190600101610d509190610fc1565b90506040518060600160405280878152602001600581526020016000151581525060058281548110610d7e57fe5b9060005260206000209060030201600082015181600001556020820151816001015560408201518160020160006101000a81548160ff0219169083151502179055509050507f0f3d9e09584c5cc0d847a43722261995cfd30f4fe38460638362152b7771e68a81604051610df2919061178a565b60405180910390a180935050505092915050565b60608282604051602001610e1b929190611666565b604051602081830303815290604052905092915050565b60608282604051602001610e479291906116a9565b604051602081830303815290604052905092915050565b815481835581811115610e8b57600602816006028360005260206000209182019101610e8a9190610ff3565b5b505050565b828054600181600116156101000203166002900490600052602060002090601f016020900481019282601f10610ed157805160ff1916838001178555610eff565b82800160010185558215610eff579182015b82811115610efe578251825591602001919060010190610ee3565b5b509050610f0c9190611066565b5090565b828054828255906000526020600020908101928215610f4c579160200282015b82811115610f4b578251825591602001919060010190610f30565b5b509050610f59919061108b565b5090565b815481835581811115610f8a57600402816004028360005260206000209182019101610f8991906110b0565b5b505050565b815481835581811115610fbc57600602816006028360005260206000209182019101610fbb91906110f7565b5b505050565b815481835581811115610fee57600302816003028360005260206000209182019101610fed919061115a565b5b505050565b61106391905b8082111561105f5760008082016000611012919061119d565b60018201600090556002820160006101000a81549060ff02191690556003820160009055600482016000611046919061119d565b60058201600061105691906111e5565b50600601610ff9565b5090565b90565b61108891905b8082111561108457600081600090555060010161106c565b5090565b90565b6110ad91905b808211156110a9576000816000905550600101611091565b5090565b90565b6110f491905b808211156110f057600080820160006110cf919061119d565b600182016000905560028201600090556003820160009055506004016110b6565b5090565b90565b61115791905b80821115611153576000808201600090556001820160009055600282016000611126919061119d565b600382016000905560048201600090556005820160006101000a81549060ff0219169055506006016110fd565b5090565b90565b61119a91905b808211156111965760008082016000905560018201600090556002820160006101000a81549060ff021916905550600301611160565b5090565b90565b50805460018160011615610100020316600290046000825580601f106111c357506111e2565b601f0160209004906000526020600020908101906111e19190611066565b5b50565b5080546000825590600052602060002090810190611203919061108b565b50565b60008135905061121581611910565b92915050565b600082601f83011261122c57600080fd5b813561123f61123a826117d2565b6117a5565b9150808252602083016020830185838301111561125b57600080fd5b6112668382846118b3565b50505092915050565b600082601f83011261128057600080fd5b813561129361128e826117fe565b6117a5565b915080825260208301602083018583830111156112af57600080fd5b6112ba8382846118b3565b50505092915050565b600082601f8301126112d457600080fd5b81356112e76112e28261182a565b6117a5565b9150808252602083016020830185838301111561130357600080fd5b61130e8382846118b3565b50505092915050565b60008135905061132681611927565b92915050565b60006020828403121561133e57600080fd5b600061134c84828501611206565b91505092915050565b6000806040838503121561136857600080fd5b600061137685828601611206565b925050602061138785828601611206565b9150509250929050565b600080600080608085870312156113a757600080fd5b60006113b587828801611206565b94505060206113c687828801611206565b935050604085013567ffffffffffffffff8111156113e357600080fd5b6113ef878288016112c3565b925050606061140087828801611206565b91505092959194509250565b60006020828403121561141e57600080fd5b600082013567ffffffffffffffff81111561143857600080fd5b6114448482850161121b565b91505092915050565b60006020828403121561145f57600080fd5b600082013567ffffffffffffffff81111561147957600080fd5b6114858482850161126f565b91505092915050565b600080604083850312156114a157600080fd5b600083013567ffffffffffffffff8111156114bb57600080fd5b6114c7858286016112c3565b92505060206114d885828601611206565b9150509250929050565b6000602082840312156114f457600080fd5b600061150284828501611317565b91505092915050565b6000806040838503121561151e57600080fd5b600061152c85828601611317565b925050602061153d85828601611206565b9150509250929050565b61155081611893565b82525050565b61155f8161189f565b82525050565b6115766115718261189f565b6118f5565b82525050565b600061158782611856565b611591818561186c565b93506115a18185602086016118c2565b80840191505092915050565b60006115b882611861565b6115c28185611877565b93506115d28185602086016118c2565b6115db816118ff565b840191505092915050565b60006115f182611861565b6115fb8185611888565b935061160b8185602086016118c2565b80840191505092915050565b6000611624601783611877565b91507f5573657220616c726561647920726567697374657265640000000000000000006000830152602082019050919050565b611660816118a9565b82525050565b60006116728285611565565b6020820191506116828284611565565b6020820191508190509392505050565b600061169e828461157c565b915081905092915050565b60006116b5828561157c565b91506116c18284611565565b6020820191508190509392505050565b60006116dd82846115e6565b915081905092915050565b60006020820190506116fd6000830184611547565b92915050565b6000602082019050818103600083015261171d81846115ad565b905092915050565b6000606082019050818103600083015261173f81866115ad565b905061174e6020830185611556565b818103604083015261176081846115ad565b9050949350505050565b6000602082019050818103600083015261178381611617565b9050919050565b600060208201905061179f6000830184611657565b92915050565b6000604051905081810181811067ffffffffffffffff821117156117c857600080fd5b8060405250919050565b600067ffffffffffffffff8211156117e957600080fd5b601f19601f8301169050602081019050919050565b600067ffffffffffffffff82111561181557600080fd5b601f19601f8301169050602081019050919050565b600067ffffffffffffffff82111561184157600080fd5b601f19601f8301169050602081019050919050565b600081519050919050565b600081519050919050565b600081905092915050565b600082825260208201905092915050565b600081905092915050565b60008115159050919050565b6000819050919050565b6000819050919050565b82818337600083830152505050565b60005b838110156118e05780820151818401526020810190506118c5565b838111156118ef576000848401525b50505050565b6000819050919050565b6000601f19601f8301169050919050565b6119198161189f565b811461192457600080fd5b50565b611930816118a9565b811461193b57600080fd5b5056fea265627a7a72305820305aae883b3c603018a0f11a1a5e3ead8ed212755121b38619ef82f72582fbc06c6578706572696d656e74616cf50037",
  "source": "pragma solidity ^0.5.0;\r\npragma experimental ABIEncoderV2;\r\n\r\nimport \"./ConcatHelper.sol\";\r\nimport \"./UserManager.sol\";\r\nimport \"./CommentManager.sol\";\r\nimport \"./ParticipantManager.sol\";\r\n\r\ncontract DiscussionManager is UserManager, CommentManager, ParticipantManager {\r\n\r\n  //struct with the basic discussion information\r\n  struct Discussion {\r\n    // title of the discussion topic\r\n    string title;\r\n    // initiator of the discussion\r\n    bytes32 initiator;\r\n    // the discussion is private or not\r\n    bool isPrivate;\r\n    // moderator reputation level\r\n    uint moderatorLev;\r\n    // array of commentIDS\r\n    string disComment;\r\n    // array of participantIDS\r\n    bytes32[] disParticipant;\r\n  }\r\n\r\n  //map with key user_address and value a number\r\n  mapping(string => uint) public discussionIds;\r\n\r\n  // Array of User that participate to discussions\r\n  Discussion[] discussions;\r\n\r\n  // event fired when an discussion is registered\r\n  event newDiscussionRegistered(uint id);\r\n\r\n  constructor() public{\r\n    // NOTE: the first discussion and participant MUST be emtpy:\r\n    // if you are trying to access to an element\r\n    // of the discussionIds mapping that does not exist you will\r\n    // receive 0, that's why in the first position (with index 0) must be initialized\r\n    addDiscussion(\"\", \"\");\r\n    //addParticipant(\"\", 0, false);\r\n  }\r\n  /**\r\n  * Function to register a new discussion.\r\n  *\r\n  * @param _title The displaying title\r\n  * @param _initiator The initiator address\r\n  */\r\n  function registerDiscussion(\r\n    string memory _title,\r\n    bytes32 _initiator)\r\n  public returns (uint) {\r\n    return addDiscussion(_title, _initiator);\r\n  }\r\n\r\n  /**\r\n  * Add a new discussion. This function must be private because an user\r\n  * cannot insert other information about comment and participant\r\n  *\r\n  * @param _title title of discussion\r\n  * @param _initiator address of initiator of discussion\r\n  */\r\n  function addDiscussion(\r\n    string memory _title,\r\n    bytes32 _initiator)\r\n  private returns (uint) {\r\n    // checking if the discussion is already registered\r\n    uint discussionId = discussionIds[_title];\r\n    require(discussionId == 0);\r\n    // associating the title of discussion with the new ID\r\n    discussionIds[_title] = discussions.length;\r\n    uint newDiscussionId = discussions.length++;\r\n    // storing the new user details\r\n    discussions[newDiscussionId] = Discussion({\r\n      title : _title,\r\n      initiator : _initiator,\r\n      isPrivate : false,\r\n      moderatorLev : 1,\r\n      //new bytes32[] empty\r\n      //disComment : new bytes32[](0),\r\n      disComment : '',\r\n      //new bytes32[] empty\r\n      disParticipant : new bytes32[](0)\r\n      });\r\n    // emitting the event that a new user has been registered\r\n    emit newDiscussionRegistered(newDiscussionId);\r\n    return newDiscussionId;\r\n  }\r\n\r\n\r\n  function getDiscussions(uint _id) public view returns (string memory, bytes32, string memory){\r\n    Discussion storage discussion = discussions[_id];\r\n    return (discussion.title, discussion.initiator, discussion.disComment);\r\n  }\r\n  /*\r\n  * return the number of discussion\r\n  */\r\n  function getNumDiscussion() public view returns (uint){\r\n    return discussions.length;\r\n  }\r\n  /*\r\nReturn all of the discussion\r\n  function getDiscussions() public view returns(Discussion[] memory){\r\n    return discussions;\r\n  }\r\n*/\r\n}\r\n",
  "sourcePath": "C:/Users/Giulia/IdeaProjects/BlockArt_Project/block-art/blockart-blockchain/contracts/DiscussionManager.sol",
  "compiler": {
    "name": "solc",
    "version": "0.5.8+commit.23d335f2.Emscripten.clang"
  },
  "schemaVersion": "3.0.13",
  "updatedAt": "2019-09-11T18:29:49.823Z",
  "devdoc": {
    "methods": {
      "getName(bytes32)": {
        "params": {
          "_address": "of caller of the function\r"
        }
      },
      "getReputation(bytes32)": {
        "params": {
          "_address": "of caller of the function\r"
        }
      },
      "isNotRegistered(bytes32)": {
        "params": {
          "_address": "address of the user\r"
        }
      },
      "registerComment(bytes32,bytes32,string,bytes32)": {
        "params": {
          "_author": "the address of the author\r",
          "_content": "the content of the comment\r",
          "_title": "title of the comment\r"
        }
      },
      "registerDiscussion(string,bytes32)": {
        "params": {
          "_initiator": "The initiator address\r",
          "_title": "The displaying title\r"
        }
      },
      "registerParticipant(bytes32,bytes32)": {
        "params": {
          "_addressPar": "address of participant\r",
          "_discussionTitle": "Title of the discussion\r"
        }
      },
      "registerUser(string,bytes32)": {
        "params": {
          "_username": "The displaying name*\r"
        }
      },
      "updateReputaion(uint256,bytes32)": {
        "params": {
          "_address": "of the updated profile\r",
          "_newEvaluation": "The new user's displaying name\r"
        }
      }
    }
  },
  "userdoc": {
    "methods": {
      "getName(bytes32)": {
        "notice": "Return string with name of function's caller\r"
      },
      "getReputation(bytes32)": {
        "notice": "Return uint256 with reputation value of function's caller\r"
      },
      "isNotRegistered(bytes32)": {
        "notice": "Check if the user that is calling the smart contract is registered.\r"
      },
      "registerComment(bytes32,bytes32,string,bytes32)": {
        "notice": "Function to register a new comment.\r "
      },
      "registerDiscussion(string,bytes32)": {
        "notice": "Function to register a new discussion.\r "
      },
      "registerParticipant(bytes32,bytes32)": {
        "notice": "Function to register a new participant to the discussion.\r "
      },
      "registerUser(string,bytes32)": {
        "notice": "Function to register a new user.\r "
      },
      "updateReputaion(uint256,bytes32)": {
        "notice": "Update the evaluation of the user calling this method.\r Note: only the evaluation has been validate profile is update.\r "
      }
    }
  }
}