{
  "contractName": "DiscussionManager",
  "abi": [
    {
      "constant": true,
      "inputs": [
        {
          "name": "",
          "type": "bytes"
        }
      ],
      "name": "commentIds",
      "outputs": [
        {
          "name": "",
          "type": "uint256"
        }
      ],
      "payable": false,
      "stateMutability": "view",
      "type": "function"
    },
    {
      "constant": true,
      "inputs": [
        {
          "name": "",
          "type": "bytes"
        }
      ],
      "name": "participantIds",
      "outputs": [
        {
          "name": "",
          "type": "uint256"
        }
      ],
      "payable": false,
      "stateMutability": "view",
      "type": "function"
    },
    {
      "constant": false,
      "inputs": [
        {
          "name": "_newEvaluation",
          "type": "uint256"
        },
        {
          "name": "_address",
          "type": "bytes32"
        }
      ],
      "name": "updateReputaion",
      "outputs": [
        {
          "name": "",
          "type": "uint256"
        }
      ],
      "payable": false,
      "stateMutability": "nonpayable",
      "type": "function"
    },
    {
      "constant": true,
      "inputs": [
        {
          "name": "_address",
          "type": "bytes32"
        }
      ],
      "name": "getName",
      "outputs": [
        {
          "name": "",
          "type": "string"
        }
      ],
      "payable": false,
      "stateMutability": "view",
      "type": "function"
    },
    {
      "constant": false,
      "inputs": [
        {
          "name": "_username",
          "type": "string"
        },
        {
          "name": "_address",
          "type": "bytes32"
        }
      ],
      "name": "registerUser",
      "outputs": [
        {
          "name": "",
          "type": "uint256"
        }
      ],
      "payable": false,
      "stateMutability": "nonpayable",
      "type": "function"
    },
    {
      "constant": false,
      "inputs": [
        {
          "name": "_author",
          "type": "bytes32"
        },
        {
          "name": "_title",
          "type": "bytes32"
        },
        {
          "name": "_content",
          "type": "string"
        },
        {
          "name": "_discussionTitle",
          "type": "bytes32"
        }
      ],
      "name": "registerComment",
      "outputs": [
        {
          "name": "",
          "type": "uint256"
        }
      ],
      "payable": false,
      "stateMutability": "nonpayable",
      "type": "function"
    },
    {
      "constant": true,
      "inputs": [
        {
          "name": "",
          "type": "bytes32"
        }
      ],
      "name": "discussionIds",
      "outputs": [
        {
          "name": "",
          "type": "uint256"
        }
      ],
      "payable": false,
      "stateMutability": "view",
      "type": "function"
    },
    {
      "constant": true,
      "inputs": [
        {
          "name": "_address",
          "type": "bytes32"
        }
      ],
      "name": "isNotRegistered",
      "outputs": [
        {
          "name": "",
          "type": "bool"
        }
      ],
      "payable": false,
      "stateMutability": "view",
      "type": "function"
    },
    {
      "constant": false,
      "inputs": [
        {
          "name": "_addressPar",
          "type": "bytes32"
        },
        {
          "name": "_discussionTitle",
          "type": "bytes32"
        }
      ],
      "name": "registerParticipant",
      "outputs": [
        {
          "name": "",
          "type": "uint256"
        }
      ],
      "payable": false,
      "stateMutability": "nonpayable",
      "type": "function"
    },
    {
      "constant": true,
      "inputs": [
        {
          "name": "",
          "type": "bytes32"
        }
      ],
      "name": "usersIds",
      "outputs": [
        {
          "name": "",
          "type": "uint256"
        }
      ],
      "payable": false,
      "stateMutability": "view",
      "type": "function"
    },
    {
      "inputs": [],
      "payable": false,
      "stateMutability": "nonpayable",
      "type": "constructor"
    },
    {
      "anonymous": false,
      "inputs": [
        {
          "indexed": false,
          "name": "id",
          "type": "uint256"
        }
      ],
      "name": "newDiscussionRegistered",
      "type": "event"
    },
    {
      "anonymous": false,
      "inputs": [
        {
          "indexed": false,
          "name": "id",
          "type": "uint256"
        }
      ],
      "name": "newParticipantRegistered",
      "type": "event"
    },
    {
      "anonymous": false,
      "inputs": [
        {
          "indexed": false,
          "name": "id",
          "type": "uint256"
        }
      ],
      "name": "newCommentRegistered",
      "type": "event"
    },
    {
      "anonymous": false,
      "inputs": [
        {
          "indexed": false,
          "name": "id",
          "type": "uint256"
        }
      ],
      "name": "newUserRegistered",
      "type": "event"
    },
    {
      "anonymous": false,
      "inputs": [
        {
          "indexed": false,
          "name": "id",
          "type": "uint256"
        }
      ],
      "name": "userUpdateRepEvent",
      "type": "event"
    },
    {
      "constant": false,
      "inputs": [
        {
          "name": "_title",
          "type": "bytes32"
        },
        {
          "name": "_initiator",
          "type": "bytes32"
        },
        {
          "name": "_isPrivate",
          "type": "bool"
        },
        {
          "name": "_moderatorLev",
          "type": "uint256"
        }
      ],
      "name": "registerDiscussion",
      "outputs": [
        {
          "name": "",
          "type": "uint256"
        }
      ],
      "payable": false,
      "stateMutability": "nonpayable",
      "type": "function"
    }
  ],
  "bytecode": "0x60806040523480156200001157600080fd5b5062000053604051806020016040528060008152507f3078300000000000000000000000000000000000000000000000000000000000620001e360201b60201c565b50620000bb6040518060400160405280600a81526020017f4c656f6e2042726f776e000000000000000000000000000000000000000000008152507f3078333333333333333333333333000000000000000000000000000000000000620001e360201b60201c565b50620001236040518060400160405280600a81526020017f4a6f686e20446f656e74000000000000000000000000000000000000000000008152507f3078313131313131313131313131000000000000000000000000000000000000620001e360201b60201c565b506200018b6040518060400160405280600a81526020017f4d61727920536d697468000000000000000000000000000000000000000000008152507f3078323232323232323232323232000000000000000000000000000000000000620001e360201b60201c565b50620001b16000806040518060200160405280600081525060006200030060201b60201c565b50620001c56000806200055160201b60201c565b50620001dc6000806000806200073060201b60201c565b5062000d87565b600080600080848152602001908152602001600020549050600081146200020957600080fd5b600180549050600080858152602001908152602001600020819055506000600180548091906001016200023d9190620009af565b90506040518060800160405280868152602001858152602001600181526020016000815250600182815481106200027057fe5b906000526020600020906004020160008201518160000190805190602001906200029c929190620009e4565b506020820151816001015560408201518160020155606082015181600301559050507f2456c02735fb44894660d2af194ca5261385d8ee03675e1d75b0da1300a764cd816040518082815260200191505060405180910390a1809250505092915050565b60006060620003316200031f8487620008fe60201b620010471760201c565b876200093060201b620010791760201c565b905060006002826040518082805190602001908083835b602083106200036d578051825260208201915060208101905060208303925062000348565b6001836020036101000a038019825116818451168082178552505050505050905001915050908152602001604051809103902054905060008114620003b157600080fd5b6003805490506002836040518082805190602001908083835b60208310620003ef5780518252602082019150602081019050602083039250620003ca565b6001836020036101000a0380198251168184511680821785525050505050509050019150509081526020016040518091039020819055506000600380548091906001016200043e919062000a6b565b90506040518060c001604052808981526020018881526020018781526020016000815260200160008152602001600060028111156200047957fe5b815250600382815481106200048a57fe5b906000526020600020906006020160008201518160000155602082015181600101556040820151816002019080519060200190620004ca929190620009e4565b50606082015181600301556080820151816004015560a08201518160050160006101000a81548160ff021916908360028111156200050457fe5b02179055509050507f4d777f60d952db1e3dfea06728df320f7aa655f4414c8b3cbf51c9acebfc36ca816040518082815260200191505060405180910390a1809350505050949350505050565b600060606200056c8385620008fe60201b620010471760201c565b905060006004826040518082805190602001908083835b60208310620005a8578051825260208201915060208101905060208303925062000583565b6001836020036101000a038019825116818451168082178552505050505050905001915050908152602001604051809103902054905060008114620005ec57600080fd5b6005805490506004836040518082805190602001908083835b602083106200062a578051825260208201915060208101905060208303925062000605565b6001836020036101000a03801982511681845116808217855250505050505090500191505090815260200160405180910390208190555060006005805480919060010162000679919062000aa0565b90506040518060600160405280878152602001600581526020016000151581525060058281548110620006a857fe5b9060005260206000209060030201600082015181600001556020820151816001015560408201518160020160006101000a81548160ff0219169083151502179055509050507f0f3d9e09584c5cc0d847a43722261995cfd30f4fe38460638362152b7771e68a816040518082815260200191505060405180910390a180935050505092915050565b60008060066000878152602001908152602001600020549050600081146200075757600080fd5b60078054905060066000888152602001908152602001600020819055506000600780548091906001016200078c919062000ad5565b90506040518060c0016040528088815260200187815260200186151581526020018581526020016000604051908082528060200260200182016040528015620007e45781602001602082028038833980820191505090505b50815260200160006040519080825280602002602001820160405280156200081b5781602001602082028038833980820191505090505b50815250600782815481106200082d57fe5b9060005260206000209060060201600082015181600001556020820151816001015560408201518160020160006101000a81548160ff0219169083151502179055506060820151816003015560808201518160040190805190602001906200089792919062000b0a565b5060a0820151816005019080519060200190620008b692919062000b0a565b509050507f9416073f46f5864caab2a94844ca0c65bc39406d4a6b051bf23d7f2045314688816040518082815260200191505060405180910390a18092505050949350505050565b606082826040516020018083815260200182815260200192505050604051602081830303815290604052905092915050565b606082826040516020018083805190602001908083835b602083106200096c578051825260208201915060208101905060208303925062000947565b6001836020036101000a03801982511681845116808217855250505050505090500182815260200192505050604051602081830303815290604052905092915050565b815481835581811115620009df57600402816004028360005260206000209182019101620009de919062000b5c565b5b505050565b828054600181600116156101000203166002900490600052602060002090601f016020900481019282601f1062000a2757805160ff191683800117855562000a58565b8280016001018555821562000a58579182015b8281111562000a5757825182559160200191906001019062000a3a565b5b50905062000a67919062000ba8565b5090565b81548183558181111562000a9b5760060281600602836000526020600020918201910162000a9a919062000bd0565b5b505050565b81548183558181111562000ad05760030281600302836000526020600020918201910162000acf919062000c38565b5b505050565b81548183558181111562000b055760060281600602836000526020600020918201910162000b04919062000c7e565b5b505050565b82805482825590600052602060002090810192821562000b49579160200282015b8281111562000b4857825182559160200191906001019062000b2b565b5b50905062000b58919062000cf0565b5090565b62000ba591905b8082111562000ba1576000808201600062000b7f919062000d18565b6001820160009055600282016000905560038201600090555060040162000b63565b5090565b90565b62000bcd91905b8082111562000bc957600081600090555060010162000baf565b5090565b90565b62000c3591905b8082111562000c3157600080820160009055600182016000905560028201600062000c03919062000d18565b600382016000905560048201600090556005820160006101000a81549060ff02191690555060060162000bd7565b5090565b90565b62000c7b91905b8082111562000c775760008082016000905560018201600090556002820160006101000a81549060ff02191690555060030162000c3f565b5090565b90565b62000ced91905b8082111562000ce95760008082016000905560018201600090556002820160006101000a81549060ff0219169055600382016000905560048201600062000ccd919062000d64565b60058201600062000cdf919062000d64565b5060060162000c85565b5090565b90565b62000d1591905b8082111562000d1157600081600090555060010162000cf7565b5090565b90565b50805460018160011615610100020316600290046000825580601f1062000d40575062000d61565b601f01602090049060005260206000209081019062000d60919062000ba8565b5b50565b508054600082559060005260206000209081019062000d84919062000cf0565b50565b6114c28062000d976000396000f3fe608060405234801561001057600080fd5b50600436106100a95760003560e01c80637898ac9d116100715780637898ac9d14610418578063a6e51cce14610505578063b0fc187514610547578063d179859c1461058d578063d185aafb146105d9578063ed272f721461063b576100a9565b806311902934146100ae578063170479b01461017d5780632e2ca08c1461024c57806354b8d5e31461029857806368ae55631461033f575b600080fd5b610167600480360360208110156100c457600080fd5b81019080803590602001906401000000008111156100e157600080fd5b8201836020820111156100f357600080fd5b8035906020019184600183028401116401000000008311171561011557600080fd5b91908080601f016020809104026020016040519081016040528093929190818152602001838380828437600081840152601f19601f82011690508083019250505050505050919291929050505061067d565b6040518082815260200191505060405180910390f35b6102366004803603602081101561019357600080fd5b81019080803590602001906401000000008111156101b057600080fd5b8201836020820111156101c257600080fd5b803590602001918460018302840111640100000000831117156101e457600080fd5b91908080601f016020809104026020016040519081016040528093929190818152602001838380828437600081840152601f19601f8201169050808301925050505050505091929192905050506106ab565b6040518082815260200191505060405180910390f35b6102826004803603604081101561026257600080fd5b8101908080359060200190929190803590602001909291905050506106d9565b6040518082815260200191505060405180910390f35b6102c4600480360360208110156102ae57600080fd5b8101908080359060200190929190505050610776565b6040518080602001828103825283818151815260200191508051906020019080838360005b838110156103045780820151818401526020810190506102e9565b50505050905090810190601f1680156103315780820380516001836020036101000a031916815260200191505b509250505060405180910390f35b6104026004803603604081101561035557600080fd5b810190808035906020019064010000000081111561037257600080fd5b82018360208201111561038457600080fd5b803590602001918460018302840111640100000000831117156103a657600080fd5b91908080601f016020809104026020016040519081016040528093929190818152602001838380828437600081840152601f19601f82011690508083019250505050505050919291929080359060200190929190505050610854565b6040518082815260200191505060405180910390f35b6104ef6004803603608081101561042e57600080fd5b8101908080359060200190929190803590602001909291908035906020019064010000000081111561045f57600080fd5b82018360208201111561047157600080fd5b8035906020019184600183028401116401000000008311171561049357600080fd5b91908080601f016020809104026020016040519081016040528093929190818152602001838380828437600081840152601f19601f820116905080830192505050505050509192919290803590602001909291905050506108e5565b6040518082815260200191505060405180910390f35b6105316004803603602081101561051b57600080fd5b81019080803590602001909291905050506108fd565b6040518082815260200191505060405180910390f35b6105736004803603602081101561055d57600080fd5b8101908080359060200190929190505050610915565b604051808215151515815260200191505060405180910390f35b6105c3600480360360408110156105a357600080fd5b810190808035906020019092919080359060200190929190505050610933565b6040518082815260200191505060405180910390f35b610625600480360360808110156105ef57600080fd5b81019080803590602001909291908035906020019092919080351515906020019092919080359060200190929190505050610947565b6040518082815260200191505060405180910390f35b6106676004803603602081101561065157600080fd5b810190808035906020019092919050505061095f565b6040518082815260200191505060405180910390f35b6002818051602081018201805184825260208301602085012081835280955050505050506000915090505481565b6004818051602081018201805184825260208301602085012081835280955050505050506000915090505481565b60008060008084815260200190815260200160002054905060006001828154811061070057fe5b906000526020600020906004020190508481600201819055508060030160008154809291906001019190505581600301819055507f166e2330253d37480aba732992b9720da8871bbc0aa0902860d2fa6bb3c0c9ee826040518082815260200191505060405180910390a1819250505092915050565b6060600080600084815260200190815260200160002054905060006001828154811061079e57fe5b90600052602060002090600402019050806000018054600181600116156101000203166002900480601f0160208091040260200160405190810160405280929190818152602001828054600181600116156101000203166002900480156108465780601f1061081b57610100808354040283529160200191610846565b820191906000526020600020905b81548152906001019060200180831161082957829003601f168201915b505050505092505050919050565b60008161086081610915565b6108d2576040517f08c379a00000000000000000000000000000000000000000000000000000000081526004018080602001828103825260178152602001807f5573657220616c7265616479207265676973746572656400000000000000000081525060200191505060405180910390fd5b6108dc8484610977565b91505092915050565b60006108f385858585610a8e565b9050949350505050565b60066020528060005260406000206000915090505481565b60008060008084815260200190815260200160002054149050919050565b600061093f8383610cb9565b905092915050565b600061095585858585610e83565b9050949350505050565b60006020528060005260406000206000915090505481565b6000806000808481526020019081526020016000205490506000811461099c57600080fd5b600180549050600080858152602001908152602001600020819055506000600180548091906001016109ce91906110f6565b9050604051806080016040528086815260200185815260200160018152602001600081525060018281548110610a0057fe5b90600052602060002090600402016000820151816000019080519060200190610a2a929190611128565b506020820151816001015560408201518160020155606082015181600301559050507f2456c02735fb44894660d2af194ca5261385d8ee03675e1d75b0da1300a764cd816040518082815260200191505060405180910390a1809250505092915050565b60006060610aa5610a9f8487611047565b87611079565b905060006002826040518082805190602001908083835b60208310610adf5780518252602082019150602081019050602083039250610abc565b6001836020036101000a038019825116818451168082178552505050505050905001915050908152602001604051809103902054905060008114610b2257600080fd5b6003805490506002836040518082805190602001908083835b60208310610b5e5780518252602082019150602081019050602083039250610b3b565b6001836020036101000a038019825116818451168082178552505050505050905001915050908152602001604051809103902081905550600060038054809190600101610bab91906111a8565b90506040518060c00160405280898152602001888152602001878152602001600081526020016000815260200160006002811115610be557fe5b81525060038281548110610bf557fe5b906000526020600020906006020160008201518160000155602082015181600101556040820151816002019080519060200190610c33929190611128565b50606082015181600301556080820151816004015560a08201518160050160006101000a81548160ff02191690836002811115610c6c57fe5b02179055509050507f4d777f60d952db1e3dfea06728df320f7aa655f4414c8b3cbf51c9acebfc36ca816040518082815260200191505060405180910390a1809350505050949350505050565b60006060610cc78385611047565b905060006004826040518082805190602001908083835b60208310610d015780518252602082019150602081019050602083039250610cde565b6001836020036101000a038019825116818451168082178552505050505050905001915050908152602001604051809103902054905060008114610d4457600080fd5b6005805490506004836040518082805190602001908083835b60208310610d805780518252602082019150602081019050602083039250610d5d565b6001836020036101000a038019825116818451168082178552505050505050905001915050908152602001604051809103902081905550600060058054809190600101610dcd91906111da565b90506040518060600160405280878152602001600581526020016000151581525060058281548110610dfb57fe5b9060005260206000209060030201600082015181600001556020820151816001015560408201518160020160006101000a81548160ff0219169083151502179055509050507f0f3d9e09584c5cc0d847a43722261995cfd30f4fe38460638362152b7771e68a816040518082815260200191505060405180910390a180935050505092915050565b6000806006600087815260200190815260200160002054905060008114610ea957600080fd5b6007805490506006600088815260200190815260200160002081905550600060078054809190600101610edc919061120c565b90506040518060c0016040528088815260200187815260200186151581526020018581526020016000604051908082528060200260200182016040528015610f335781602001602082028038833980820191505090505b5081526020016000604051908082528060200260200182016040528015610f695781602001602082028038833980820191505090505b5081525060078281548110610f7a57fe5b9060005260206000209060060201600082015181600001556020820151816001015560408201518160020160006101000a81548160ff021916908315150217905550606082015181600301556080820151816004019080519060200190610fe292919061123e565b5060a0820151816005019080519060200190610fff92919061123e565b509050507f9416073f46f5864caab2a94844ca0c65bc39406d4a6b051bf23d7f2045314688816040518082815260200191505060405180910390a18092505050949350505050565b606082826040516020018083815260200182815260200192505050604051602081830303815290604052905092915050565b606082826040516020018083805190602001908083835b602083106110b35780518252602082019150602081019050602083039250611090565b6001836020036101000a03801982511681845116808217855250505050505090500182815260200192505050604051602081830303815290604052905092915050565b81548183558181111561112357600402816004028360005260206000209182019101611122919061128b565b5b505050565b828054600181600116156101000203166002900490600052602060002090601f016020900481019282601f1061116957805160ff1916838001178555611197565b82800160010185558215611197579182015b8281111561119657825182559160200191906001019061117b565b5b5090506111a491906112d2565b5090565b8154818355818111156111d5576006028160060283600052602060002091820191016111d491906112f7565b5b505050565b81548183558181111561120757600302816003028360005260206000209182019101611206919061135a565b5b505050565b81548183558181111561123957600602816006028360005260206000209182019101611238919061139d565b5b505050565b82805482825590600052602060002090810192821561127a579160200282015b8281111561127957825182559160200191906001019061125e565b5b5090506112879190611408565b5090565b6112cf91905b808211156112cb57600080820160006112aa919061142d565b60018201600090556002820160009055600382016000905550600401611291565b5090565b90565b6112f491905b808211156112f05760008160009055506001016112d8565b5090565b90565b61135791905b80821115611353576000808201600090556001820160009055600282016000611326919061142d565b600382016000905560048201600090556005820160006101000a81549060ff0219169055506006016112fd565b5090565b90565b61139a91905b808211156113965760008082016000905560018201600090556002820160006101000a81549060ff021916905550600301611360565b5090565b90565b61140591905b808211156114015760008082016000905560018201600090556002820160006101000a81549060ff021916905560038201600090556004820160006113e89190611475565b6005820160006113f89190611475565b506006016113a3565b5090565b90565b61142a91905b8082111561142657600081600090555060010161140e565b5090565b90565b50805460018160011615610100020316600290046000825580601f106114535750611472565b601f01602090049060005260206000209081019061147191906112d2565b5b50565b50805460008255906000526020600020908101906114939190611408565b5056fea165627a7a723058203d71b513d3306f3f674ed09f1b21d8e0fa8133fdf5d7aa58a9f8b10a14ecc5640029",
  "source": "pragma solidity ^0.5.0;\r\n\r\nimport \"./ConcatHelper.sol\";\r\nimport \"./UserManager.sol\";\r\nimport \"./CommentManager.sol\";\r\nimport \"./ParticipantManager.sol\";\r\n\r\ncontract DiscussionManager is UserManager, CommentManager, ParticipantManager {\r\n\r\n    //struct with the basic discussion information\r\n    struct Discussion {\r\n        // title of the discussion topic\r\n        bytes32 title;\r\n        // initiator of the discussion\r\n        bytes32 initiator;\r\n        // the discussion is private or not\r\n        bool isPrivate;\r\n        // moderator reputation level\r\n        uint moderatorLev;\r\n        // array of commentIDS\r\n        bytes32[] disComment;\r\n        // array of participantIDS\r\n        bytes32[] disParticipant;\r\n    }\r\n\r\n    //map with key user_address and value a number\r\n    mapping(bytes32 => uint) public discussionIds;\r\n\r\n    // Array of User that participate to discussions\r\n    Discussion[] discussions;\r\n\r\n    // event fired when an discussion is registered\r\n    event newDiscussionRegistered(uint id);\r\n\r\n    constructor() public{\r\n        // NOTE: the first discussion and participant MUST be emtpy:\r\n        // if you are trying to access to an element\r\n        // of the discussionIds mapping that does not exist you will\r\n        // receive 0, that's why in the first position (with index 0) must be initialized\r\n        addDiscussion(\"\", \"\", false, 0);\r\n        //addParticipant(\"\", 0, false);\r\n    }\r\n    /**\r\n    * Function to register a new discussion.\r\n    *\r\n    * @param _title The displaying title\r\n    * @param _initiator The initiator address\r\n    * @param _isPrivate discussion public or private\r\n    * @param _moderatorLev reputation level to participate to the discussion\r\n    */\r\n    function registerDiscussion(\r\n        bytes32 _title,\r\n        bytes32 _initiator,\r\n        bool _isPrivate,\r\n        uint _moderatorLev)\r\n    public returns (uint) {\r\n        return addDiscussion(_title, _initiator, _isPrivate, _moderatorLev);\r\n    }\r\n\r\n    /**\r\n    * Add a new discussion. This function must be private because an user\r\n    * cannot insert other information about comment and participant\r\n    *\r\n    * @param _title title of discussion\r\n    * @param _initiator address of initiator of discussion\r\n    * @param _isPrivate discussion public or private\r\n    * @param _moderatorLev reputation level to become moderator\r\n    */\r\n    function addDiscussion(\r\n        bytes32 _title,\r\n        bytes32 _initiator,\r\n        bool _isPrivate,\r\n        uint _moderatorLev)\r\n    private returns (uint) {\r\n        // checking if the discussion is already registered\r\n        uint discussionId = discussionIds[_title];\r\n        require(discussionId == 0);\r\n        // associating the title of discussion with the new ID\r\n        discussionIds[_title] = discussions.length;\r\n        uint newDiscussionId = discussions.length++;\r\n        // storing the new user details\r\n        discussions[newDiscussionId] = Discussion({\r\n            title : _title,\r\n            initiator : _initiator,\r\n            isPrivate : _isPrivate,\r\n            moderatorLev : _moderatorLev,\r\n            //new bytes32[] empty\r\n            disComment : new bytes32[](0),\r\n            //new bytes32[] empty\r\n            disParticipant : new bytes32[](0)\r\n            });\r\n        // emitting the event that a new user has been registered\r\n        emit newDiscussionRegistered(newDiscussionId);\r\n        return newDiscussionId;\r\n    }\r\n\r\n}\r\n",
  "sourcePath": "C:/Users/Giulia/IdeaProjects/BlockArt_Project/block-art/blockart-blockchain/contracts/DiscussionManager.sol",
  "compiler": {
    "name": "solc",
    "version": "0.5.8+commit.23d335f2.Emscripten.clang"
  },
  "schemaVersion": "3.0.13",
  "updatedAt": "2019-09-10T13:29:56.043Z",
  "devdoc": {
    "methods": {
      "registerComment(bytes32,bytes32,string,bytes32)": {
        "params": {
          "_author": "the address of the author\r",
          "_content": "the content of the comment\r",
          "_title": "title of the comment\r"
        }
      },
      "registerDiscussion(bytes32,bytes32,bool,uint256)": {
        "params": {
          "_initiator": "The initiator address\r",
          "_isPrivate": "discussion public or private\r",
          "_moderatorLev": "reputation level to participate to the discussion\r",
          "_title": "The displaying title\r"
        }
      },
      "registerParticipant(bytes32,bytes32)": {
        "params": {
          "_addressPar": "address of participant\r",
          "_discussionTitle": "Title of the discussion\r"
        }
      },
      "registerUser(string,bytes32)": {
        "params": {
          "_username": "The displaying name*\r"
        }
      },
      "updateReputaion(uint256,bytes32)": {
        "params": {
          "_address": "of the updated profile\r",
          "_newEvaluation": "The new user's displaying name\r"
        }
      }
    }
  },
  "userdoc": {
    "methods": {
      "isNotRegistered(bytes32)": {
        "notice": "Check if the user that is calling the smart contract is registered.\r"
      },
      "registerComment(bytes32,bytes32,string,bytes32)": {
        "notice": "Function to register a new comment.\r "
      },
      "registerDiscussion(bytes32,bytes32,bool,uint256)": {
        "notice": "Function to register a new discussion.\r "
      },
      "registerParticipant(bytes32,bytes32)": {
        "notice": "Function to register a new participant to the discussion.\r "
      },
      "registerUser(string,bytes32)": {
        "notice": "Function to register a new user.\r "
      },
      "updateReputaion(uint256,bytes32)": {
        "notice": "Update the evaluation of the user calling this method.\r Note: only the evaluation has been validate profile is update.\r "
      }
    }
  }
}