{
  "contractName": "DiscussionManager",
  "abi": [
    {
      "constant": true,
      "inputs": [
        {
          "name": "_id",
          "type": "uint256"
        }
      ],
      "name": "getComment",
      "outputs": [
        {
          "name": "",
          "type": "bytes32"
        },
        {
          "name": "",
          "type": "bytes32"
        },
        {
          "name": "",
          "type": "string"
        },
        {
          "name": "",
          "type": "uint256"
        },
        {
          "name": "",
          "type": "uint256"
        },
        {
          "name": "",
          "type": "bytes32"
        }
      ],
      "payable": false,
      "stateMutability": "view",
      "type": "function"
    },
    {
      "constant": true,
      "inputs": [
        {
          "name": "",
          "type": "bytes"
        }
      ],
      "name": "commentIds",
      "outputs": [
        {
          "name": "",
          "type": "uint256"
        }
      ],
      "payable": false,
      "stateMutability": "view",
      "type": "function"
    },
    {
      "constant": true,
      "inputs": [
        {
          "name": "",
          "type": "bytes"
        }
      ],
      "name": "participantIds",
      "outputs": [
        {
          "name": "",
          "type": "uint256"
        }
      ],
      "payable": false,
      "stateMutability": "view",
      "type": "function"
    },
    {
      "constant": false,
      "inputs": [
        {
          "name": "_newEvaluation",
          "type": "uint256"
        },
        {
          "name": "_address",
          "type": "bytes32"
        }
      ],
      "name": "updateReputaion",
      "outputs": [
        {
          "name": "",
          "type": "uint256"
        }
      ],
      "payable": false,
      "stateMutability": "nonpayable",
      "type": "function"
    },
    {
      "constant": true,
      "inputs": [
        {
          "name": "_address",
          "type": "bytes32"
        }
      ],
      "name": "getName",
      "outputs": [
        {
          "name": "",
          "type": "string"
        }
      ],
      "payable": false,
      "stateMutability": "view",
      "type": "function"
    },
    {
      "constant": true,
      "inputs": [],
      "name": "getNumComments",
      "outputs": [
        {
          "name": "",
          "type": "uint256"
        }
      ],
      "payable": false,
      "stateMutability": "view",
      "type": "function"
    },
    {
      "constant": false,
      "inputs": [
        {
          "name": "_username",
          "type": "string"
        },
        {
          "name": "_address",
          "type": "bytes32"
        }
      ],
      "name": "registerUser",
      "outputs": [
        {
          "name": "",
          "type": "uint256"
        }
      ],
      "payable": false,
      "stateMutability": "nonpayable",
      "type": "function"
    },
    {
      "constant": false,
      "inputs": [
        {
          "name": "_author",
          "type": "bytes32"
        },
        {
          "name": "_title",
          "type": "bytes32"
        },
        {
          "name": "_content",
          "type": "string"
        },
        {
          "name": "_discussionTitle",
          "type": "bytes32"
        }
      ],
      "name": "registerComment",
      "outputs": [
        {
          "name": "",
          "type": "uint256"
        }
      ],
      "payable": false,
      "stateMutability": "nonpayable",
      "type": "function"
    },
    {
      "constant": true,
      "inputs": [
        {
          "name": "_author",
          "type": "bytes32"
        },
        {
          "name": "_commentTitle",
          "type": "bytes32"
        },
        {
          "name": "_discussionTitle",
          "type": "bytes32"
        },
        {
          "name": "_voter",
          "type": "bytes32"
        }
      ],
      "name": "isNotAlreadyVoted",
      "outputs": [
        {
          "name": "",
          "type": "bool"
        }
      ],
      "payable": false,
      "stateMutability": "view",
      "type": "function"
    },
    {
      "constant": true,
      "inputs": [
        {
          "name": "",
          "type": "bytes32"
        }
      ],
      "name": "discussionIds",
      "outputs": [
        {
          "name": "",
          "type": "uint256"
        }
      ],
      "payable": false,
      "stateMutability": "view",
      "type": "function"
    },
    {
      "constant": true,
      "inputs": [
        {
          "name": "_address",
          "type": "bytes32"
        }
      ],
      "name": "isNotRegistered",
      "outputs": [
        {
          "name": "",
          "type": "bool"
        }
      ],
      "payable": false,
      "stateMutability": "view",
      "type": "function"
    },
    {
      "constant": true,
      "inputs": [
        {
          "name": "_author",
          "type": "bytes32"
        },
        {
          "name": "_commentTitle",
          "type": "bytes32"
        },
        {
          "name": "_discussionTitle",
          "type": "bytes32"
        }
      ],
      "name": "getVote",
      "outputs": [
        {
          "name": "",
          "type": "uint256"
        },
        {
          "name": "",
          "type": "uint256"
        }
      ],
      "payable": false,
      "stateMutability": "view",
      "type": "function"
    },
    {
      "constant": true,
      "inputs": [
        {
          "name": "_address",
          "type": "bytes32"
        }
      ],
      "name": "getReputation",
      "outputs": [
        {
          "name": "",
          "type": "uint256"
        }
      ],
      "payable": false,
      "stateMutability": "view",
      "type": "function"
    },
    {
      "constant": false,
      "inputs": [
        {
          "name": "_addressPar",
          "type": "bytes32"
        },
        {
          "name": "_discussionTitle",
          "type": "bytes32"
        }
      ],
      "name": "registerParticipant",
      "outputs": [
        {
          "name": "",
          "type": "uint256"
        }
      ],
      "payable": false,
      "stateMutability": "nonpayable",
      "type": "function"
    },
    {
      "constant": true,
      "inputs": [
        {
          "name": "",
          "type": "bytes32"
        }
      ],
      "name": "usersIds",
      "outputs": [
        {
          "name": "",
          "type": "uint256"
        }
      ],
      "payable": false,
      "stateMutability": "view",
      "type": "function"
    },
    {
      "constant": false,
      "inputs": [
        {
          "name": "_author",
          "type": "bytes32"
        },
        {
          "name": "_commentTitle",
          "type": "bytes32"
        },
        {
          "name": "_discussionTitle",
          "type": "bytes32"
        },
        {
          "name": "_voter",
          "type": "bytes32"
        },
        {
          "name": "_isPosVote",
          "type": "bool"
        }
      ],
      "name": "registerVote",
      "outputs": [
        {
          "name": "",
          "type": "uint256"
        }
      ],
      "payable": false,
      "stateMutability": "nonpayable",
      "type": "function"
    },
    {
      "inputs": [],
      "payable": false,
      "stateMutability": "nonpayable",
      "type": "constructor"
    },
    {
      "anonymous": false,
      "inputs": [
        {
          "indexed": false,
          "name": "title",
          "type": "bytes32"
        }
      ],
      "name": "newDiscussionRegistered",
      "type": "event"
    },
    {
      "anonymous": false,
      "inputs": [
        {
          "indexed": false,
          "name": "id",
          "type": "uint256"
        }
      ],
      "name": "newParticipantRegistered",
      "type": "event"
    },
    {
      "anonymous": false,
      "inputs": [
        {
          "indexed": false,
          "name": "id",
          "type": "uint256"
        }
      ],
      "name": "newCommentRegistered",
      "type": "event"
    },
    {
      "anonymous": false,
      "inputs": [
        {
          "indexed": false,
          "name": "username",
          "type": "string"
        }
      ],
      "name": "newUserRegistered",
      "type": "event"
    },
    {
      "anonymous": false,
      "inputs": [
        {
          "indexed": false,
          "name": "isNotregistered",
          "type": "bool"
        }
      ],
      "name": "isNotRegisteredEvent",
      "type": "event"
    },
    {
      "anonymous": false,
      "inputs": [
        {
          "indexed": false,
          "name": "id",
          "type": "uint256"
        }
      ],
      "name": "userUpdateRepEvent",
      "type": "event"
    },
    {
      "constant": false,
      "inputs": [
        {
          "name": "_title",
          "type": "bytes32"
        },
        {
          "name": "_initiator",
          "type": "bytes32"
        }
      ],
      "name": "registerDiscussion",
      "outputs": [
        {
          "name": "",
          "type": "uint256"
        }
      ],
      "payable": false,
      "stateMutability": "nonpayable",
      "type": "function"
    },
    {
      "constant": false,
      "inputs": [
        {
          "name": "_address",
          "type": "bytes32"
        },
        {
          "name": "_id",
          "type": "bytes32"
        },
        {
          "name": "_percentage",
          "type": "uint256"
        }
      ],
      "name": "setParticipantPer",
      "outputs": [
        {
          "name": "",
          "type": "uint256"
        }
      ],
      "payable": false,
      "stateMutability": "nonpayable",
      "type": "function"
    },
    {
      "constant": true,
      "inputs": [
        {
          "name": "_address",
          "type": "bytes32"
        },
        {
          "name": "_id",
          "type": "bytes32"
        }
      ],
      "name": "getParticipantPer",
      "outputs": [
        {
          "name": "",
          "type": "uint256"
        }
      ],
      "payable": false,
      "stateMutability": "view",
      "type": "function"
    },
    {
      "constant": true,
      "inputs": [
        {
          "name": "_id",
          "type": "uint256"
        }
      ],
      "name": "getDiscussions",
      "outputs": [
        {
          "name": "",
          "type": "bytes32"
        },
        {
          "name": "",
          "type": "bytes32"
        }
      ],
      "payable": false,
      "stateMutability": "view",
      "type": "function"
    },
    {
      "constant": true,
      "inputs": [],
      "name": "getNumDiscussion",
      "outputs": [
        {
          "name": "",
          "type": "uint256"
        }
      ],
      "payable": false,
      "stateMutability": "view",
      "type": "function"
    }
  ],
  "bytecode": "0x60806040523480156200001157600080fd5b5062000053604051806020016040528060008152507f3078300000000000000000000000000000000000000000000000000000000000620001e060201b60201c565b50620000bb6040518060400160405280600a81526020017f4c656f6e2042726f776e000000000000000000000000000000000000000000008152507f3078333333333333333333333333000000000000000000000000000000000000620001e060201b60201c565b50620001236040518060400160405280600a81526020017f4a6f686e20446f656e74000000000000000000000000000000000000000000008152507f3078313131313131313131313131000000000000000000000000000000000000620001e060201b60201c565b506200018b6040518060400160405280600a81526020017f4d61727920536d697468000000000000000000000000000000000000000000008152507f3078323232323232323232323232000000000000000000000000000000000000620001e060201b60201c565b50620001b16000806040518060200160405280600081525060006200033960201b60201c565b50620001c5600080620005a660201b60201c565b50620001d9600080620006f160201b60201c565b5062000e98565b600080600080848152602001908152602001600020549050600081146200020657600080fd5b600180549050600080858152602001908152602001600020819055506000600180548091906001016200023a919062000871565b90506040518060800160405280868152602001858152602001600181526020016000815250600182815481106200026d57fe5b9060005260206000209060040201600082015181600001908051906020019062000299929190620008a6565b506020820151816001015560408201518160020155606082015181600301559050507f23bf3c3382eca35efcabbb4d1accad8939015a59d506e31e3df91c52840bdcb585604051620002ec919062000db4565b60405180910390a17fcc21b0efbc250b64650c3b8471125011264361ab421b7adca1f3cb7a0eedb8dc600060405162000326919062000d7a565b60405180910390a1809250505092915050565b600060606200036a6200035884876200081560201b6200107d1760201c565b876200084360201b620010a91760201c565b9050600060028260405162000380919062000d35565b9081526020016040518091039020549050600081146200039f57600080fd5b600380549050600283604051620003b7919062000d35565b908152602001604051809103902081905550600060038054809190600101620003e191906200092d565b90506040518061010001604052808981526020018881526020018781526020016000815260200160008152602001868152602001600060028111156200042357fe5b81526020016000604051908082528060200260200182016040528015620004595781602001602082028038833980820191505090505b50815250600382815481106200046b57fe5b906000526020600020906008020160008201518160000155602082015181600101556040820151816002019080519060200190620004ab929190620008a6565b50606082015181600301556080820151816004015560a0820151816005015560c08201518160060160006101000a81548160ff02191690836002811115620004ef57fe5b021790555060e08201518160070190805190602001906200051292919062000962565b509050507f4d777f60d952db1e3dfea06728df320f7aa655f4414c8b3cbf51c9acebfc36ca8160405162000547919062000dd8565b60405180910390a1600381815481106200055d57fe5b9060005260206000209060080201600701889080600181540180825580915050906001820390600052602060002001600090919290919091505550809350505050949350505050565b60006060620005c183856200081560201b6200107d1760201c565b90506000600482604051620005d7919062000d35565b908152602001604051809103902054905060008114620005f657600080fd5b6005805490506004836040516200060e919062000d35565b908152602001604051809103902081905550600060058054809190600101620006389190620009b4565b905060405180606001604052808781526020016005815260200160001515815250600582815481106200066757fe5b9060005260206000209060030201600082015181600001556020820151816001015560408201518160020160006101000a81548160ff0219169083151502179055509050507f0f3d9e09584c5cc0d847a43722261995cfd30f4fe38460638362152b7771e68a81604051620006dd919062000dd8565b60405180910390a180935050505092915050565b60008060066000858152602001908152602001600020549050600081146200071857600080fd5b60078054905060066000868152602001908152602001600020819055506000600780548091906001016200074d9190620009e9565b905060405180608001604052808681526020018581526020016000151581526020016001815250600782815481106200078257fe5b9060005260206000209060050201600082015181600001556020820151816001015560408201518160020160006101000a81548160ff021916908315150217905550606082015181600301559050507fe2449a71edd452d1a824a15f9fe9fe482da83a13ca7d147db40cf8eac3e0f1448560405162000802919062000d97565b60405180910390a1819250505092915050565b606082826040516020016200082c92919062000d05565b604051602081830303815290604052905092915050565b606082826040516020016200085a92919062000d4e565b604051602081830303815290604052905092915050565b815481835581811115620008a157600402816004028360005260206000209182019101620008a0919062000a1e565b5b505050565b828054600181600116156101000203166002900490600052602060002090601f016020900481019282601f10620008e957805160ff19168380011785556200091a565b828001600101855582156200091a579182015b8281111562000919578251825591602001919060010190620008fc565b5b50905062000929919062000a6a565b5090565b8154818355818111156200095d576008028160080283600052602060002091820191016200095c919062000a92565b5b505050565b828054828255906000526020600020908101928215620009a1579160200282015b82811115620009a057825182559160200191906001019062000983565b5b509050620009b0919062000b14565b5090565b815481835581811115620009e457600302816003028360005260206000209182019101620009e3919062000b3c565b5b505050565b81548183558181111562000a195760050281600502836000526020600020918201910162000a18919062000b82565b5b505050565b62000a6791905b8082111562000a63576000808201600062000a41919062000bd0565b6001820160009055600282016000905560038201600090555060040162000a25565b5090565b90565b62000a8f91905b8082111562000a8b57600081600090555060010162000a71565b5090565b90565b62000b1191905b8082111562000b0d57600080820160009055600182016000905560028201600062000ac5919062000bd0565b6003820160009055600482016000905560058201600090556006820160006101000a81549060ff021916905560078201600062000b03919062000c1c565b5060080162000a99565b5090565b90565b62000b3991905b8082111562000b3557600081600090555060010162000b1b565b5090565b90565b62000b7f91905b8082111562000b7b5760008082016000905560018201600090556002820160006101000a81549060ff02191690555060030162000b43565b5090565b90565b62000bcd91905b8082111562000bc95760008082016000905560018201600090556002820160006101000a81549060ff021916905560038201600090555060050162000b89565b5090565b90565b50805460018160011615610100020316600290046000825580601f1062000bf8575062000c19565b601f01602090049060005260206000209081019062000c18919062000a6a565b5b50565b508054600082559060005260206000209081019062000c3c919062000b14565b50565b62000c4a8162000e27565b82525050565b62000c5b8162000e33565b82525050565b62000c7662000c708262000e33565b62000e7d565b82525050565b600062000c898262000df5565b62000c95818562000e0b565b935062000ca781856020860162000e47565b80840191505092915050565b600062000cc08262000e00565b62000ccc818562000e16565b935062000cde81856020860162000e47565b62000ce98162000e87565b840191505092915050565b62000cff8162000e3d565b82525050565b600062000d13828562000c61565b60208201915062000d25828462000c61565b6020820191508190509392505050565b600062000d43828462000c7c565b915081905092915050565b600062000d5c828562000c7c565b915062000d6a828462000c61565b6020820191508190509392505050565b600060208201905062000d91600083018462000c3f565b92915050565b600060208201905062000dae600083018462000c50565b92915050565b6000602082019050818103600083015262000dd0818462000cb3565b905092915050565b600060208201905062000def600083018462000cf4565b92915050565b600081519050919050565b600081519050919050565b600081905092915050565b600082825260208201905092915050565b60008115159050919050565b6000819050919050565b6000819050919050565b60005b8381101562000e6757808201518184015260208101905062000e4a565b8381111562000e77576000848401525b50505050565b6000819050919050565b6000601f19601f8301169050919050565b611f5d8062000ea86000396000f3fe608060405234801561001057600080fd5b50600436106101375760003560e01c80637bb91ece116100b8578063c3de9c511161007c578063c3de9c51146103ee578063d14519d21461041f578063d179859c1461044f578063d6d149331461047f578063ed272f72146104af578063fd67b161146104df57610137565b80637bb91ece146102fd57806393cdc1c71461032d5780639f0081081461035d578063a6e51cce1461038e578063b0fc1875146103be57610137565b806354b8d5e3116100ff57806354b8d5e314610231578063683d60b71461026157806368ae55631461027f5780636fd18554146102af5780637898ac9d146102cd57610137565b80630800e3001461013c5780630e6f746b1461017157806311902934146101a1578063170479b0146101d15780632e2ca08c14610201575b600080fd5b61015660048036036101519190810190611a3f565b61050f565b60405161016896959493929190611c9c565b60405180910390f35b61018b6004803603610186919081019061195b565b610606565b6040516101989190611d66565b60405180910390f35b6101bb60048036036101b691908101906119aa565b61061c565b6040516101c89190611d66565b60405180910390f35b6101eb60048036036101e691908101906119aa565b61064a565b6040516101f89190611d66565b60405180910390f35b61021b60048036036102169190810190611a68565b610678565b6040516102289190611d66565b60405180910390f35b61024b60048036036102469190810190611752565b610715565b6040516102589190611d04565b60405180910390f35b6102696107f3565b6040516102769190611d66565b60405180910390f35b610299600480360361029491908101906119eb565b610800565b6040516102a69190611d66565b60405180910390f35b6102b761085e565b6040516102c49190611d66565b60405180910390f35b6102e760048036036102e291908101906118e0565b61086b565b6040516102f49190611d66565b60405180910390f35b6103176004803603610312919081019061177b565b610883565b6040516103249190611d66565b60405180910390f35b61034760048036036103429190810190611806565b610897565b6040516103549190611c3d565b60405180910390f35b61037760048036036103729190810190611a3f565b61095a565b604051610385929190611c73565b60405180910390f35b6103a860048036036103a39190810190611752565b610990565b6040516103b59190611d66565b60405180910390f35b6103d860048036036103d39190810190611752565b6109a8565b6040516103e59190611c3d565b60405180910390f35b610408600480360361040391908101906117b7565b6109c6565b604051610416929190611d81565b60405180910390f35b61043960048036036104349190810190611752565b610a3b565b6040516104469190611d66565b60405180910390f35b6104696004803603610464919081019061177b565b610a80565b6040516104769190611d66565b60405180910390f35b6104996004803603610494919081019061177b565b610a94565b6040516104a69190611d66565b60405180910390f35b6104c960048036036104c49190810190611752565b610aec565b6040516104d69190611d66565b60405180910390f35b6104f960048036036104f49190810190611869565b610b04565b6040516105069190611d66565b60405180910390f35b60008060606000806000806003888154811061052757fe5b906000526020600020906008020190508060000154816001015482600201836003015484600401548560050154838054600181600116156101000203166002900480601f0160208091040260200160405190810160405280929190818152602001828054600181600116156101000203166002900480156105e95780601f106105be576101008083540402835291602001916105e9565b820191906000526020600020905b8154815290600101906020018083116105cc57829003601f168201915b505050505093509650965096509650965096505091939550919395565b6000610613848484610b71565b90509392505050565b6002818051602081018201805184825260208301602085012081835280955050505050506000915090505481565b6004818051602081018201805184825260208301602085012081835280955050505050506000915090505481565b60008060008084815260200190815260200160002054905060006001828154811061069f57fe5b906000526020600020906004020190508481600201819055508060030160008154809291906001019190505581600301819055507f166e2330253d37480aba732992b9720da8871bbc0aa0902860d2fa6bb3c0c9ee826040516107029190611d66565b60405180910390a1819250505092915050565b6060600080600084815260200190815260200160002054905060006001828154811061073d57fe5b90600052602060002090600402019050806000018054600181600116156101000203166002900480601f0160208091040260200160405190810160405280929190818152602001828054600181600116156101000203166002900480156107e55780601f106107ba576101008083540402835291602001916107e5565b820191906000526020600020905b8154815290600101906020018083116107c857829003601f168201915b505050505092505050919050565b6000600380549050905090565b60008161080c816109a8565b61084b576040517f08c379a000000000000000000000000000000000000000000000000000000000815260040161084290611d46565b60405180910390fd5b6108558484610bcf565b91505092915050565b6000600780549050905090565b600061087985858585610d1e565b9050949350505050565b600061088f8383610f5f565b905092915050565b600060606108ae6108a8858761107d565b876110a9565b905060006002826040516108c29190611bfe565b90815260200160405180910390205490506000600382815481106108e257fe5b9060005260206000209060080201905060006001905060005b8260070180549050811015610949578683600701828154811061091a57fe5b9060005260206000200154141561093c57600091508195505050505050610952565b80806001019150506108fb565b50809450505050505b949350505050565b60008060006007848154811061096c57fe5b90600052602060002090600502019050806000015481600101549250925050915091565b60066020528060005260406000206000915090505481565b60008060008084815260200190815260200160002054149050919050565b60008060606109de6109d8858761107d565b876110a9565b905060006002826040516109f29190611bfe565b9081526020016040518091039020549050600060038281548110610a1257fe5b906000526020600020906008020190508060030154816004015494509450505050935093915050565b600080600080848152602001908152602001600020549050600060018281548110610a6257fe5b90600052602060002090600402019050806002015492505050919050565b6000610a8c83836110d5565b905092915050565b60008060066000848152602001908152602001600020549050600060078281548110610abc57fe5b90600052602060002090600502019050806004016000868152602001908152602001600020549250505092915050565b60006020528060005260406000206000915090505481565b600085858585610b1684848484610897565b610b55576040517f08c379a0000000000000000000000000000000000000000000000000000000008152600401610b4c90611d26565b60405180910390fd5b610b628a8a8a8a8a611209565b94505050505095945050505050565b60008060066000858152602001908152602001600020549050600060078281548110610b9957fe5b90600052602060002090600502019050838160040160008881526020019081526020016000208190555081925050509392505050565b60008060008084815260200190815260200160002054905060008114610bf457600080fd5b60018054905060008085815260200190815260200160002081905550600060018054809190600101610c2691906112d3565b9050604051806080016040528086815260200185815260200160018152602001600081525060018281548110610c5857fe5b90600052602060002090600402016000820151816000019080519060200190610c82929190611305565b506020820151816001015560408201518160020155606082015181600301559050507f23bf3c3382eca35efcabbb4d1accad8939015a59d506e31e3df91c52840bdcb585604051610cd39190611d04565b60405180910390a17fcc21b0efbc250b64650c3b8471125011264361ab421b7adca1f3cb7a0eedb8dc6000604051610d0b9190611c3d565b60405180910390a1809250505092915050565b60006060610d35610d2f848761107d565b876110a9565b90506000600282604051610d499190611bfe565b908152602001604051809103902054905060008114610d6757600080fd5b600380549050600283604051610d7d9190611bfe565b908152602001604051809103902081905550600060038054809190600101610da59190611385565b9050604051806101000160405280898152602001888152602001878152602001600081526020016000815260200186815260200160006002811115610de657fe5b81526020016000604051908082528060200260200182016040528015610e1b5781602001602082028038833980820191505090505b5081525060038281548110610e2c57fe5b906000526020600020906008020160008201518160000155602082015181600101556040820151816002019080519060200190610e6a929190611305565b50606082015181600301556080820151816004015560a0820151816005015560c08201518160060160006101000a81548160ff02191690836002811115610ead57fe5b021790555060e0820151816007019080519060200190610ece9291906113b7565b509050507f4d777f60d952db1e3dfea06728df320f7aa655f4414c8b3cbf51c9acebfc36ca81604051610f019190611d66565b60405180910390a160038181548110610f1657fe5b9060005260206000209060080201600701889080600181540180825580915050906001820390600052602060002001600090919290919091505550809350505050949350505050565b6000806006600085815260200190815260200160002054905060008114610f8557600080fd5b6007805490506006600086815260200190815260200160002081905550600060078054809190600101610fb89190611404565b90506040518060800160405280868152602001858152602001600015158152602001600181525060078281548110610fec57fe5b9060005260206000209060050201600082015181600001556020820151816001015560408201518160020160006101000a81548160ff021916908315150217905550606082015181600301559050507fe2449a71edd452d1a824a15f9fe9fe482da83a13ca7d147db40cf8eac3e0f1448560405161106a9190611c58565b60405180910390a1819250505092915050565b60608282604051602001611092929190611bd2565b604051602081830303815290604052905092915050565b606082826040516020016110be929190611c15565b604051602081830303815290604052905092915050565b600060606110e3838561107d565b905060006004826040516110f79190611bfe565b90815260200160405180910390205490506000811461111557600080fd5b60058054905060048360405161112b9190611bfe565b9081526020016040518091039020819055506000600580548091906001016111539190611436565b9050604051806060016040528087815260200160058152602001600015158152506005828154811061118157fe5b9060005260206000209060030201600082015181600001556020820151816001015560408201518160020160006101000a81548160ff0219169083151502179055509050507f0f3d9e09584c5cc0d847a43722261995cfd30f4fe38460638362152b7771e68a816040516111f59190611d66565b60405180910390a180935050505092915050565b6000606061122061121a868861107d565b886110a9565b905060006002826040516112349190611bfe565b908152602001604051809103902054905060006003828154811061125457fe5b906000526020600020906008020190508060070186908060018154018082558091505090600182039060005260206000200160009091929091909150555084156112b057600181600301600082825401925050819055506112c4565b600181600401600082825401925050819055505b81935050505095945050505050565b815481835581811115611300576004028160040283600052602060002091820191016112ff9190611468565b5b505050565b828054600181600116156101000203166002900490600052602060002090601f016020900481019282601f1061134657805160ff1916838001178555611374565b82800160010185558215611374579182015b82811115611373578251825591602001919060010190611358565b5b50905061138191906114af565b5090565b8154818355818111156113b2576008028160080283600052602060002091820191016113b191906114d4565b5b505050565b8280548282559060005260206000209081019282156113f3579160200282015b828111156113f25782518255916020019190600101906113d7565b5b509050611400919061154f565b5090565b815481835581811115611431576005028160050283600052602060002091820191016114309190611574565b5b505050565b8154818355818111156114635760030281600302836000526020600020918201910161146291906115bf565b5b505050565b6114ac91905b808211156114a857600080820160006114879190611602565b6001820160009055600282016000905560038201600090555060040161146e565b5090565b90565b6114d191905b808211156114cd5760008160009055506001016114b5565b5090565b90565b61154c91905b808211156115485760008082016000905560018201600090556002820160006115039190611602565b6003820160009055600482016000905560058201600090556006820160006101000a81549060ff021916905560078201600061153f919061164a565b506008016114da565b5090565b90565b61157191905b8082111561156d576000816000905550600101611555565b5090565b90565b6115bc91905b808211156115b85760008082016000905560018201600090556002820160006101000a81549060ff021916905560038201600090555060050161157a565b5090565b90565b6115ff91905b808211156115fb5760008082016000905560018201600090556002820160006101000a81549060ff0219169055506003016115c5565b5090565b90565b50805460018160011615610100020316600290046000825580601f106116285750611647565b601f01602090049060005260206000209081019061164691906114af565b5b50565b5080546000825590600052602060002090810190611668919061154f565b50565b60008135905061167a81611ede565b92915050565b60008135905061168f81611ef5565b92915050565b600082601f8301126116a657600080fd5b81356116b96116b482611dd7565b611daa565b915080825260208301602083018583830111156116d557600080fd5b6116e0838284611e81565b50505092915050565b600082601f8301126116fa57600080fd5b813561170d61170882611e03565b611daa565b9150808252602083016020830185838301111561172957600080fd5b611734838284611e81565b50505092915050565b60008135905061174c81611f0c565b92915050565b60006020828403121561176457600080fd5b600061177284828501611680565b91505092915050565b6000806040838503121561178e57600080fd5b600061179c85828601611680565b92505060206117ad85828601611680565b9150509250929050565b6000806000606084860312156117cc57600080fd5b60006117da86828701611680565b93505060206117eb86828701611680565b92505060406117fc86828701611680565b9150509250925092565b6000806000806080858703121561181c57600080fd5b600061182a87828801611680565b945050602061183b87828801611680565b935050604061184c87828801611680565b925050606061185d87828801611680565b91505092959194509250565b600080600080600060a0868803121561188157600080fd5b600061188f88828901611680565b95505060206118a088828901611680565b94505060406118b188828901611680565b93505060606118c288828901611680565b92505060806118d38882890161166b565b9150509295509295909350565b600080600080608085870312156118f657600080fd5b600061190487828801611680565b945050602061191587828801611680565b935050604085013567ffffffffffffffff81111561193257600080fd5b61193e878288016116e9565b925050606061194f87828801611680565b91505092959194509250565b60008060006060848603121561197057600080fd5b600061197e86828701611680565b935050602061198f86828701611680565b92505060406119a08682870161173d565b9150509250925092565b6000602082840312156119bc57600080fd5b600082013567ffffffffffffffff8111156119d657600080fd5b6119e284828501611695565b91505092915050565b600080604083850312156119fe57600080fd5b600083013567ffffffffffffffff811115611a1857600080fd5b611a24858286016116e9565b9250506020611a3585828601611680565b9150509250929050565b600060208284031215611a5157600080fd5b6000611a5f8482850161173d565b91505092915050565b60008060408385031215611a7b57600080fd5b6000611a898582860161173d565b9250506020611a9a85828601611680565b9150509250929050565b611aad81611e61565b82525050565b611abc81611e6d565b82525050565b611ad3611ace82611e6d565b611ec3565b82525050565b6000611ae482611e2f565b611aee8185611e45565b9350611afe818560208601611e90565b80840191505092915050565b6000611b1582611e3a565b611b1f8185611e50565b9350611b2f818560208601611e90565b611b3881611ecd565b840191505092915050565b6000611b50601283611e50565b91507f5573657220616c726561647920766f74656400000000000000000000000000006000830152602082019050919050565b6000611b90601783611e50565b91507f5573657220616c726561647920726567697374657265640000000000000000006000830152602082019050919050565b611bcc81611e77565b82525050565b6000611bde8285611ac2565b602082019150611bee8284611ac2565b6020820191508190509392505050565b6000611c0a8284611ad9565b915081905092915050565b6000611c218285611ad9565b9150611c2d8284611ac2565b6020820191508190509392505050565b6000602082019050611c526000830184611aa4565b92915050565b6000602082019050611c6d6000830184611ab3565b92915050565b6000604082019050611c886000830185611ab3565b611c956020830184611ab3565b9392505050565b600060c082019050611cb16000830189611ab3565b611cbe6020830188611ab3565b8181036040830152611cd08187611b0a565b9050611cdf6060830186611bc3565b611cec6080830185611bc3565b611cf960a0830184611ab3565b979650505050505050565b60006020820190508181036000830152611d1e8184611b0a565b905092915050565b60006020820190508181036000830152611d3f81611b43565b9050919050565b60006020820190508181036000830152611d5f81611b83565b9050919050565b6000602082019050611d7b6000830184611bc3565b92915050565b6000604082019050611d966000830185611bc3565b611da36020830184611bc3565b9392505050565b6000604051905081810181811067ffffffffffffffff82111715611dcd57600080fd5b8060405250919050565b600067ffffffffffffffff821115611dee57600080fd5b601f19601f8301169050602081019050919050565b600067ffffffffffffffff821115611e1a57600080fd5b601f19601f8301169050602081019050919050565b600081519050919050565b600081519050919050565b600081905092915050565b600082825260208201905092915050565b60008115159050919050565b6000819050919050565b6000819050919050565b82818337600083830152505050565b60005b83811015611eae578082015181840152602081019050611e93565b83811115611ebd576000848401525b50505050565b6000819050919050565b6000601f19601f8301169050919050565b611ee781611e61565b8114611ef257600080fd5b50565b611efe81611e6d565b8114611f0957600080fd5b50565b611f1581611e77565b8114611f2057600080fd5b5056fea265627a7a72305820cb0c9abbc39b5153bf8ba2c30087e07bb24fb06db01b28a4785653a53d0e8eee6c6578706572696d656e74616cf50037",
  "source": "pragma solidity ^0.5.0;\r\npragma experimental ABIEncoderV2;\r\n\r\nimport \"./ConcatHelper.sol\";\r\nimport \"./UserManager.sol\";\r\nimport \"./CommentManager.sol\";\r\nimport \"./ParticipantManager.sol\";\r\n\r\ncontract DiscussionManager is UserManager, CommentManager, ParticipantManager {\r\n  //library to concat bytes\r\n  using ConcatHelper for bytes;\r\n\r\n\r\n  //struct with the basic discussion information\r\n  struct Discussion {\r\n    // title of the discussion topic\r\n    bytes32 title;\r\n    // initiator of the discussion\r\n    bytes32 initiator;\r\n    // the discussion is private or not\r\n    bool isPrivate;\r\n    // moderator reputation level\r\n    uint moderatorLev;\r\n    //\r\n    mapping(bytes32 => uint) participants;\r\n  }\r\n\r\n\r\n  // UserManager um;\r\n\r\n  //map with key user_address and value a number\r\n  mapping(bytes32 => uint) public discussionIds;\r\n\r\n  // Array of User that participate to discussions\r\n  Discussion[] discussions;\r\n\r\n  // event fired when an discussion is registered\r\n  event newDiscussionRegistered(bytes32 title);\r\n\r\n  constructor() public{\r\n    // NOTE: the first discussion and participant MUST be emtpy:\r\n    // if you are trying to access to an element\r\n    // of the discussionIds mapping that does not exist you will\r\n    // receive 0, that's why in the first position (with index 0) must be initialized\r\n    addDiscussion(\"\", \"\");\r\n    //addParticipant(\"\", 0, false);\r\n    // um = UserManager(msg.sender);\r\n  }\r\n  /**\r\n  * Function to register a new discussion.\r\n  *\r\n  * @param _title The displaying title\r\n  * @param _initiator The initiator address\r\n  */\r\n  function registerDiscussion(\r\n    bytes32 _title,\r\n    bytes32 _initiator)\r\n  public returns (uint) {\r\n    return addDiscussion(_title, _initiator);\r\n  }\r\n\r\n  /**\r\n  * Add a new discussion. This function must be private because an user\r\n  * cannot insert other information about comment and participant\r\n  *\r\n  * @param _title title of discussion\r\n  * @param _initiator address of initiator of discussion\r\n  */\r\n  function addDiscussion(\r\n    bytes32 _title,\r\n    bytes32 _initiator)\r\n  private returns (uint) {\r\n    // checking if the discussion is already registered\r\n    uint discussionId = discussionIds[_title];\r\n    require(discussionId == 0);\r\n    // associating the title of discussion with the new ID\r\n    discussionIds[_title] = discussions.length;\r\n    uint newDiscussionId = discussions.length++;\r\n    // storing the new user details\r\n\r\n    discussions[newDiscussionId] = Discussion({\r\n    title : _title,\r\n    initiator : _initiator,\r\n    isPrivate : false,\r\n    moderatorLev : 1\r\n    //new bytes32[] empty\r\n    //disComment : new bytes32[](0),\r\n    });\r\n    // emitting the event that a new user has been registered\r\n    emit newDiscussionRegistered(_title);\r\n    return discussionId;\r\n  }\r\n\r\n  /*\r\n  *\r\n  */\r\n  function setParticipantPer(bytes32 _address, bytes32 _id, uint _percentage) public returns (uint){\r\n    return modifyParticipantPer(_address, _id, _percentage);\r\n  }\r\n\r\n  function modifyParticipantPer(bytes32 _address, bytes32 _id, uint _percentage) private returns(uint){\r\n    uint discussionId = discussionIds[_id];\r\n    Discussion storage discussion = discussions[discussionId];\r\n    discussion.participants[_address] = _percentage;\r\n    return discussionId;\r\n  }\r\n\r\n  function getParticipantPer(bytes32 _address, bytes32 _id) public view returns(uint){\r\n    uint discussionId = discussionIds[_id];\r\n    Discussion storage discussion = discussions[discussionId];\r\n    return discussion.participants[_address];\r\n  }\r\n\r\n\r\n  function getDiscussions(uint _id) public view returns (bytes32, bytes32){\r\n    Discussion storage discussion = discussions[_id];\r\n    //string memory initiator = getNameInitiator(discussion.initiator);\r\n    return (discussion.title, discussion.initiator);\r\n  }\r\n\r\n  /*\r\n  * return the number of discussion\r\n  */\r\n  function getNumDiscussion() public view returns (uint){\r\n    return discussions.length;\r\n  }\r\n\r\n  /*\r\n  function getNameInitiator(bytes32 _address) public view returns(string memory){\r\n    string memory username = um.getName(_address);\r\n    return username;\r\n  }*/\r\n\r\n}\r\n",
  "sourcePath": "C:/Users/Giulia/IdeaProjects/BlockArt_Project/block-art/blockart-blockchain/contracts/DiscussionManager.sol",
  "compiler": {
    "name": "solc",
    "version": "0.5.8+commit.23d335f2.Emscripten.clang"
  },
  "schemaVersion": "3.0.13",
  "updatedAt": "2019-09-13T21:57:08.488Z",
  "devdoc": {
    "methods": {
      "getName(bytes32)": {
        "params": {
          "_address": "of caller of the function\r"
        }
      },
      "getReputation(bytes32)": {
        "params": {
          "_address": "of caller of the function\r"
        }
      },
      "isNotAlreadyVoted(bytes32,bytes32,bytes32,bytes32)": {
        "params": {
          "_author": "address of the user\r"
        }
      },
      "isNotRegistered(bytes32)": {
        "params": {
          "_address": "address of the user\r"
        }
      },
      "registerComment(bytes32,bytes32,string,bytes32)": {
        "params": {
          "_author": "the address of the author\r",
          "_content": "the content of the comment\r",
          "_title": "title of the comment\r"
        }
      },
      "registerDiscussion(bytes32,bytes32)": {
        "params": {
          "_initiator": "The initiator address\r",
          "_title": "The displaying title\r"
        }
      },
      "registerParticipant(bytes32,bytes32)": {
        "params": {
          "_addressPar": "address of participant\r",
          "_discussionTitle": "Title of the discussion\r"
        }
      },
      "registerUser(string,bytes32)": {
        "params": {
          "_username": "The displaying name*\r"
        }
      },
      "updateReputaion(uint256,bytes32)": {
        "params": {
          "_address": "of the updated profile\r",
          "_newEvaluation": "The new user's displaying name\r"
        }
      }
    }
  },
  "userdoc": {
    "methods": {
      "getName(bytes32)": {
        "notice": "Return string with name of function's caller\r"
      },
      "getReputation(bytes32)": {
        "notice": "Return uint256 with reputation value of function's caller\r"
      },
      "isNotAlreadyVoted(bytes32,bytes32,bytes32,bytes32)": {
        "notice": "Check if the user that is voting is already voted.\r"
      },
      "isNotRegistered(bytes32)": {
        "notice": "Check if the user that is calling the smart contract is registered.\r"
      },
      "registerComment(bytes32,bytes32,string,bytes32)": {
        "notice": "Function to register a new comment.\r "
      },
      "registerDiscussion(bytes32,bytes32)": {
        "notice": "Function to register a new discussion.\r "
      },
      "registerParticipant(bytes32,bytes32)": {
        "notice": "Function to register a new participant to the discussion.\r "
      },
      "registerUser(string,bytes32)": {
        "notice": "Function to register a new user.\r "
      },
      "updateReputaion(uint256,bytes32)": {
        "notice": "Update the evaluation of the user calling this method.\r Note: only the evaluation has been validate profile is update.\r "
      }
    }
  }
}