{
  "contractName": "ParticipantManager",
  "abi": [
    {
      "constant": true,
      "inputs": [
        {
          "name": "",
          "type": "bytes"
        }
      ],
      "name": "participantIds",
      "outputs": [
        {
          "name": "",
          "type": "uint256"
        }
      ],
      "payable": false,
      "stateMutability": "view",
      "type": "function"
    },
    {
      "constant": false,
      "inputs": [
        {
          "name": "_newEvaluation",
          "type": "uint256"
        },
        {
          "name": "_address",
          "type": "bytes32"
        }
      ],
      "name": "updateReputaion",
      "outputs": [
        {
          "name": "",
          "type": "uint256"
        }
      ],
      "payable": false,
      "stateMutability": "nonpayable",
      "type": "function"
    },
    {
      "constant": true,
      "inputs": [
        {
          "name": "_address",
          "type": "bytes32"
        }
      ],
      "name": "getName",
      "outputs": [
        {
          "name": "",
          "type": "string"
        }
      ],
      "payable": false,
      "stateMutability": "view",
      "type": "function"
    },
    {
      "constant": false,
      "inputs": [
        {
          "name": "_username",
          "type": "string"
        },
        {
          "name": "_address",
          "type": "bytes32"
        }
      ],
      "name": "registerUser",
      "outputs": [
        {
          "name": "",
          "type": "uint256"
        }
      ],
      "payable": false,
      "stateMutability": "nonpayable",
      "type": "function"
    },
    {
      "constant": true,
      "inputs": [
        {
          "name": "_address",
          "type": "bytes32"
        }
      ],
      "name": "isNotRegistered",
      "outputs": [
        {
          "name": "",
          "type": "bool"
        }
      ],
      "payable": false,
      "stateMutability": "view",
      "type": "function"
    },
    {
      "constant": true,
      "inputs": [
        {
          "name": "",
          "type": "bytes32"
        }
      ],
      "name": "usersIds",
      "outputs": [
        {
          "name": "",
          "type": "uint256"
        }
      ],
      "payable": false,
      "stateMutability": "view",
      "type": "function"
    },
    {
      "inputs": [],
      "payable": false,
      "stateMutability": "nonpayable",
      "type": "constructor"
    },
    {
      "anonymous": false,
      "inputs": [
        {
          "indexed": false,
          "name": "id",
          "type": "uint256"
        }
      ],
      "name": "newParticipantRegistered",
      "type": "event"
    },
    {
      "anonymous": false,
      "inputs": [
        {
          "indexed": false,
          "name": "username",
          "type": "string"
        }
      ],
      "name": "newUserRegistered",
      "type": "event"
    },
    {
      "anonymous": false,
      "inputs": [
        {
          "indexed": false,
          "name": "isNotregistered",
          "type": "bool"
        }
      ],
      "name": "isNotRegisteredEvent",
      "type": "event"
    },
    {
      "anonymous": false,
      "inputs": [
        {
          "indexed": false,
          "name": "id",
          "type": "uint256"
        }
      ],
      "name": "userUpdateRepEvent",
      "type": "event"
    },
    {
      "constant": false,
      "inputs": [
        {
          "name": "_addressPar",
          "type": "bytes32"
        },
        {
          "name": "_discussionTitle",
          "type": "bytes32"
        }
      ],
      "name": "registerParticipant",
      "outputs": [
        {
          "name": "",
          "type": "uint256"
        }
      ],
      "payable": false,
      "stateMutability": "nonpayable",
      "type": "function"
    },
    {
      "constant": false,
      "inputs": [
        {
          "name": "_addressVoter",
          "type": "bytes32"
        },
        {
          "name": "_isPositive",
          "type": "bool"
        },
        {
          "name": "_addressReceiver",
          "type": "bytes32"
        },
        {
          "name": "_discussionTitle",
          "type": "bytes32"
        }
      ],
      "name": "givesVote",
      "outputs": [
        {
          "name": "",
          "type": "uint256"
        }
      ],
      "payable": false,
      "stateMutability": "nonpayable",
      "type": "function"
    },
    {
      "constant": true,
      "inputs": [
        {
          "name": "_discussionTitle",
          "type": "bytes32"
        },
        {
          "name": "_participant",
          "type": "bytes32"
        }
      ],
      "name": "isParticipantPresent",
      "outputs": [
        {
          "name": "isPresent",
          "type": "bool"
        }
      ],
      "payable": false,
      "stateMutability": "view",
      "type": "function"
    },
    {
      "constant": true,
      "inputs": [
        {
          "name": "_discussionTitle",
          "type": "bytes32"
        },
        {
          "name": "_pos",
          "type": "uint256"
        }
      ],
      "name": "posParticipantIsExist",
      "outputs": [
        {
          "name": "isPresent",
          "type": "bool"
        }
      ],
      "payable": false,
      "stateMutability": "view",
      "type": "function"
    },
    {
      "constant": true,
      "inputs": [
        {
          "name": "_pos",
          "type": "uint256"
        },
        {
          "name": "_discussionTitle",
          "type": "bytes32"
        }
      ],
      "name": "isKeyPresent",
      "outputs": [
        {
          "name": "isPresent",
          "type": "bool"
        }
      ],
      "payable": false,
      "stateMutability": "view",
      "type": "function"
    },
    {
      "constant": true,
      "inputs": [
        {
          "name": "_pos",
          "type": "uint256"
        }
      ],
      "name": "getParticipantPercentage",
      "outputs": [
        {
          "name": "",
          "type": "bytes32"
        },
        {
          "name": "",
          "type": "uint256"
        }
      ],
      "payable": false,
      "stateMutability": "view",
      "type": "function"
    },
    {
      "constant": true,
      "inputs": [],
      "name": "numAllParticipants",
      "outputs": [
        {
          "name": "",
          "type": "uint256"
        }
      ],
      "payable": false,
      "stateMutability": "view",
      "type": "function"
    },
    {
      "constant": true,
      "inputs": [
        {
          "name": "_addressRep",
          "type": "bytes32"
        }
      ],
      "name": "getReputation",
      "outputs": [
        {
          "name": "reputation",
          "type": "uint256"
        }
      ],
      "payable": false,
      "stateMutability": "view",
      "type": "function"
    },
    {
      "constant": true,
      "inputs": [
        {
          "name": "_discussionTitle",
          "type": "bytes32"
        },
        {
          "name": "_voter",
          "type": "bytes32"
        }
      ],
      "name": "isNotVoterFinishedVote",
      "outputs": [
        {
          "name": "",
          "type": "bool"
        }
      ],
      "payable": false,
      "stateMutability": "view",
      "type": "function"
    }
  ],
  "bytecode": "0x60806040523480156200001157600080fd5b5062000053604051806020016040528060008152507f3078300000000000000000000000000000000000000000000000000000000000620001a660201b60201c565b50620000bb6040518060400160405280600a81526020017f4c656f6e2042726f776e000000000000000000000000000000000000000000008152507f3078333333333333333333333333000000000000000000000000000000000000620001a660201b60201c565b50620001236040518060400160405280600a81526020017f4a6f686e20446f656e74000000000000000000000000000000000000000000008152507f3078313131313131313131313131000000000000000000000000000000000000620001a660201b60201c565b506200018b6040518060400160405280600a81526020017f4d61727920536d697468000000000000000000000000000000000000000000008152507f3078323232323232323232323232000000000000000000000000000000000000620001a660201b60201c565b506200019f6000806200036760201b60201c565b506200089b565b60008060008084815260200190815260200160002054905060008114620001cc57600080fd5b60018054905060008085815260200190815260200160002081905550600060018054809190600101620002009190620005fd565b90506040518060800160405280868152602001858152602001600181526020016000815250600182815481106200023357fe5b906000526020600020906004020160008201518160000190805190602001906200025f92919062000632565b506020820151816001015560408201518160020155606082015181600301559050507f23bf3c3382eca35efcabbb4d1accad8939015a59d506e31e3df91c52840bdcb5856040518080602001828103825283818151815260200191508051906020019080838360005b83811015620002e5578082015181840152602081019050620002c8565b50505050905090810190601f168015620003135780820380516001836020036101000a031916815260200191505b509250505060405180910390a17fcc21b0efbc250b64650c3b8471125011264361ab421b7adca1f3cb7a0eedb8dc6000604051808215151515815260200191505060405180910390a1809250505092915050565b60006060620003828385620005cb60201b620012021760201c565b905060006002826040518082805190602001908083835b60208310620003be578051825260208201915060208101905060208303925062000399565b6001836020036101000a0380198251168184511680821785525050505050509050019150509081526020016040518091039020549050600081146200040257600080fd5b6003805490506002836040518082805190602001908083835b602083106200044057805182526020820191506020810190506020830392506200041b565b6001836020036101000a0380198251168184511680821785525050505050509050019150509081526020016040518091039020819055506000600380548091906001016200048f9190620006b9565b90506040518060e0016040528087815260200160058152602001600015158152602001600081526020016000815260200160008152602001600081525060038281548110620004da57fe5b9060005260206000209060070201600082015181600001556020820151816001015560408201518160020160006101000a81548160ff021916908315150217905550606082015181600301556080820151816004015560a0820151816005015560c08201518160060155905050600483908060018154018082558091505090600182039060005260206000200160009091929091909150908051906020019062000586929190620006ee565b50507f0f3d9e09584c5cc0d847a43722261995cfd30f4fe38460638362152b7771e68a816040518082815260200191505060405180910390a180935050505092915050565b606082826040516020018083815260200182815260200192505050604051602081830303815290604052905092915050565b8154818355818111156200062d576004028160040283600052602060002091820191016200062c919062000775565b5b505050565b828054600181600116156101000203166002900490600052602060002090601f016020900481019282601f106200067557805160ff1916838001178555620006a6565b82800160010185558215620006a6579182015b82811115620006a557825182559160200191906001019062000688565b5b509050620006b59190620007c1565b5090565b815481835581811115620006e957600702816007028360005260206000209182019101620006e89190620007e9565b5b505050565b828054600181600116156101000203166002900490600052602060002090601f016020900481019282601f106200073157805160ff191683800117855562000762565b8280016001018555821562000762579182015b828111156200076157825182559160200191906001019062000744565b5b509050620007719190620007c1565b5090565b620007be91905b80821115620007ba57600080820160006200079891906200084f565b600182016000905560028201600090556003820160009055506004016200077c565b5090565b90565b620007e691905b80821115620007e2576000816000905550600101620007c8565b5090565b90565b6200084c91905b80821115620008485760008082016000905560018201600090556002820160006101000a81549060ff0219169055600382016000905560048201600090556005820160009055600682016000905550600701620007f0565b5090565b90565b50805460018160011615610100020316600290046000825580601f1062000877575062000898565b601f016020900490600052602060002090810190620008979190620007c1565b5b50565b611c7780620008ab6000396000f3fe608060405234801561001057600080fd5b50600436106100f55760003560e01c80639035910711610097578063d179859c11610066578063d179859c1461058d578063d442a0d8146105d9578063d8cb32eb14610622578063ed272f7214610672576100f5565b80639035910714610465578063b0fc1875146104b5578063d0bbf988146104fb578063d14519d21461054b576100f5565b80633ef19caf116100d35780633ef19caf1461026557806354b8d5e3146102c757806368ae55631461036e5780637802eafb14610447576100f5565b80631294ed2e146100fa578063170479b01461014a5780632e2ca08c14610219575b600080fd5b6101306004803603604081101561011057600080fd5b8101908080359060200190929190803590602001909291905050506106b4565b604051808215151515815260200191505060405180910390f35b6102036004803603602081101561016057600080fd5b810190808035906020019064010000000081111561017d57600080fd5b82018360208201111561018f57600080fd5b803590602001918460018302840111640100000000831117156101b157600080fd5b91908080601f016020809104026020016040519081016040528093929190818152602001838380828437600081840152601f19601f82011690508083019250505050505050919291929050505061074c565b6040518082815260200191505060405180910390f35b61024f6004803603604081101561022f57600080fd5b81019080803590602001909291908035906020019092919050505061077a565b6040518082815260200191505060405180910390f35b6102b16004803603608081101561027b57600080fd5b81019080803590602001909291908035151590602001909291908035906020019092919080359060200190929190505050610817565b6040518082815260200191505060405180910390f35b6102f3600480360360208110156102dd57600080fd5b8101908080359060200190929190505050610c18565b6040518080602001828103825283818151815260200191508051906020019080838360005b83811015610333578082015181840152602081019050610318565b50505050905090810190601f1680156103605780820380516001836020036101000a031916815260200191505b509250505060405180910390f35b6104316004803603604081101561038457600080fd5b81019080803590602001906401000000008111156103a157600080fd5b8201836020820111156103b357600080fd5b803590602001918460018302840111640100000000831117156103d557600080fd5b91908080601f016020809104026020016040519081016040528093929190818152602001838380828437600081840152601f19601f82011690508083019250505050505050919291929080359060200190929190505050610cf6565b6040518082815260200191505060405180910390f35b61044f610d87565b6040518082815260200191505060405180910390f35b61049b6004803603604081101561047b57600080fd5b810190808035906020019092919080359060200190929190505050610d94565b604051808215151515815260200191505060405180910390f35b6104e1600480360360208110156104cb57600080fd5b8101908080359060200190929190505050610e58565b604051808215151515815260200191505060405180910390f35b6105316004803603604081101561051157600080fd5b810190808035906020019092919080359060200190929190505050610e76565b604051808215151515815260200191505060405180910390f35b6105776004803603602081101561056157600080fd5b8101908080359060200190929190505050610f4b565b6040518082815260200191505060405180910390f35b6105c3600480360360408110156105a357600080fd5b810190808035906020019092919080359060200190929190505050611032565b6040518082815260200191505060405180910390f35b610605600480360360208110156105ef57600080fd5b8101908080359060200190929190505050611046565b604051808381526020018281526020019250505060405180910390f35b6106586004803603604081101561063857600080fd5b810190808035906020019092919080359060200190929190505050611115565b604051808215151515815260200191505060405180910390f35b61069e6004803603602081101561068857600080fd5b81019080803590602001909291905050506111ea565b6040518082815260200191505060405180910390f35b60006001905060606106c68484611202565b905060006002826040518082805190602001908083835b6020831061070057805182526020820191506020810190506020830392506106dd565b6001836020036101000a0380198251168184511680821785525050505050509050019150509081526020016040518091039020549050600081141561074457600092505b505092915050565b6002818051602081018201805184825260208301602085012081835280955050505050506000915090505481565b6000806000808481526020019081526020016000205490506000600182815481106107a157fe5b906000526020600020906004020190508481600201819055508060030160008154809291906001019190505581600301819055507f166e2330253d37480aba732992b9720da8871bbc0aa0902860d2fa6bb3c0c9ee826040518082815260200191505060405180910390a1819250505092915050565b600081856108258282610d94565b610897576040517f08c379a00000000000000000000000000000000000000000000000000000000081526004018080602001828103825260128152602001807f557365722066696e697368656420766f7465000000000000000000000000000081525060200191505060405180910390fd5b60606108a38589611202565b905060006002826040518082805190602001908083835b602083106108dd57805182526020820191506020810190506020830392506108ba565b6001836020036101000a038019825116818451168082178552505050505050905001915050908152602001604051809103902054905060006003828154811061092257fe5b90600052602060002090600702019050600181600101600082825403925050819055506060610951888a611202565b905060006002826040518082805190602001908083835b6020831061098b5780518252602082019150602081019050602083039250610968565b6001836020036101000a03801982511681845116808217855250505050505090500191505090815260200160405180910390205490506000600382815481106109d057fe5b90600052602060002090600702019050600181600301600082825401925050819055508b15610a115760018160040160008282540192505081905550610a25565b600181600501600082825401925050819055505b600080905060008090505b600480549050811015610bc6576000610af760048381548110610a4f57fe5b906000526020600020018054600181600116156101000203166002900480601f016020809104026020016040519081016040528092919081815260200182805460018160011615610100020316600290048015610aed5780601f10610ac257610100808354040283529160200191610aed565b820191906000526020600020905b815481529060010190602001808311610ad057829003601f168201915b5050505050611234565b9050808d1415610bb8576000600260048481548110610b1257fe5b906000526020600020016040518082805460018160011615610100020316600290048015610b775780601f10610b55576101008083540402835291820191610b77565b820191906000526020600020905b815481529060010190602001808311610b63575b50509150509081526020016040518091039020549050600060038281548110610b9c57fe5b9060005260206000209060070201905080600401548501945050505b508080600101915050610a30565b508160050154826004015410610bf65780826005015483600401540360640281610bec57fe5b0482600601819055505b610c00818c611314565b81600601549950505050505050505050949350505050565b60606000806000848152602001908152602001600020549050600060018281548110610c4057fe5b90600052602060002090600402019050806000018054600181600116156101000203166002900480601f016020809104026020016040519081016040528092919081815260200182805460018160011615610100020316600290048015610ce85780601f10610cbd57610100808354040283529160200191610ce8565b820191906000526020600020905b815481529060010190602001808311610ccb57829003601f168201915b505050505092505050919050565b600081610d0281610e58565b610d74576040517f08c379a00000000000000000000000000000000000000000000000000000000081526004018080602001828103825260178152602001807f5573657220616c7265616479207265676973746572656400000000000000000081525060200191505060405180910390fd5b610d7e84846114ea565b91505092915050565b6000600380549050905090565b60006060610da28484611202565b905060006002826040518082805190602001908083835b60208310610ddc5780518252602082019150602081019050602083039250610db9565b6001836020036101000a0380198251168184511680821785525050505050509050019150509081526020016040518091039020549050600060038281548110610e2157fe5b90600052602060002090600702019050600081600101541115610e4a5760019350505050610e52565b600093505050505b92915050565b60008060008084815260200190815260200160002054149050919050565b60008090506000610f3560048481548110610e8d57fe5b906000526020600020018054600181600116156101000203166002900480601f016020809104026020016040519081016040528092919081815260200182805460018160011615610100020316600290048015610f2b5780601f10610f0057610100808354040283529160200191610f2b565b820191906000526020600020905b815481529060010190602001808311610f0e57829003601f168201915b5050505050611234565b905080841415610f4457600191505b5092915050565b600080905060008090505b600480549050811161102c57600061101c60048381548110610f7457fe5b906000526020600020018054600181600116156101000203166002900480601f0160208091040260200160405190810160405280929190818152602001828054600181600116156101000203166002900480156110125780601f10610fe757610100808354040283529160200191611012565b820191906000526020600020905b815481529060010190602001808311610ff557829003601f168201915b50505050506116a2565b9050508080600101915050610f56565b50919050565b600061103e8383611783565b905092915050565b600080600060026004858154811061105a57fe5b9060005260206000200160405180828054600181600116156101000203166002900480156110bf5780601f1061109d5761010080835404028352918201916110bf565b820191906000526020600020905b8154815290600101906020018083116110ab575b505091505090815260200160405180910390205490506000600382815481106110e457fe5b9060005260206000209060070201905060008160000154905060008260060154905081819550955050505050915091565b600080905060006111d46004858154811061112c57fe5b906000526020600020018054600181600116156101000203166002900480601f0160208091040260200160405190810160405280929190818152602001828054600181600116156101000203166002900480156111ca5780601f1061119f576101008083540402835291602001916111ca565b820191906000526020600020905b8154815290600101906020018083116111ad57829003601f168201915b5050505050611234565b9050808314156111e357600191505b5092915050565b60006020528060005260406000206000915090505481565b606082826040516020018083815260200182815260200192505050604051602081830303815290604052905092915050565b6000606060206040519080825280601f01601f19166020018201604052801561126c5781602001600182028038833980820191505090505b50905060008090505b60208163ffffffff1610156112ef57838163ffffffff168151811061129657fe5b602001015160f81c60f81b828263ffffffff16815181106112b357fe5b60200101907effffffffffffffffffffffffffffffffffffffffffffffffffffffffffffff1916908160001a9053508080600101915050611275565b50600081511415611306576000801b91505061130f565b60208101519150505b919050565b60008090505b6004805490508110156114e55760006113e16004838154811061133957fe5b906000526020600020018054600181600116156101000203166002900480601f0160208091040260200160405190810160405280929190818152602001828054600181600116156101000203166002900480156113d75780601f106113ac576101008083540402835291602001916113d7565b820191906000526020600020905b8154815290600101906020018083116113ba57829003601f168201915b5050505050611234565b9050808314156114d75760006002600484815481106113fc57fe5b9060005260206000200160405180828054600181600116156101000203166002900480156114615780601f1061143f576101008083540402835291820191611461565b820191906000526020600020905b81548152906001019060200180831161144d575b5050915050908152602001604051809103902054905060006003828154811061148657fe5b9060005260206000209060070201905080600501548160040154106114c957858160050154826004015403606402816114bb57fe5b0481600601819055506114d4565b600081600601819055505b50505b50808060010191505061131a565b505050565b6000806000808481526020019081526020016000205490506000811461150f57600080fd5b6001805490506000808581526020019081526020016000208190555060006001805480919060010161154191906119d0565b905060405180608001604052808681526020018581526020016001815260200160008152506001828154811061157357fe5b9060005260206000209060040201600082015181600001908051906020019061159d929190611a02565b506020820151816001015560408201518160020155606082015181600301559050507f23bf3c3382eca35efcabbb4d1accad8939015a59d506e31e3df91c52840bdcb5856040518080602001828103825283818151815260200191508051906020019080838360005b83811015611621578082015181840152602081019050611606565b50505050905090810190601f16801561164e5780820380516001836020036101000a031916815260200191505b509250505060405180910390a17fcc21b0efbc250b64650c3b8471125011264361ab421b7adca1f3cb7a0eedb8dc6000604051808215151515815260200191505060405180910390a1809250505092915050565b6000606060206040519080825280601f01601f1916602001820160405280156116da5781602001600182028038833980820191505090505b5090506000602090505b60408163ffffffff16101561175e57838163ffffffff168151811061170557fe5b602001015160f81c60f81b828263ffffffff168151811061172257fe5b60200101907effffffffffffffffffffffffffffffffffffffffffffffffffffffffffffff1916908160001a90535080806001019150506116e4565b50600081511415611775576000801b91505061177e565b60208101519150505b919050565b600060606117918385611202565b905060006002826040518082805190602001908083835b602083106117cb57805182526020820191506020810190506020830392506117a8565b6001836020036101000a03801982511681845116808217855250505050505090500191505090815260200160405180910390205490506000811461180e57600080fd5b6003805490506002836040518082805190602001908083835b6020831061184a5780518252602082019150602081019050602083039250611827565b6001836020036101000a0380198251168184511680821785525050505050509050019150509081526020016040518091039020819055506000600380548091906001016118979190611a82565b90506040518060e00160405280878152602001600581526020016000151581526020016000815260200160008152602001600081526020016000815250600382815481106118e157fe5b9060005260206000209060070201600082015181600001556020820151816001015560408201518160020160006101000a81548160ff021916908315150217905550606082015181600301556080820151816004015560a0820151816005015560c08201518160060155905050600483908060018154018082558091505090600182039060005260206000200160009091929091909150908051906020019061198b929190611ab4565b50507f0f3d9e09584c5cc0d847a43722261995cfd30f4fe38460638362152b7771e68a816040518082815260200191505060405180910390a180935050505092915050565b8154818355818111156119fd576004028160040283600052602060002091820191016119fc9190611b34565b5b505050565b828054600181600116156101000203166002900490600052602060002090601f016020900481019282601f10611a4357805160ff1916838001178555611a71565b82800160010185558215611a71579182015b82811115611a70578251825591602001919060010190611a55565b5b509050611a7e9190611b7b565b5090565b815481835581811115611aaf57600702816007028360005260206000209182019101611aae9190611ba0565b5b505050565b828054600181600116156101000203166002900490600052602060002090601f016020900481019282601f10611af557805160ff1916838001178555611b23565b82800160010185558215611b23579182015b82811115611b22578251825591602001919060010190611b07565b5b509050611b309190611b7b565b5090565b611b7891905b80821115611b745760008082016000611b539190611c03565b60018201600090556002820160009055600382016000905550600401611b3a565b5090565b90565b611b9d91905b80821115611b99576000816000905550600101611b81565b5090565b90565b611c0091905b80821115611bfc5760008082016000905560018201600090556002820160006101000a81549060ff0219169055600382016000905560048201600090556005820160009055600682016000905550600701611ba6565b5090565b90565b50805460018160011615610100020316600290046000825580601f10611c295750611c48565b601f016020900490600052602060002090810190611c479190611b7b565b5b5056fea165627a7a723058202e1bbb5a2799f818d114747bb4473c484d0de93c26272f9a3cdaa49ff1fea6200029",
  "source": "pragma solidity ^0.5.0;\r\n\r\nimport \"./UserManager.sol\";\r\nimport \"./ConcatHelper.sol\";\r\n\r\ncontract ParticipantManager is UserManager {\r\n  //library to concat bytes\r\n  using ConcatHelper for bytes;\r\n\r\n  //struct with basic information about discussion participant\r\n  struct Participant {\r\n    //address of participator\r\n    bytes32 addressPar;\r\n    // number of remaining vote\r\n    uint numRemVote;\r\n    // is mediator of conversation or not\r\n    bool isMediator;\r\n\r\n    uint256 numOfRecVote;\r\n\r\n    uint256 numOfPosVote;\r\n\r\n    uint256 numOfNegVote;\r\n\r\n    uint256 percentage;\r\n  }\r\n\r\n  // map with key= 'discussion_title' + 'user_address' and value a number\r\n  mapping(bytes => uint) public participantIds;\r\n  // Array of User that discussions\r\n  Participant[] participants;\r\n  // event fired when an participant is registered\r\n  event newParticipantRegistered(uint id);\r\n  // a list of the participantIds\r\n  bytes[] internal keyList;\r\n\r\n\r\n  //\r\n  modifier checkIfVoterFinishedVote(\r\n    bytes32 _discussionTitle,\r\n    bytes32 _voter) {\r\n    require(\r\n      isNotVoterFinishedVote(_discussionTitle, _voter),\r\n      \"User finished vote\"\r\n    );\r\n    _;\r\n  }\r\n\r\n  constructor() public{\r\n    // NOTE: the first discussion and participant MUST be empty:\r\n    // if you are trying to access to an element\r\n    // of the participantIds mapping that does not exist you will\r\n    // receive 0, that's why in the first position (with index 0) must be initialized\r\n    addParticipant(\"\", \"\");\r\n  }\r\n\r\n  /**\r\n * Function to register a new participant to the discussion.\r\n *\r\n * @param _addressPar address of participant\r\n * @param _discussionTitle Title of the discussion\r\n */\r\n  function registerParticipant(\r\n    bytes32 _addressPar,\r\n    bytes32 _discussionTitle)\r\n  public returns (uint) {\r\n    return addParticipant(_addressPar, _discussionTitle);\r\n  }\r\n\r\n  /**\r\n  * Add a new discussion. This function must be private to avoid\r\n  * that an user insert other participant\r\n  *\r\n  * @param _addressPar address of participant\r\n  * @param _discussionTitle Title of discussion\r\n  */\r\n  function addParticipant(\r\n    bytes32 _addressPar,\r\n    bytes32 _discussionTitle)\r\n  private returns (uint) {\r\n    bytes memory _participantKey = ConcatHelper.concat(_discussionTitle, _addressPar);\r\n    // checking if the discussion is already registered\r\n    uint participantId = participantIds[_participantKey];\r\n    require(participantId == 0);\r\n    // associating the title of discussion with the new ID\r\n    participantIds[_participantKey] = participants.length;\r\n    uint newParticipantId = participants.length++;\r\n    // storing the new user details\r\n    participants[newParticipantId] = Participant({\r\n      addressPar : _addressPar,\r\n      numRemVote : 5,\r\n      isMediator : false,\r\n      numOfRecVote : 0,\r\n      numOfPosVote : 0,\r\n      numOfNegVote : 0,\r\n      percentage : 0\r\n      });\r\n    // add key to the keyList\r\n    keyList.push(_participantKey);\r\n    // emitting the event that a new user has been registered\r\n    emit newParticipantRegistered(newParticipantId);\r\n    return newParticipantId;\r\n  }\r\n\r\n  function givesVote(\r\n    bytes32 _addressVoter,\r\n    bool _isPositive,\r\n    bytes32 _addressReceiver,\r\n    bytes32 _discussionTitle)\r\n  checkIfVoterFinishedVote(_discussionTitle, _addressVoter) public returns (uint) {\r\n    // require(_addressVoter != _addressReceiver);\r\n    // Leave remaing vote to the sender\r\n    bytes memory _participantKeySender = ConcatHelper.concat(_discussionTitle, _addressVoter);\r\n    uint participantIdSender = participantIds[_participantKeySender];\r\n    Participant storage participantSender = participants[participantIdSender];\r\n    participantSender.numRemVote -= 1;\r\n    // Add vote to the voter\r\n\r\n    bytes memory _participantKeyReceiver = ConcatHelper.concat(_discussionTitle, _addressReceiver);\r\n    uint participantIdReceiver = participantIds[_participantKeyReceiver];\r\n    Participant storage participantReceiver = participants[participantIdReceiver];\r\n    participantReceiver.numOfRecVote += 1;\r\n\r\n    if (_isPositive)\r\n      participantReceiver.numOfPosVote += 1;\r\n    else\r\n      participantReceiver.numOfNegVote += 1;\r\n    //\r\n    uint votesPos = 0;\r\n    for (uint i = 0; i < keyList.length; i++) {\r\n      bytes32 discussionTitle = ConcatHelper.deconcat(keyList[i]);\r\n      if (_discussionTitle == discussionTitle) {\r\n        uint participantId = participantIds[keyList[i]];\r\n        Participant storage participant = participants[participantId];\r\n        // votes += participant.numOfRecVote;\r\n        votesPos += participant.numOfPosVote;\r\n      }\r\n    }\r\n\r\n    if (participantReceiver.numOfPosVote >= participantReceiver.numOfNegVote)\r\n      participantReceiver.percentage = (100 * (participantReceiver.numOfPosVote - participantReceiver.numOfNegVote)) / votesPos;\r\n    setOthersPercentage(votesPos, _discussionTitle);\r\n    return participantReceiver.percentage;\r\n  }\r\n\r\n  function setOthersPercentage(uint votesPos, bytes32 _discussionTitle) internal {\r\n    for (uint i = 0; i < keyList.length; i++) {\r\n      bytes32 discussionTitle = ConcatHelper.deconcat(keyList[i]);\r\n      if (_discussionTitle == discussionTitle) {\r\n        uint participantId = participantIds[keyList[i]];\r\n        Participant storage participant = participants[participantId];\r\n        if (participant.numOfPosVote >= participant.numOfNegVote)\r\n          participant.percentage = (100 * (participant.numOfPosVote - participant.numOfNegVote)) / votesPos;\r\n        else\r\n          participant.percentage = 0;\r\n      }\r\n    }\r\n  }\r\n\r\n\r\n  function isParticipantPresent(bytes32 _discussionTitle, bytes32 _participant) public view returns (bool isPresent) {\r\n    isPresent = true;\r\n    bytes memory _participantKey = ConcatHelper.concat(_discussionTitle, _participant);\r\n    uint participantId = participantIds[_participantKey];\r\n    if (participantId == 0)\r\n      isPresent = false;\r\n  }\r\n  //\r\n  //  function getDiscussionPercentage(bytes32 _addressRep, bytes32 _discussionTitle) public view returns (uint reputation){\r\n  //    reputation = 0;\r\n  //    bytes memory _participantKey = ConcatHelper.concat(_discussionTitle, _addressRep);\r\n  //\r\n  //    uint participantId = participantIds[_participantKey];\r\n  //    Participant storage participant = participants[participantId];\r\n  //    if (participant.numOfPosVote >= participant.numOfNegVote)\r\n  //      reputation = participant.percentage;\r\n  //  }\r\n\r\n\r\n  function posParticipantIsExist(\r\n    bytes32 _discussionTitle,\r\n    uint _pos)\r\n  public view returns (bool isPresent){\r\n    isPresent = false;\r\n    bytes32 discussionTitle = ConcatHelper.deconcat(keyList[_pos]);\r\n    if (_discussionTitle == discussionTitle)\r\n      isPresent = true;\r\n  }\r\n\r\n  function isKeyPresent(\r\n    uint _pos,\r\n    bytes32 _discussionTitle)\r\n  public view returns (bool isPresent) {\r\n    isPresent = false;\r\n    bytes32 discussionTitle = ConcatHelper.deconcat(keyList[_pos]);\r\n    if (_discussionTitle == discussionTitle)\r\n      isPresent = true;\r\n  }\r\n\r\n  function getParticipantPercentage(\r\n    uint _pos)\r\n  public view returns (bytes32, uint) {\r\n    uint participantId = participantIds[keyList[_pos]];\r\n    Participant storage participant = participants[participantId];\r\n    bytes32 addressPar = participant.addressPar;\r\n    uint discussionPercentage = participant.percentage;\r\n    return (addressPar, discussionPercentage);\r\n  }\r\n\r\n  function numAllParticipants() public view returns (uint){\r\n    return participants.length;\r\n  }\r\n\r\n  function getReputation(bytes32 _addressRep) public view returns (uint reputation){\r\n    reputation = 0;\r\n    for (uint i = 0; i <= keyList.length; i++) {\r\n      bytes32 addressRep = ConcatHelper.deconcat2(keyList[i]);\r\n    }\r\n  }\r\n\r\n\r\n  function isNotVoterFinishedVote(\r\n    bytes32 _discussionTitle,\r\n    bytes32 _voter)\r\n  public view returns (bool) {\r\n    bytes memory _participantKey = ConcatHelper.concat(_discussionTitle, _voter);\r\n    uint participantId = participantIds[_participantKey];\r\n    Participant storage participant = participants[participantId];\r\n    if (participant.numRemVote > 0)\r\n      return true;\r\n    else\r\n      return false;\r\n  }\r\n}\r\n",
  "sourcePath": "C:\\Users\\Giulia\\IdeaProjects\\BlockArt_Project\\block-art\\blockart-blockchain\\contracts\\ParticipantManager.sol",
  "compiler": {
    "name": "solc",
    "version": "0.5.8+commit.23d335f2.Emscripten.clang"
  },
  "schemaVersion": "3.0.13",
  "updatedAt": "2019-09-15T17:47:21.757Z",
  "devdoc": {
    "methods": {
      "getName(bytes32)": {
        "params": {
          "_address": "of caller of the function\r"
        }
      },
      "isNotRegistered(bytes32)": {
        "params": {
          "_address": "address of the user\r"
        }
      },
      "registerParticipant(bytes32,bytes32)": {
        "params": {
          "_addressPar": "address of participant\r",
          "_discussionTitle": "Title of the discussion\r"
        }
      },
      "registerUser(string,bytes32)": {
        "params": {
          "_username": "The displaying name*\r"
        }
      },
      "updateReputaion(uint256,bytes32)": {
        "params": {
          "_address": "of the updated profile\r",
          "_newEvaluation": "The new user's displaying name\r"
        }
      }
    }
  },
  "userdoc": {
    "methods": {
      "getName(bytes32)": {
        "notice": "Return string with name of function's caller\r"
      },
      "isNotRegistered(bytes32)": {
        "notice": "Check if the user that is calling the smart contract is registered.\r"
      },
      "registerParticipant(bytes32,bytes32)": {
        "notice": "Function to register a new participant to the discussion.\r "
      },
      "registerUser(string,bytes32)": {
        "notice": "Function to register a new user.\r "
      },
      "updateReputaion(uint256,bytes32)": {
        "notice": "Update the evaluation of the user calling this method.\r Note: only the evaluation has been validate profile is update.\r "
      }
    }
  }
}