{
  "contractName": "ParticipantManager",
  "abi": [
    {
      "constant": true,
      "inputs": [
        {
          "name": "",
          "type": "bytes"
        }
      ],
      "name": "participantIds",
      "outputs": [
        {
          "name": "",
          "type": "uint256"
        }
      ],
      "payable": false,
      "stateMutability": "view",
      "type": "function"
    },
    {
      "constant": false,
      "inputs": [
        {
          "name": "_newEvaluation",
          "type": "uint256"
        },
        {
          "name": "_address",
          "type": "bytes32"
        }
      ],
      "name": "updateReputaion",
      "outputs": [
        {
          "name": "",
          "type": "uint256"
        }
      ],
      "payable": false,
      "stateMutability": "nonpayable",
      "type": "function"
    },
    {
      "constant": true,
      "inputs": [
        {
          "name": "_address",
          "type": "bytes32"
        }
      ],
      "name": "getName",
      "outputs": [
        {
          "name": "",
          "type": "string"
        }
      ],
      "payable": false,
      "stateMutability": "view",
      "type": "function"
    },
    {
      "constant": false,
      "inputs": [
        {
          "name": "_username",
          "type": "string"
        },
        {
          "name": "_address",
          "type": "bytes32"
        }
      ],
      "name": "registerUser",
      "outputs": [
        {
          "name": "",
          "type": "uint256"
        }
      ],
      "payable": false,
      "stateMutability": "nonpayable",
      "type": "function"
    },
    {
      "constant": true,
      "inputs": [
        {
          "name": "_address",
          "type": "bytes32"
        }
      ],
      "name": "isNotRegistered",
      "outputs": [
        {
          "name": "",
          "type": "bool"
        }
      ],
      "payable": false,
      "stateMutability": "view",
      "type": "function"
    },
    {
      "constant": true,
      "inputs": [
        {
          "name": "_address",
          "type": "bytes32"
        }
      ],
      "name": "getReputation",
      "outputs": [
        {
          "name": "",
          "type": "uint256"
        }
      ],
      "payable": false,
      "stateMutability": "view",
      "type": "function"
    },
    {
      "constant": true,
      "inputs": [
        {
          "name": "",
          "type": "bytes32"
        }
      ],
      "name": "usersIds",
      "outputs": [
        {
          "name": "",
          "type": "uint256"
        }
      ],
      "payable": false,
      "stateMutability": "view",
      "type": "function"
    },
    {
      "inputs": [],
      "payable": false,
      "stateMutability": "nonpayable",
      "type": "constructor"
    },
    {
      "anonymous": false,
      "inputs": [
        {
          "indexed": false,
          "name": "id",
          "type": "uint256"
        }
      ],
      "name": "newParticipantRegistered",
      "type": "event"
    },
    {
      "anonymous": false,
      "inputs": [
        {
          "indexed": false,
          "name": "username",
          "type": "string"
        }
      ],
      "name": "newUserRegistered",
      "type": "event"
    },
    {
      "anonymous": false,
      "inputs": [
        {
          "indexed": false,
          "name": "isNotregistered",
          "type": "bool"
        }
      ],
      "name": "isNotRegisteredEvent",
      "type": "event"
    },
    {
      "anonymous": false,
      "inputs": [
        {
          "indexed": false,
          "name": "id",
          "type": "uint256"
        }
      ],
      "name": "userUpdateRepEvent",
      "type": "event"
    },
    {
      "constant": false,
      "inputs": [
        {
          "name": "_addressPar",
          "type": "bytes32"
        },
        {
          "name": "_discussionTitle",
          "type": "bytes32"
        }
      ],
      "name": "registerParticipant",
      "outputs": [
        {
          "name": "",
          "type": "uint256"
        }
      ],
      "payable": false,
      "stateMutability": "nonpayable",
      "type": "function"
    }
  ],
  "bytecode": "0x60806040523480156200001157600080fd5b5062000053604051806020016040528060008152507f3078300000000000000000000000000000000000000000000000000000000000620001a660201b60201c565b50620000bb6040518060400160405280600a81526020017f4c656f6e2042726f776e000000000000000000000000000000000000000000008152507f3078333333333333333333333333000000000000000000000000000000000000620001a660201b60201c565b50620001236040518060400160405280600a81526020017f4a6f686e20446f656e74000000000000000000000000000000000000000000008152507f3078313131313131313131313131000000000000000000000000000000000000620001a660201b60201c565b506200018b6040518060400160405280600a81526020017f4d61727920536d697468000000000000000000000000000000000000000000008152507f3078323232323232323232323232000000000000000000000000000000000000620001a660201b60201c565b506200019f6000806200036760201b60201c565b506200076f565b60008060008084815260200190815260200160002054905060008114620001cc57600080fd5b6001805490506000808581526020019081526020016000208190555060006001805480919060010162000200919062000578565b90506040518060800160405280868152602001858152602001600181526020016000815250600182815481106200023357fe5b906000526020600020906004020160008201518160000190805190602001906200025f929190620005ad565b506020820151816001015560408201518160020155606082015181600301559050507f23bf3c3382eca35efcabbb4d1accad8939015a59d506e31e3df91c52840bdcb5856040518080602001828103825283818151815260200191508051906020019080838360005b83811015620002e5578082015181840152602081019050620002c8565b50505050905090810190601f168015620003135780820380516001836020036101000a031916815260200191505b509250505060405180910390a17fcc21b0efbc250b64650c3b8471125011264361ab421b7adca1f3cb7a0eedb8dc6000604051808215151515815260200191505060405180910390a1809250505092915050565b600060606200038283856200054660201b62000a891760201c565b905060006002826040518082805190602001908083835b60208310620003be578051825260208201915060208101905060208303925062000399565b6001836020036101000a0380198251168184511680821785525050505050509050019150509081526020016040518091039020549050600081146200040257600080fd5b6003805490506002836040518082805190602001908083835b602083106200044057805182526020820191506020810190506020830392506200041b565b6001836020036101000a0380198251168184511680821785525050505050509050019150509081526020016040518091039020819055506000600380548091906001016200048f919062000634565b90506040518060600160405280878152602001600581526020016000151581525060038281548110620004be57fe5b9060005260206000209060030201600082015181600001556020820151816001015560408201518160020160006101000a81548160ff0219169083151502179055509050507f0f3d9e09584c5cc0d847a43722261995cfd30f4fe38460638362152b7771e68a816040518082815260200191505060405180910390a180935050505092915050565b606082826040516020018083815260200182815260200192505050604051602081830303815290604052905092915050565b815481835581811115620005a857600402816004028360005260206000209182019101620005a7919062000669565b5b505050565b828054600181600116156101000203166002900490600052602060002090601f016020900481019282601f10620005f057805160ff191683800117855562000621565b8280016001018555821562000621579182015b828111156200062057825182559160200191906001019062000603565b5b509050620006309190620006b5565b5090565b8154818355818111156200066457600302816003028360005260206000209182019101620006639190620006dd565b5b505050565b620006b291905b80821115620006ae57600080820160006200068c919062000723565b6001820160009055600282016000905560038201600090555060040162000670565b5090565b90565b620006da91905b80821115620006d6576000816000905550600101620006bc565b5090565b90565b6200072091905b808211156200071c5760008082016000905560018201600090556002820160006101000a81549060ff021916905550600301620006e4565b5090565b90565b50805460018160011615610100020316600290046000825580601f106200074b57506200076c565b601f0160209004906000526020600020908101906200076b9190620006b5565b5b50565b610cc2806200077f6000396000f3fe608060405234801561001057600080fd5b50600436106100885760003560e01c8063b0fc18751161005b578063b0fc187514610328578063d14519d21461036e578063d179859c146103b0578063ed272f72146103fc57610088565b8063170479b01461008d5780632e2ca08c1461015c57806354b8d5e3146101a857806368ae55631461024f575b600080fd5b610146600480360360208110156100a357600080fd5b81019080803590602001906401000000008111156100c057600080fd5b8201836020820111156100d257600080fd5b803590602001918460018302840111640100000000831117156100f457600080fd5b91908080601f016020809104026020016040519081016040528093929190818152602001838380828437600081840152601f19601f82011690508083019250505050505050919291929050505061043e565b6040518082815260200191505060405180910390f35b6101926004803603604081101561017257600080fd5b81019080803590602001909291908035906020019092919050505061046c565b6040518082815260200191505060405180910390f35b6101d4600480360360208110156101be57600080fd5b8101908080359060200190929190505050610509565b6040518080602001828103825283818151815260200191508051906020019080838360005b838110156102145780820151818401526020810190506101f9565b50505050905090810190601f1680156102415780820380516001836020036101000a031916815260200191505b509250505060405180910390f35b6103126004803603604081101561026557600080fd5b810190808035906020019064010000000081111561028257600080fd5b82018360208201111561029457600080fd5b803590602001918460018302840111640100000000831117156102b657600080fd5b91908080601f016020809104026020016040519081016040528093929190818152602001838380828437600081840152601f19601f820116905080830192505050505050509192919290803590602001909291905050506105e7565b6040518082815260200191505060405180910390f35b6103546004803603602081101561033e57600080fd5b8101908080359060200190929190505050610678565b604051808215151515815260200191505060405180910390f35b61039a6004803603602081101561038457600080fd5b8101908080359060200190929190505050610696565b6040518082815260200191505060405180910390f35b6103e6600480360360408110156103c657600080fd5b8101908080359060200190929190803590602001909291905050506106db565b6040518082815260200191505060405180910390f35b6104286004803603602081101561041257600080fd5b81019080803590602001909291905050506106ef565b6040518082815260200191505060405180910390f35b6002818051602081018201805184825260208301602085012081835280955050505050506000915090505481565b60008060008084815260200190815260200160002054905060006001828154811061049357fe5b906000526020600020906004020190508481600201819055508060030160008154809291906001019190505581600301819055507f166e2330253d37480aba732992b9720da8871bbc0aa0902860d2fa6bb3c0c9ee826040518082815260200191505060405180910390a1819250505092915050565b6060600080600084815260200190815260200160002054905060006001828154811061053157fe5b90600052602060002090600402019050806000018054600181600116156101000203166002900480601f0160208091040260200160405190810160405280929190818152602001828054600181600116156101000203166002900480156105d95780601f106105ae576101008083540402835291602001916105d9565b820191906000526020600020905b8154815290600101906020018083116105bc57829003601f168201915b505050505092505050919050565b6000816105f381610678565b610665576040517f08c379a00000000000000000000000000000000000000000000000000000000081526004018080602001828103825260178152602001807f5573657220616c7265616479207265676973746572656400000000000000000081525060200191505060405180910390fd5b61066f8484610707565b91505092915050565b60008060008084815260200190815260200160002054149050919050565b6000806000808481526020019081526020016000205490506000600182815481106106bd57fe5b90600052602060002090600402019050806002015492505050919050565b60006106e783836108bf565b905092915050565b60006020528060005260406000206000915090505481565b6000806000808481526020019081526020016000205490506000811461072c57600080fd5b6001805490506000808581526020019081526020016000208190555060006001805480919060010161075e9190610abb565b905060405180608001604052808681526020018581526020016001815260200160008152506001828154811061079057fe5b906000526020600020906004020160008201518160000190805190602001906107ba929190610aed565b506020820151816001015560408201518160020155606082015181600301559050507f23bf3c3382eca35efcabbb4d1accad8939015a59d506e31e3df91c52840bdcb5856040518080602001828103825283818151815260200191508051906020019080838360005b8381101561083e578082015181840152602081019050610823565b50505050905090810190601f16801561086b5780820380516001836020036101000a031916815260200191505b509250505060405180910390a17fcc21b0efbc250b64650c3b8471125011264361ab421b7adca1f3cb7a0eedb8dc6000604051808215151515815260200191505060405180910390a1809250505092915050565b600060606108cd8385610a89565b905060006002826040518082805190602001908083835b6020831061090757805182526020820191506020810190506020830392506108e4565b6001836020036101000a03801982511681845116808217855250505050505090500191505090815260200160405180910390205490506000811461094a57600080fd5b6003805490506002836040518082805190602001908083835b602083106109865780518252602082019150602081019050602083039250610963565b6001836020036101000a0380198251168184511680821785525050505050509050019150509081526020016040518091039020819055506000600380548091906001016109d39190610b6d565b90506040518060600160405280878152602001600581526020016000151581525060038281548110610a0157fe5b9060005260206000209060030201600082015181600001556020820151816001015560408201518160020160006101000a81548160ff0219169083151502179055509050507f0f3d9e09584c5cc0d847a43722261995cfd30f4fe38460638362152b7771e68a816040518082815260200191505060405180910390a180935050505092915050565b606082826040516020018083815260200182815260200192505050604051602081830303815290604052905092915050565b815481835581811115610ae857600402816004028360005260206000209182019101610ae79190610b9f565b5b505050565b828054600181600116156101000203166002900490600052602060002090601f016020900481019282601f10610b2e57805160ff1916838001178555610b5c565b82800160010185558215610b5c579182015b82811115610b5b578251825591602001919060010190610b40565b5b509050610b699190610be6565b5090565b815481835581811115610b9a57600302816003028360005260206000209182019101610b999190610c0b565b5b505050565b610be391905b80821115610bdf5760008082016000610bbe9190610c4e565b60018201600090556002820160009055600382016000905550600401610ba5565b5090565b90565b610c0891905b80821115610c04576000816000905550600101610bec565b5090565b90565b610c4b91905b80821115610c475760008082016000905560018201600090556002820160006101000a81549060ff021916905550600301610c11565b5090565b90565b50805460018160011615610100020316600290046000825580601f10610c745750610c93565b601f016020900490600052602060002090810190610c929190610be6565b5b5056fea165627a7a7230582065220753eb58bd61afa4fa5948886af8966d657372d360cf076f839baeca85680029",
  "source": "pragma solidity ^0.5.0;\r\n\r\nimport \"./UserManager.sol\";\r\nimport \"./ConcatHelper.sol\";\r\n\r\ncontract ParticipantManager is UserManager{\r\n  //library to concat bytes\r\n  using ConcatHelper for bytes;\r\n\r\n  //struct with basic information about discussion participant\r\n  struct Participant {\r\n    //address of participator\r\n    bytes32 addressPar;\r\n    // number of remaining vote\r\n    uint numRemVote;\r\n    // is mediator of conversation or not\r\n    bool isMediator;\r\n  }\r\n\r\n  // map with key= 'discussion_title' + 'user_address' and value a number\r\n  mapping(bytes => uint) public participantIds;\r\n  // Array of User that discussions\r\n  Participant[] participants;\r\n  // event fired when an participant is registered\r\n  event newParticipantRegistered(uint id);\r\n\r\n  constructor() public{\r\n    // NOTE: the first discussion and participant MUST be empty:\r\n    // if you are trying to access to an element\r\n    // of the participantIds mapping that does not exist you will\r\n    // receive 0, that's why in the first position (with index 0) must be initialized\r\n    addParticipant(\"\", \"\");\r\n  }\r\n\r\n  /**\r\n * Function to register a new participant to the discussion.\r\n *\r\n * @param _addressPar address of participant\r\n * @param _discussionTitle Title of the discussion\r\n */\r\n  function registerParticipant(\r\n    bytes32 _addressPar,\r\n    bytes32 _discussionTitle)\r\n  public returns (uint) {\r\n    return addParticipant(_addressPar, _discussionTitle);\r\n  }\r\n\r\n  /**\r\n  * Add a new discussion. This function must be private to avoid\r\n  * that an user insert other participant\r\n  *\r\n  * @param _addressPar address of participant\r\n  * @param _discussionTitle Title of discussion\r\n  */\r\n  function addParticipant(\r\n    bytes32 _addressPar,\r\n    bytes32 _discussionTitle)\r\n  private returns (uint) {\r\n    bytes memory _participantKey = ConcatHelper.concat(_discussionTitle, _addressPar);\r\n    // checking if the discussion is already registered\r\n    uint participantId = participantIds[_participantKey];\r\n    require(participantId == 0);\r\n    // associating the title of discussion with the new ID\r\n    participantIds[_participantKey] = participants.length;\r\n    uint newParticipantId = participants.length++;\r\n    // storing the new user details\r\n    participants[newParticipantId] = Participant({\r\n      addressPar : _addressPar,\r\n      numRemVote : 5,\r\n      isMediator : false\r\n      });\r\n    // emitting the event that a new user has been registered\r\n    emit newParticipantRegistered(newParticipantId);\r\n    return newParticipantId;\r\n  }\r\n}\r\n",
  "sourcePath": "C:\\Users\\Giulia\\IdeaProjects\\BlockArt_Project\\block-art\\blockart-blockchain\\contracts\\ParticipantManager.sol",
  "compiler": {
    "name": "solc",
    "version": "0.5.8+commit.23d335f2.Emscripten.clang"
  },
  "schemaVersion": "3.0.13",
  "updatedAt": "2019-09-12T19:17:45.019Z",
  "devdoc": {
    "methods": {
      "getName(bytes32)": {
        "params": {
          "_address": "of caller of the function\r"
        }
      },
      "getReputation(bytes32)": {
        "params": {
          "_address": "of caller of the function\r"
        }
      },
      "isNotRegistered(bytes32)": {
        "params": {
          "_address": "address of the user\r"
        }
      },
      "registerParticipant(bytes32,bytes32)": {
        "params": {
          "_addressPar": "address of participant\r",
          "_discussionTitle": "Title of the discussion\r"
        }
      },
      "registerUser(string,bytes32)": {
        "params": {
          "_username": "The displaying name*\r"
        }
      },
      "updateReputaion(uint256,bytes32)": {
        "params": {
          "_address": "of the updated profile\r",
          "_newEvaluation": "The new user's displaying name\r"
        }
      }
    }
  },
  "userdoc": {
    "methods": {
      "getName(bytes32)": {
        "notice": "Return string with name of function's caller\r"
      },
      "getReputation(bytes32)": {
        "notice": "Return uint256 with reputation value of function's caller\r"
      },
      "isNotRegistered(bytes32)": {
        "notice": "Check if the user that is calling the smart contract is registered.\r"
      },
      "registerParticipant(bytes32,bytes32)": {
        "notice": "Function to register a new participant to the discussion.\r "
      },
      "registerUser(string,bytes32)": {
        "notice": "Function to register a new user.\r "
      },
      "updateReputaion(uint256,bytes32)": {
        "notice": "Update the evaluation of the user calling this method.\r Note: only the evaluation has been validate profile is update.\r "
      }
    }
  }
}