{
  "contractName": "UserManager",
  "abi": [
    {
      "constant": true,
      "inputs": [
        {
          "name": "",
          "type": "bytes32"
        }
      ],
      "name": "usersIds",
      "outputs": [
        {
          "name": "",
          "type": "uint256"
        }
      ],
      "payable": false,
      "stateMutability": "view",
      "type": "function"
    },
    {
      "inputs": [],
      "payable": false,
      "stateMutability": "nonpayable",
      "type": "constructor"
    },
    {
      "anonymous": false,
      "inputs": [
        {
          "indexed": false,
          "name": "id",
          "type": "uint256"
        }
      ],
      "name": "newUserRegistered",
      "type": "event"
    },
    {
      "anonymous": false,
      "inputs": [
        {
          "indexed": false,
          "name": "id",
          "type": "uint256"
        }
      ],
      "name": "userUpdateRepEvent",
      "type": "event"
    },
    {
      "constant": false,
      "inputs": [
        {
          "name": "_username",
          "type": "string"
        },
        {
          "name": "_address",
          "type": "bytes32"
        }
      ],
      "name": "registerUser",
      "outputs": [
        {
          "name": "",
          "type": "uint256"
        }
      ],
      "payable": false,
      "stateMutability": "nonpayable",
      "type": "function"
    },
    {
      "constant": false,
      "inputs": [
        {
          "name": "_newEvaluation",
          "type": "uint256"
        },
        {
          "name": "_address",
          "type": "bytes32"
        }
      ],
      "name": "updateReputaion",
      "outputs": [
        {
          "name": "",
          "type": "uint256"
        }
      ],
      "payable": false,
      "stateMutability": "nonpayable",
      "type": "function"
    },
    {
      "constant": true,
      "inputs": [
        {
          "name": "_address",
          "type": "bytes32"
        }
      ],
      "name": "isNotRegistered",
      "outputs": [
        {
          "name": "",
          "type": "bool"
        }
      ],
      "payable": false,
      "stateMutability": "view",
      "type": "function"
    },
    {
      "constant": true,
      "inputs": [
        {
          "name": "_address",
          "type": "bytes32"
        }
      ],
      "name": "getName",
      "outputs": [
        {
          "name": "",
          "type": "string"
        }
      ],
      "payable": false,
      "stateMutability": "view",
      "type": "function"
    }
  ],
  "bytecode": "0x60806040523480156200001157600080fd5b5062000053604051806020016040528060008152507f30783000000000000000000000000000000000000000000000000000000000006200019260201b60201c565b50620000bb6040518060400160405280600a81526020017f4c656f6e2042726f776e000000000000000000000000000000000000000000008152507f30783333333333333333333333330000000000000000000000000000000000006200019260201b60201c565b50620001236040518060400160405280600a81526020017f4a6f686e20446f656e74000000000000000000000000000000000000000000008152507f30783131313131313131313131310000000000000000000000000000000000006200019260201b60201c565b506200018b6040518060400160405280600a81526020017f4d61727920536d697468000000000000000000000000000000000000000000008152507f30783232323232323232323232320000000000000000000000000000000000006200019260201b60201c565b506200042b565b60008060008084815260200190815260200160002054905060008114620001b857600080fd5b60018054905060008085815260200190815260200160002081905550600060018054809190600101620001ec9190620002af565b90506040518060800160405280868152602001858152602001600181526020016000815250600182815481106200021f57fe5b906000526020600020906004020160008201518160000190805190602001906200024b929190620002e4565b506020820151816001015560408201518160020155606082015181600301559050507f2456c02735fb44894660d2af194ca5261385d8ee03675e1d75b0da1300a764cd816040518082815260200191505060405180910390a1809250505092915050565b815481835581811115620002df57600402816004028360005260206000209182019101620002de91906200036b565b5b505050565b828054600181600116156101000203166002900490600052602060002090601f016020900481019282601f106200032757805160ff191683800117855562000358565b8280016001018555821562000358579182015b82811115620003575782518255916020019190600101906200033a565b5b509050620003679190620003b7565b5090565b620003b491905b80821115620003b057600080820160006200038e9190620003df565b6001820160009055600282016000905560038201600090555060040162000372565b5090565b90565b620003dc91905b80821115620003d8576000816000905550600101620003be565b5090565b90565b50805460018160011615610100020316600290046000825580601f1062000407575062000428565b601f016020900490600052602060002090810190620004279190620003b7565b5b50565b61079b806200043b6000396000f3fe608060405234801561001057600080fd5b50600436106100575760003560e01c80632e2ca08c1461005c57806354b8d5e3146100a857806368ae55631461014f578063b0fc187514610228578063ed272f721461026e575b600080fd5b6100926004803603604081101561007257600080fd5b8101908080359060200190929190803590602001909291905050506102b0565b6040518082815260200191505060405180910390f35b6100d4600480360360208110156100be57600080fd5b810190808035906020019092919050505061034d565b6040518080602001828103825283818151815260200191508051906020019080838360005b838110156101145780820151818401526020810190506100f9565b50505050905090810190601f1680156101415780820380516001836020036101000a031916815260200191505b509250505060405180910390f35b6102126004803603604081101561016557600080fd5b810190808035906020019064010000000081111561018257600080fd5b82018360208201111561019457600080fd5b803590602001918460018302840111640100000000831117156101b657600080fd5b91908080601f016020809104026020016040519081016040528093929190818152602001838380828437600081840152601f19601f8201169050808301925050505050505091929192908035906020019092919050505061042b565b6040518082815260200191505060405180910390f35b6102546004803603602081101561023e57600080fd5b81019080803590602001909291905050506104bc565b604051808215151515815260200191505060405180910390f35b61029a6004803603602081101561028457600080fd5b81019080803590602001909291905050506104da565b6040518082815260200191505060405180910390f35b6000806000808481526020019081526020016000205490506000600182815481106102d757fe5b906000526020600020906004020190508481600201819055508060030160008154809291906001019190505581600301819055507f166e2330253d37480aba732992b9720da8871bbc0aa0902860d2fa6bb3c0c9ee826040518082815260200191505060405180910390a1819250505092915050565b6060600080600084815260200190815260200160002054905060006001828154811061037557fe5b90600052602060002090600402019050806000018054600181600116156101000203166002900480601f01602080910402602001604051908101604052809291908181526020018280546001816001161561010002031660029004801561041d5780601f106103f25761010080835404028352916020019161041d565b820191906000526020600020905b81548152906001019060200180831161040057829003601f168201915b505050505092505050919050565b600081610437816104bc565b6104a9576040517f08c379a00000000000000000000000000000000000000000000000000000000081526004018080602001828103825260178152602001807f5573657220616c7265616479207265676973746572656400000000000000000081525060200191505060405180910390fd5b6104b384846104f2565b91505092915050565b60008060008084815260200190815260200160002054149050919050565b60006020528060005260406000206000915090505481565b6000806000808481526020019081526020016000205490506000811461051757600080fd5b600180549050600080858152602001908152602001600020819055506000600180548091906001016105499190610609565b905060405180608001604052808681526020018581526020016001815260200160008152506001828154811061057b57fe5b906000526020600020906004020160008201518160000190805190602001906105a592919061063b565b506020820151816001015560408201518160020155606082015181600301559050507f2456c02735fb44894660d2af194ca5261385d8ee03675e1d75b0da1300a764cd816040518082815260200191505060405180910390a1809250505092915050565b8154818355818111156106365760040281600402836000526020600020918201910161063591906106bb565b5b505050565b828054600181600116156101000203166002900490600052602060002090601f016020900481019282601f1061067c57805160ff19168380011785556106aa565b828001600101855582156106aa579182015b828111156106a957825182559160200191906001019061068e565b5b5090506106b79190610702565b5090565b6106ff91905b808211156106fb57600080820160006106da9190610727565b600182016000905560028201600090556003820160009055506004016106c1565b5090565b90565b61072491905b80821115610720576000816000905550600101610708565b5090565b90565b50805460018160011615610100020316600290046000825580601f1061074d575061076c565b601f01602090049060005260206000209081019061076b9190610702565b5b5056fea165627a7a72305820f2aaad52a6166f175c19d398709e0d7b7afbbb51ae986ec65f874e7f1dcb96f80029",
  "source": "pragma solidity ^0.5.0;\r\n\r\ncontract UserManager {\r\n  //sturct with the basic user information\r\n  struct User {\r\n    // name of the user\r\n    string username;\r\n    // a variable with the sum of positive evaluation\r\n    bytes32 repAddress;\r\n    // reputation value\r\n    uint256 repValue;\r\n    // number of evaluation received\r\n    uint256 numEvaluation;\r\n    // needed a variable to keep track of the past works\r\n  }\r\n\r\n  // it maps the user's reputation E|Beta(α,β)| address with the user ID\r\n  // where α is the variable of the sum of negative evaluation and β the sum of positive evaluation\r\n  mapping(bytes32 => uint) public usersIds;\r\n\r\n  // Array of User that holds the list of users and their details\r\n  User[] users;\r\n\r\n  // event fired when an user is registered\r\n  event newUserRegistered(uint id);\r\n\r\n  // event fired when the user updates his status or name\r\n  event userUpdateRepEvent(uint id);\r\n\r\n  // Modifier: check if the caller of the smart contract is registered\r\n  modifier checkSenderIsNotRegistered(bytes32 _address) {\r\n    require(\r\n      isNotRegistered(_address),\r\n      \"User already registered\"\r\n    );\r\n    _;\r\n  }\r\n\r\n  /**\r\n  * Constructor function\r\n  */\r\n  constructor() public {\r\n    // NOTE: the first user MUST be emtpy: if you are trying to access to an element\r\n    // of the usersIds mapping that does not exist (like usersIds[0x12345]) you will\r\n    // receive 0, that's why in the first position (with index 0) must be initialized\r\n    addUser(\"\", bytes32(\"0x0\"));\r\n    // Some dummy data\r\n\r\n    addUser(\"Leon Brown\", bytes32(\"0x333333333333\"));\r\n    addUser(\"John Doent\", bytes32(\"0x111111111111\"));\r\n    addUser(\"Mary Smith\", bytes32(\"0x222222222222\"));\r\n\r\n  }\r\n\r\n  /**\r\n  * Function to register a new user.\r\n  *\r\n  * @param _username The displaying name*\r\n  */\r\n  function registerUser(string memory _username, bytes32 _address) checkSenderIsNotRegistered(_address) public returns (uint) {\r\n    return addUser(_username, _address);\r\n  }\r\n  /**\r\n  * Add a new user. This function must be private because an user\r\n  * cannot insert another user on behalf of someone else.\r\n  *\r\n  * @param _rAddr Address reputation of the user\r\n  */\r\n  function addUser(string memory _username, bytes32 _rAddr) private returns (uint) {\r\n    // checking if the user is already registered\r\n    uint userId = usersIds[_rAddr];\r\n    require(userId == 0);\r\n    // associating the user reputation address with the new ID\r\n    usersIds[_rAddr] = users.length;\r\n    uint newUserId = users.length++;\r\n    // storing the new user details\r\n    users[newUserId] = User({\r\n      username : _username,\r\n      repAddress : _rAddr,\r\n      // inital reputation value\r\n      repValue : 1,\r\n      // initial number of evaluation received\r\n      numEvaluation : 0\r\n      });\r\n    // emitting the event that a new user has been registered\r\n    emit newUserRegistered(newUserId);\r\n    return newUserId;\r\n  }\r\n\r\n  /**\r\n  * Update the evaluation of the user calling this method.\r\n  * Note: only the evaluation has been validate profile is update.\r\n  *\r\n  * @param _newEvaluation The new user's displaying name\r\n  * @param _address of the updated profile\r\n  */\r\n  function updateReputaion(uint256 _newEvaluation, bytes32 _address) public returns (uint) {\r\n    // Only the voting of moderator.\r\n    uint userId = usersIds[_address];\r\n    User storage user = users[userId];\r\n    user.repValue = _newEvaluation;\r\n    user.numEvaluation = user.numEvaluation++;\r\n    emit userUpdateRepEvent(userId);\r\n    return userId;\r\n  }\r\n\r\n  /**\r\n  * Update the works and its percentage of the user\r\n  * beta version dosen't keep track of the past partecipation of the user\r\n  * the final version will need of a review of this function\r\n  *\r\n  * @param _address of the updated profile\r\n  * @param _workId identifier of the work\r\n  * @param _percentage percentage of the collaboration of the user to the work\r\n  */\r\n\r\n  //function updateWork(address _address, uint _workId, uint _percentage) public return(uint) {\r\n  //    uint userId = usersIds[_address];\r\n  //    User storage user = users[userId];\r\n  //\r\n  //    //  checking if the user is already registered\r\n  //    //  uint workId = user.works[_workId];\r\n  //    user.works[_workId] = _percentage;\r\n  //    emit userUpdateWorksEvent(workId);\r\n  //    return workId;\r\n  //}\r\n\r\n  /**\r\n  * Check if the user that is calling the smart contract is registered.\r\n  */\r\n  function isNotRegistered(bytes32 _address) public view returns (bool) {\r\n    return (usersIds[_address] == 0);\r\n  }\r\n\r\n  function getName(bytes32 _address) public view returns (string memory){\r\n    uint userId = usersIds[_address];\r\n    User storage user = users[userId];\r\n    return user.username;\r\n  }\r\n}\r\n\r\n",
  "sourcePath": "C:\\Users\\Giulia\\IdeaProjects\\BlockArt_Project\\block-art\\blockart-blockchain\\contracts\\UserManager.sol",
  "compiler": {
    "name": "solc",
    "version": "0.5.8+commit.23d335f2.Emscripten.clang"
  },
  "schemaVersion": "3.0.13",
  "updatedAt": "2019-09-10T13:29:53.500Z",
  "devdoc": {
    "methods": {
      "registerUser(string,bytes32)": {
        "params": {
          "_username": "The displaying name*\r"
        }
      },
      "updateReputaion(uint256,bytes32)": {
        "params": {
          "_address": "of the updated profile\r",
          "_newEvaluation": "The new user's displaying name\r"
        }
      }
    }
  },
  "userdoc": {
    "methods": {
      "constructor": "Constructor function\r",
      "isNotRegistered(bytes32)": {
        "notice": "Check if the user that is calling the smart contract is registered.\r"
      },
      "registerUser(string,bytes32)": {
        "notice": "Function to register a new user.\r "
      },
      "updateReputaion(uint256,bytes32)": {
        "notice": "Update the evaluation of the user calling this method.\r Note: only the evaluation has been validate profile is update.\r "
      }
    }
  }
}